{
	"SimpleRBAC.sol": {
		"SimpleRBAC": {
			"abi": [
				{
					"anonymous": false,
					"inputs": [
						{
							"indexed": true,
							"internalType": "address",
							"name": "user",
							"type": "address"
						},
						{
							"indexed": false,
							"internalType": "string",
							"name": "did",
							"type": "string"
						}
					],
					"name": "DIDRegistered",
					"type": "event"
				},
				{
					"anonymous": false,
					"inputs": [
						{
							"indexed": true,
							"internalType": "address",
							"name": "user",
							"type": "address"
						},
						{
							"indexed": false,
							"internalType": "string",
							"name": "did",
							"type": "string"
						}
					],
					"name": "DIDUpdated",
					"type": "event"
				},
				{
					"anonymous": false,
					"inputs": [
						{
							"indexed": false,
							"internalType": "string",
							"name": "role",
							"type": "string"
						},
						{
							"indexed": false,
							"internalType": "string",
							"name": "permission",
							"type": "string"
						}
					],
					"name": "PermissionGranted",
					"type": "event"
				},
				{
					"anonymous": false,
					"inputs": [
						{
							"indexed": false,
							"internalType": "string",
							"name": "role",
							"type": "string"
						},
						{
							"indexed": false,
							"internalType": "string",
							"name": "permission",
							"type": "string"
						}
					],
					"name": "PermissionRevoked",
					"type": "event"
				},
				{
					"anonymous": false,
					"inputs": [
						{
							"indexed": true,
							"internalType": "address",
							"name": "user",
							"type": "address"
						},
						{
							"indexed": false,
							"internalType": "string",
							"name": "role",
							"type": "string"
						}
					],
					"name": "RoleAssigned",
					"type": "event"
				},
				{
					"inputs": [
						{
							"internalType": "address",
							"name": "user",
							"type": "address"
						},
						{
							"internalType": "string",
							"name": "role",
							"type": "string"
						}
					],
					"name": "assignRole",
					"outputs": [],
					"stateMutability": "nonpayable",
					"type": "function"
				},
				{
					"inputs": [
						{
							"internalType": "string",
							"name": "role",
							"type": "string"
						},
						{
							"internalType": "string",
							"name": "permission",
							"type": "string"
						}
					],
					"name": "grantPermission",
					"outputs": [],
					"stateMutability": "nonpayable",
					"type": "function"
				},
				{
					"inputs": [
						{
							"internalType": "string",
							"name": "role",
							"type": "string"
						},
						{
							"internalType": "string",
							"name": "permission",
							"type": "string"
						}
					],
					"name": "hasPermission",
					"outputs": [
						{
							"internalType": "bool",
							"name": "",
							"type": "bool"
						}
					],
					"stateMutability": "view",
					"type": "function"
				},
				{
					"inputs": [
						{
							"internalType": "string",
							"name": "permission",
							"type": "string"
						}
					],
					"name": "hasPermissionForCaller",
					"outputs": [
						{
							"internalType": "bool",
							"name": "",
							"type": "bool"
						}
					],
					"stateMutability": "view",
					"type": "function"
				},
				{
					"inputs": [
						{
							"internalType": "address",
							"name": "user",
							"type": "address"
						},
						{
							"internalType": "string",
							"name": "role",
							"type": "string"
						}
					],
					"name": "hasRole",
					"outputs": [
						{
							"internalType": "bool",
							"name": "",
							"type": "bool"
						}
					],
					"stateMutability": "view",
					"type": "function"
				},
				{
					"inputs": [
						{
							"internalType": "address",
							"name": "user",
							"type": "address"
						},
						{
							"internalType": "string",
							"name": "did",
							"type": "string"
						}
					],
					"name": "registerDID",
					"outputs": [],
					"stateMutability": "nonpayable",
					"type": "function"
				},
				{
					"inputs": [
						{
							"internalType": "address",
							"name": "user",
							"type": "address"
						}
					],
					"name": "resolveDID",
					"outputs": [
						{
							"internalType": "string",
							"name": "",
							"type": "string"
						}
					],
					"stateMutability": "view",
					"type": "function"
				},
				{
					"inputs": [
						{
							"internalType": "string",
							"name": "role",
							"type": "string"
						},
						{
							"internalType": "string",
							"name": "permission",
							"type": "string"
						}
					],
					"name": "revokePermission",
					"outputs": [],
					"stateMutability": "nonpayable",
					"type": "function"
				},
				{
					"inputs": [
						{
							"internalType": "address",
							"name": "user",
							"type": "address"
						},
						{
							"internalType": "string",
							"name": "did",
							"type": "string"
						}
					],
					"name": "updateDID",
					"outputs": [],
					"stateMutability": "nonpayable",
					"type": "function"
				},
				{
					"inputs": [
						{
							"internalType": "address",
							"name": "",
							"type": "address"
						}
					],
					"name": "userDIDs",
					"outputs": [
						{
							"internalType": "string",
							"name": "",
							"type": "string"
						}
					],
					"stateMutability": "view",
					"type": "function"
				}
			],
			"devdoc": {
				"kind": "dev",
				"methods": {},
				"version": 1
			},
			"evm": {
				"assembly": "    /* \"SimpleRBAC.sol\":60:3136  contract SimpleRBAC {... */\n  mstore(0x40, 0x80)\n  callvalue\n  dup1\n  iszero\n  tag_1\n  jumpi\n  0x00\n  dup1\n  revert\ntag_1:\n  pop\n  dataSize(sub_0)\n  dup1\n  dataOffset(sub_0)\n  0x00\n  codecopy\n  0x00\n  return\nstop\n\nsub_0: assembly {\n        /* \"SimpleRBAC.sol\":60:3136  contract SimpleRBAC {... */\n      mstore(0x40, 0x80)\n      callvalue\n      dup1\n      iszero\n      tag_1\n      jumpi\n      0x00\n      dup1\n      revert\n    tag_1:\n      pop\n      jumpi(tag_2, lt(calldatasize, 0x04))\n      shr(0xe0, calldataload(0x00))\n      dup1\n      0xa62d747d\n      gt\n      tag_13\n      jumpi\n      dup1\n      0xa62d747d\n      eq\n      tag_8\n      jumpi\n      dup1\n      0xac5f9fd0\n      eq\n      tag_9\n      jumpi\n      dup1\n      0xb7dfcbee\n      eq\n      tag_10\n      jumpi\n      dup1\n      0xe627dcb6\n      eq\n      tag_11\n      jumpi\n      dup1\n      0xf37488d9\n      eq\n      tag_12\n      jumpi\n      jump(tag_2)\n    tag_13:\n      dup1\n      0x217fe6c6\n      eq\n      tag_3\n      jumpi\n      dup1\n      0x25f2ac62\n      eq\n      tag_4\n      jumpi\n      dup1\n      0x2808235f\n      eq\n      tag_5\n      jumpi\n      dup1\n      0x74d1bd97\n      eq\n      tag_6\n      jumpi\n      dup1\n      0x7e023865\n      eq\n      tag_7\n      jumpi\n    tag_2:\n      0x00\n      dup1\n      revert\n        /* \"SimpleRBAC.sol\":2484:2665  function hasRole(address user, string memory role) public view returns (bool) {... */\n    tag_3:\n      tag_14\n      0x04\n      dup1\n      calldatasize\n      sub\n      dup2\n      add\n      swap1\n      tag_15\n      swap2\n      swap1\n      tag_16\n      jump\t// in\n    tag_15:\n      tag_17\n      jump\t// in\n    tag_14:\n      mload(0x40)\n      tag_18\n      swap2\n      swap1\n      tag_19\n      jump\t// in\n    tag_18:\n      mload(0x40)\n      dup1\n      swap2\n      sub\n      swap1\n      return\n        /* \"SimpleRBAC.sol\":2076:2285  function updateDID(address user, string memory did) public {... */\n    tag_4:\n      tag_20\n      0x04\n      dup1\n      calldatasize\n      sub\n      dup2\n      add\n      swap1\n      tag_21\n      swap2\n      swap1\n      tag_16\n      jump\t// in\n    tag_21:\n      tag_22\n      jump\t// in\n    tag_20:\n      stop\n        /* \"SimpleRBAC.sol\":1353:1541  function grantPermission(string memory role, string memory permission) public {... */\n    tag_5:\n      tag_23\n      0x04\n      dup1\n      calldatasize\n      sub\n      dup2\n      add\n      swap1\n      tag_24\n      swap2\n      swap1\n      tag_25\n      jump\t// in\n    tag_24:\n      tag_26\n      jump\t// in\n    tag_23:\n      stop\n        /* \"SimpleRBAC.sol\":1821:2040  function registerDID(address user, string memory did) public {... */\n    tag_6:\n      tag_27\n      0x04\n      dup1\n      calldatasize\n      sub\n      dup2\n      add\n      swap1\n      tag_28\n      swap2\n      swap1\n      tag_16\n      jump\t// in\n    tag_28:\n      tag_29\n      jump\t// in\n    tag_27:\n      stop\n        /* \"SimpleRBAC.sol\":769:811  mapping(address => string) public userDIDs */\n    tag_7:\n      tag_30\n      0x04\n      dup1\n      calldatasize\n      sub\n      dup2\n      add\n      swap1\n      tag_31\n      swap2\n      swap1\n      tag_32\n      jump\t// in\n    tag_31:\n      tag_33\n      jump\t// in\n    tag_30:\n      mload(0x40)\n      tag_34\n      swap2\n      swap1\n      tag_35\n      jump\t// in\n    tag_34:\n      mload(0x40)\n      dup1\n      swap2\n      sub\n      swap1\n      return\n        /* \"SimpleRBAC.sol\":2940:3133  function hasPermissionForCaller(string memory permission) public view returns (bool) {... */\n    tag_8:\n      tag_36\n      0x04\n      dup1\n      calldatasize\n      sub\n      dup2\n      add\n      swap1\n      tag_37\n      swap2\n      swap1\n      tag_38\n      jump\t// in\n    tag_37:\n      tag_39\n      jump\t// in\n    tag_36:\n      mload(0x40)\n      tag_40\n      swap2\n      swap1\n      tag_19\n      jump\t// in\n    tag_40:\n      mload(0x40)\n      dup1\n      swap2\n      sub\n      swap1\n      return\n        /* \"SimpleRBAC.sol\":1589:1779  function revokePermission(string memory role, string memory permission) public {... */\n    tag_9:\n      tag_41\n      0x04\n      dup1\n      calldatasize\n      sub\n      dup2\n      add\n      swap1\n      tag_42\n      swap2\n      swap1\n      tag_25\n      jump\t// in\n    tag_42:\n      tag_43\n      jump\t// in\n    tag_41:\n      stop\n        /* \"SimpleRBAC.sol\":1170:1308  function assignRole(address user, string memory role) public {... */\n    tag_10:\n      tag_44\n      0x04\n      dup1\n      calldatasize\n      sub\n      dup2\n      add\n      swap1\n      tag_45\n      swap2\n      swap1\n      tag_16\n      jump\t// in\n    tag_45:\n      tag_46\n      jump\t// in\n    tag_44:\n      stop\n        /* \"SimpleRBAC.sol\":2322:2432  function resolveDID(address user) public view returns (string memory) {... */\n    tag_11:\n      tag_47\n      0x04\n      dup1\n      calldatasize\n      sub\n      dup2\n      add\n      swap1\n      tag_48\n      swap2\n      swap1\n      tag_32\n      jump\t// in\n    tag_48:\n      tag_49\n      jump\t// in\n    tag_47:\n      mload(0x40)\n      tag_50\n      swap2\n      swap1\n      tag_35\n      jump\t// in\n    tag_50:\n      mload(0x40)\n      dup1\n      swap2\n      sub\n      swap1\n      return\n        /* \"SimpleRBAC.sol\":2723:2878  function hasPermission(string memory role, string memory permission) public view returns (bool) {... */\n    tag_12:\n      tag_51\n      0x04\n      dup1\n      calldatasize\n      sub\n      dup2\n      add\n      swap1\n      tag_52\n      swap2\n      swap1\n      tag_25\n      jump\t// in\n    tag_52:\n      tag_53\n      jump\t// in\n    tag_51:\n      mload(0x40)\n      tag_54\n      swap2\n      swap1\n      tag_19\n      jump\t// in\n    tag_54:\n      mload(0x40)\n      dup1\n      swap2\n      sub\n      swap1\n      return\n        /* \"SimpleRBAC.sol\":2484:2665  function hasRole(address user, string memory role) public view returns (bool) {... */\n    tag_17:\n        /* \"SimpleRBAC.sol\":2556:2560  bool */\n      0x00\n        /* \"SimpleRBAC.sol\":2651:2655  role */\n      dup2\n        /* \"SimpleRBAC.sol\":2634:2656  abi.encodePacked(role) */\n      add(0x20, mload(0x40))\n      tag_56\n      swap2\n      swap1\n      tag_57\n      jump\t// in\n    tag_56:\n      mload(0x40)\n      0x20\n      dup2\n      dup4\n      sub\n      sub\n      dup2\n      mstore\n      swap1\n      0x40\n      mstore\n        /* \"SimpleRBAC.sol\":2624:2657  keccak256(abi.encodePacked(role)) */\n      dup1\n      mload\n      swap1\n      0x20\n      add\n      keccak256\n        /* \"SimpleRBAC.sol\":2607:2612  roles */\n      0x00\n        /* \"SimpleRBAC.sol\":2607:2618  roles[user] */\n      dup1\n        /* \"SimpleRBAC.sol\":2613:2617  user */\n      dup6\n        /* \"SimpleRBAC.sol\":2607:2618  roles[user] */\n      0xffffffffffffffffffffffffffffffffffffffff\n      and\n      0xffffffffffffffffffffffffffffffffffffffff\n      and\n      dup2\n      mstore\n      0x20\n      add\n      swap1\n      dup2\n      mstore\n      0x20\n      add\n      0x00\n      keccak256\n        /* \"SimpleRBAC.sol\":2590:2619  abi.encodePacked(roles[user]) */\n      add(0x20, mload(0x40))\n      tag_58\n      swap2\n      swap1\n      tag_59\n      jump\t// in\n    tag_58:\n      mload(0x40)\n      0x20\n      dup2\n      dup4\n      sub\n      sub\n      dup2\n      mstore\n      swap1\n      0x40\n      mstore\n        /* \"SimpleRBAC.sol\":2580:2620  keccak256(abi.encodePacked(roles[user])) */\n      dup1\n      mload\n      swap1\n      0x20\n      add\n      keccak256\n        /* \"SimpleRBAC.sol\":2580:2657  keccak256(abi.encodePacked(roles[user])) == keccak256(abi.encodePacked(role)) */\n      eq\n        /* \"SimpleRBAC.sol\":2573:2657  return keccak256(abi.encodePacked(roles[user])) == keccak256(abi.encodePacked(role)) */\n      swap1\n      pop\n        /* \"SimpleRBAC.sol\":2484:2665  function hasRole(address user, string memory role) public view returns (bool) {... */\n      swap3\n      swap2\n      pop\n      pop\n      jump\t// out\n        /* \"SimpleRBAC.sol\":2076:2285  function updateDID(address user, string memory did) public {... */\n    tag_22:\n        /* \"SimpleRBAC.sol\":2185:2186  0 */\n      0x00\n        /* \"SimpleRBAC.sol\":2160:2168  userDIDs */\n      0x02\n        /* \"SimpleRBAC.sol\":2160:2174  userDIDs[user] */\n      0x00\n        /* \"SimpleRBAC.sol\":2169:2173  user */\n      dup5\n        /* \"SimpleRBAC.sol\":2160:2174  userDIDs[user] */\n      0xffffffffffffffffffffffffffffffffffffffff\n      and\n      0xffffffffffffffffffffffffffffffffffffffff\n      and\n      dup2\n      mstore\n      0x20\n      add\n      swap1\n      dup2\n      mstore\n      0x20\n      add\n      0x00\n      keccak256\n        /* \"SimpleRBAC.sol\":2154:2182  bytes(userDIDs[user]).length */\n      dup1\n      sload\n      tag_61\n      swap1\n      tag_62\n      jump\t// in\n    tag_61:\n      swap1\n      pop\n        /* \"SimpleRBAC.sol\":2154:2186  bytes(userDIDs[user]).length > 0 */\n      gt\n        /* \"SimpleRBAC.sol\":2146:2209  require(bytes(userDIDs[user]).length > 0, \"DID not registered\") */\n      tag_63\n      jumpi\n      mload(0x40)\n      0x08c379a000000000000000000000000000000000000000000000000000000000\n      dup2\n      mstore\n      0x04\n      add\n      tag_64\n      swap1\n      tag_65\n      jump\t// in\n    tag_64:\n      mload(0x40)\n      dup1\n      swap2\n      sub\n      swap1\n      revert\n    tag_63:\n        /* \"SimpleRBAC.sol\":2237:2240  did */\n      dup1\n        /* \"SimpleRBAC.sol\":2220:2228  userDIDs */\n      0x02\n        /* \"SimpleRBAC.sol\":2220:2234  userDIDs[user] */\n      0x00\n        /* \"SimpleRBAC.sol\":2229:2233  user */\n      dup5\n        /* \"SimpleRBAC.sol\":2220:2234  userDIDs[user] */\n      0xffffffffffffffffffffffffffffffffffffffff\n      and\n      0xffffffffffffffffffffffffffffffffffffffff\n      and\n      dup2\n      mstore\n      0x20\n      add\n      swap1\n      dup2\n      mstore\n      0x20\n      add\n      0x00\n      keccak256\n        /* \"SimpleRBAC.sol\":2220:2240  userDIDs[user] = did */\n      swap1\n      dup2\n      tag_66\n      swap2\n      swap1\n      tag_67\n      jump\t// in\n    tag_66:\n      pop\n        /* \"SimpleRBAC.sol\":2267:2271  user */\n      dup2\n        /* \"SimpleRBAC.sol\":2256:2277  DIDUpdated(user, did) */\n      0xffffffffffffffffffffffffffffffffffffffff\n      and\n      0xa0016473004b22caf3cbe32658844f4dfe20b54f72612d0ea625cc07ca3a192b\n        /* \"SimpleRBAC.sol\":2273:2276  did */\n      dup3\n        /* \"SimpleRBAC.sol\":2256:2277  DIDUpdated(user, did) */\n      mload(0x40)\n      tag_68\n      swap2\n      swap1\n      tag_35\n      jump\t// in\n    tag_68:\n      mload(0x40)\n      dup1\n      swap2\n      sub\n      swap1\n      log2\n        /* \"SimpleRBAC.sol\":2076:2285  function updateDID(address user, string memory did) public {... */\n      pop\n      pop\n      jump\t// out\n        /* \"SimpleRBAC.sol\":1353:1541  function grantPermission(string memory role, string memory permission) public {... */\n    tag_26:\n        /* \"SimpleRBAC.sol\":1478:1482  true */\n      0x01\n        /* \"SimpleRBAC.sol\":1442:1457  rolePermissions */\n      dup1\n        /* \"SimpleRBAC.sol\":1458:1462  role */\n      dup4\n        /* \"SimpleRBAC.sol\":1442:1463  rolePermissions[role] */\n      mload(0x40)\n      tag_70\n      swap2\n      swap1\n      tag_57\n      jump\t// in\n    tag_70:\n      swap1\n      dup2\n      mstore\n      0x20\n      add\n      mload(0x40)\n      dup1\n      swap2\n      sub\n      swap1\n      keccak256\n        /* \"SimpleRBAC.sol\":1464:1474  permission */\n      dup3\n        /* \"SimpleRBAC.sol\":1442:1475  rolePermissions[role][permission] */\n      mload(0x40)\n      tag_71\n      swap2\n      swap1\n      tag_57\n      jump\t// in\n    tag_71:\n      swap1\n      dup2\n      mstore\n      0x20\n      add\n      mload(0x40)\n      dup1\n      swap2\n      sub\n      swap1\n      keccak256\n      0x00\n        /* \"SimpleRBAC.sol\":1442:1482  rolePermissions[role][permission] = true */\n      0x0100\n      exp\n      dup2\n      sload\n      dup2\n      0xff\n      mul\n      not\n      and\n      swap1\n      dup4\n      iszero\n      iszero\n      mul\n      or\n      swap1\n      sstore\n      pop\n        /* \"SimpleRBAC.sol\":1498:1533  PermissionGranted(role, permission) */\n      0x995f2970a2ea0d66cc2150b5c93e3c413df023b5b88534d66259c9c3c6dac86a\n        /* \"SimpleRBAC.sol\":1516:1520  role */\n      dup3\n        /* \"SimpleRBAC.sol\":1522:1532  permission */\n      dup3\n        /* \"SimpleRBAC.sol\":1498:1533  PermissionGranted(role, permission) */\n      mload(0x40)\n      tag_72\n      swap3\n      swap2\n      swap1\n      tag_73\n      jump\t// in\n    tag_72:\n      mload(0x40)\n      dup1\n      swap2\n      sub\n      swap1\n      log1\n        /* \"SimpleRBAC.sol\":1353:1541  function grantPermission(string memory role, string memory permission) public {... */\n      pop\n      pop\n      jump\t// out\n        /* \"SimpleRBAC.sol\":1821:2040  function registerDID(address user, string memory did) public {... */\n    tag_29:\n        /* \"SimpleRBAC.sol\":1933:1934  0 */\n      0x00\n        /* \"SimpleRBAC.sol\":1907:1915  userDIDs */\n      0x02\n        /* \"SimpleRBAC.sol\":1907:1921  userDIDs[user] */\n      0x00\n        /* \"SimpleRBAC.sol\":1916:1920  user */\n      dup5\n        /* \"SimpleRBAC.sol\":1907:1921  userDIDs[user] */\n      0xffffffffffffffffffffffffffffffffffffffff\n      and\n      0xffffffffffffffffffffffffffffffffffffffff\n      and\n      dup2\n      mstore\n      0x20\n      add\n      swap1\n      dup2\n      mstore\n      0x20\n      add\n      0x00\n      keccak256\n        /* \"SimpleRBAC.sol\":1901:1929  bytes(userDIDs[user]).length */\n      dup1\n      sload\n      tag_75\n      swap1\n      tag_62\n      jump\t// in\n    tag_75:\n      swap1\n      pop\n        /* \"SimpleRBAC.sol\":1901:1934  bytes(userDIDs[user]).length == 0 */\n      eq\n        /* \"SimpleRBAC.sol\":1893:1961  require(bytes(userDIDs[user]).length == 0, \"DID already registered\") */\n      tag_76\n      jumpi\n      mload(0x40)\n      0x08c379a000000000000000000000000000000000000000000000000000000000\n      dup2\n      mstore\n      0x04\n      add\n      tag_77\n      swap1\n      tag_78\n      jump\t// in\n    tag_77:\n      mload(0x40)\n      dup1\n      swap2\n      sub\n      swap1\n      revert\n    tag_76:\n        /* \"SimpleRBAC.sol\":1989:1992  did */\n      dup1\n        /* \"SimpleRBAC.sol\":1972:1980  userDIDs */\n      0x02\n        /* \"SimpleRBAC.sol\":1972:1986  userDIDs[user] */\n      0x00\n        /* \"SimpleRBAC.sol\":1981:1985  user */\n      dup5\n        /* \"SimpleRBAC.sol\":1972:1986  userDIDs[user] */\n      0xffffffffffffffffffffffffffffffffffffffff\n      and\n      0xffffffffffffffffffffffffffffffffffffffff\n      and\n      dup2\n      mstore\n      0x20\n      add\n      swap1\n      dup2\n      mstore\n      0x20\n      add\n      0x00\n      keccak256\n        /* \"SimpleRBAC.sol\":1972:1992  userDIDs[user] = did */\n      swap1\n      dup2\n      tag_79\n      swap2\n      swap1\n      tag_67\n      jump\t// in\n    tag_79:\n      pop\n        /* \"SimpleRBAC.sol\":2022:2026  user */\n      dup2\n        /* \"SimpleRBAC.sol\":2008:2032  DIDRegistered(user, did) */\n      0xffffffffffffffffffffffffffffffffffffffff\n      and\n      0xbfab59a7af78dfc896c3096604749fcee2db2e850297de42de5e6369f54bd3fb\n        /* \"SimpleRBAC.sol\":2028:2031  did */\n      dup3\n        /* \"SimpleRBAC.sol\":2008:2032  DIDRegistered(user, did) */\n      mload(0x40)\n      tag_80\n      swap2\n      swap1\n      tag_35\n      jump\t// in\n    tag_80:\n      mload(0x40)\n      dup1\n      swap2\n      sub\n      swap1\n      log2\n        /* \"SimpleRBAC.sol\":1821:2040  function registerDID(address user, string memory did) public {... */\n      pop\n      pop\n      jump\t// out\n        /* \"SimpleRBAC.sol\":769:811  mapping(address => string) public userDIDs */\n    tag_33:\n      mstore(0x20, 0x02)\n      dup1\n      0x00\n      mstore\n      keccak256(0x00, 0x40)\n      0x00\n      swap2\n      pop\n      swap1\n      pop\n      dup1\n      sload\n      tag_81\n      swap1\n      tag_62\n      jump\t// in\n    tag_81:\n      dup1\n      0x1f\n      add\n      0x20\n      dup1\n      swap2\n      div\n      mul\n      0x20\n      add\n      mload(0x40)\n      swap1\n      dup2\n      add\n      0x40\n      mstore\n      dup1\n      swap3\n      swap2\n      swap1\n      dup2\n      dup2\n      mstore\n      0x20\n      add\n      dup3\n      dup1\n      sload\n      tag_82\n      swap1\n      tag_62\n      jump\t// in\n    tag_82:\n      dup1\n      iszero\n      tag_83\n      jumpi\n      dup1\n      0x1f\n      lt\n      tag_84\n      jumpi\n      0x0100\n      dup1\n      dup4\n      sload\n      div\n      mul\n      dup4\n      mstore\n      swap2\n      0x20\n      add\n      swap2\n      jump(tag_83)\n    tag_84:\n      dup3\n      add\n      swap2\n      swap1\n      0x00\n      mstore\n      keccak256(0x00, 0x20)\n      swap1\n    tag_85:\n      dup2\n      sload\n      dup2\n      mstore\n      swap1\n      0x01\n      add\n      swap1\n      0x20\n      add\n      dup1\n      dup4\n      gt\n      tag_85\n      jumpi\n      dup3\n      swap1\n      sub\n      0x1f\n      and\n      dup3\n      add\n      swap2\n    tag_83:\n      pop\n      pop\n      pop\n      pop\n      pop\n      dup2\n      jump\t// out\n        /* \"SimpleRBAC.sol\":2940:3133  function hasPermissionForCaller(string memory permission) public view returns (bool) {... */\n    tag_39:\n        /* \"SimpleRBAC.sol\":3019:3023  bool */\n      0x00\n        /* \"SimpleRBAC.sol\":3036:3054  string memory role */\n      dup1\n        /* \"SimpleRBAC.sol\":3057:3062  roles */\n      0x00\n        /* \"SimpleRBAC.sol\":3057:3074  roles[msg.sender] */\n      dup1\n        /* \"SimpleRBAC.sol\":3063:3073  msg.sender */\n      caller\n        /* \"SimpleRBAC.sol\":3057:3074  roles[msg.sender] */\n      0xffffffffffffffffffffffffffffffffffffffff\n      and\n      0xffffffffffffffffffffffffffffffffffffffff\n      and\n      dup2\n      mstore\n      0x20\n      add\n      swap1\n      dup2\n      mstore\n      0x20\n      add\n      0x00\n      keccak256\n        /* \"SimpleRBAC.sol\":3036:3074  string memory role = roles[msg.sender] */\n      dup1\n      sload\n      tag_87\n      swap1\n      tag_62\n      jump\t// in\n    tag_87:\n      dup1\n      0x1f\n      add\n      0x20\n      dup1\n      swap2\n      div\n      mul\n      0x20\n      add\n      mload(0x40)\n      swap1\n      dup2\n      add\n      0x40\n      mstore\n      dup1\n      swap3\n      swap2\n      swap1\n      dup2\n      dup2\n      mstore\n      0x20\n      add\n      dup3\n      dup1\n      sload\n      tag_88\n      swap1\n      tag_62\n      jump\t// in\n    tag_88:\n      dup1\n      iszero\n      tag_89\n      jumpi\n      dup1\n      0x1f\n      lt\n      tag_90\n      jumpi\n      0x0100\n      dup1\n      dup4\n      sload\n      div\n      mul\n      dup4\n      mstore\n      swap2\n      0x20\n      add\n      swap2\n      jump(tag_89)\n    tag_90:\n      dup3\n      add\n      swap2\n      swap1\n      0x00\n      mstore\n      keccak256(0x00, 0x20)\n      swap1\n    tag_91:\n      dup2\n      sload\n      dup2\n      mstore\n      swap1\n      0x01\n      add\n      swap1\n      0x20\n      add\n      dup1\n      dup4\n      gt\n      tag_91\n      jumpi\n      dup3\n      swap1\n      sub\n      0x1f\n      and\n      dup3\n      add\n      swap2\n    tag_89:\n      pop\n      pop\n      pop\n      pop\n      pop\n      swap1\n      pop\n        /* \"SimpleRBAC.sol\":3092:3107  rolePermissions */\n      0x01\n        /* \"SimpleRBAC.sol\":3108:3112  role */\n      dup2\n        /* \"SimpleRBAC.sol\":3092:3113  rolePermissions[role] */\n      mload(0x40)\n      tag_92\n      swap2\n      swap1\n      tag_57\n      jump\t// in\n    tag_92:\n      swap1\n      dup2\n      mstore\n      0x20\n      add\n      mload(0x40)\n      dup1\n      swap2\n      sub\n      swap1\n      keccak256\n        /* \"SimpleRBAC.sol\":3114:3124  permission */\n      dup4\n        /* \"SimpleRBAC.sol\":3092:3125  rolePermissions[role][permission] */\n      mload(0x40)\n      tag_93\n      swap2\n      swap1\n      tag_57\n      jump\t// in\n    tag_93:\n      swap1\n      dup2\n      mstore\n      0x20\n      add\n      mload(0x40)\n      dup1\n      swap2\n      sub\n      swap1\n      keccak256\n      0x00\n      swap1\n      sload\n      swap1\n      0x0100\n      exp\n      swap1\n      div\n      0xff\n      and\n        /* \"SimpleRBAC.sol\":3085:3125  return rolePermissions[role][permission] */\n      swap2\n      pop\n      pop\n        /* \"SimpleRBAC.sol\":2940:3133  function hasPermissionForCaller(string memory permission) public view returns (bool) {... */\n      swap2\n      swap1\n      pop\n      jump\t// out\n        /* \"SimpleRBAC.sol\":1589:1779  function revokePermission(string memory role, string memory permission) public {... */\n    tag_43:\n        /* \"SimpleRBAC.sol\":1715:1720  false */\n      0x00\n        /* \"SimpleRBAC.sol\":1679:1694  rolePermissions */\n      0x01\n        /* \"SimpleRBAC.sol\":1695:1699  role */\n      dup4\n        /* \"SimpleRBAC.sol\":1679:1700  rolePermissions[role] */\n      mload(0x40)\n      tag_95\n      swap2\n      swap1\n      tag_57\n      jump\t// in\n    tag_95:\n      swap1\n      dup2\n      mstore\n      0x20\n      add\n      mload(0x40)\n      dup1\n      swap2\n      sub\n      swap1\n      keccak256\n        /* \"SimpleRBAC.sol\":1701:1711  permission */\n      dup3\n        /* \"SimpleRBAC.sol\":1679:1712  rolePermissions[role][permission] */\n      mload(0x40)\n      tag_96\n      swap2\n      swap1\n      tag_57\n      jump\t// in\n    tag_96:\n      swap1\n      dup2\n      mstore\n      0x20\n      add\n      mload(0x40)\n      dup1\n      swap2\n      sub\n      swap1\n      keccak256\n      0x00\n        /* \"SimpleRBAC.sol\":1679:1720  rolePermissions[role][permission] = false */\n      0x0100\n      exp\n      dup2\n      sload\n      dup2\n      0xff\n      mul\n      not\n      and\n      swap1\n      dup4\n      iszero\n      iszero\n      mul\n      or\n      swap1\n      sstore\n      pop\n        /* \"SimpleRBAC.sol\":1736:1771  PermissionRevoked(role, permission) */\n      0x213e0e506c4dc293f81607cd7c386e8054c30488dec51469ff3fddcc5f3ad70c\n        /* \"SimpleRBAC.sol\":1754:1758  role */\n      dup3\n        /* \"SimpleRBAC.sol\":1760:1770  permission */\n      dup3\n        /* \"SimpleRBAC.sol\":1736:1771  PermissionRevoked(role, permission) */\n      mload(0x40)\n      tag_97\n      swap3\n      swap2\n      swap1\n      tag_73\n      jump\t// in\n    tag_97:\n      mload(0x40)\n      dup1\n      swap2\n      sub\n      swap1\n      log1\n        /* \"SimpleRBAC.sol\":1589:1779  function revokePermission(string memory role, string memory permission) public {... */\n      pop\n      pop\n      jump\t// out\n        /* \"SimpleRBAC.sol\":1170:1308  function assignRole(address user, string memory role) public {... */\n    tag_46:\n        /* \"SimpleRBAC.sol\":1256:1260  role */\n      dup1\n        /* \"SimpleRBAC.sol\":1242:1247  roles */\n      0x00\n        /* \"SimpleRBAC.sol\":1242:1253  roles[user] */\n      dup1\n        /* \"SimpleRBAC.sol\":1248:1252  user */\n      dup5\n        /* \"SimpleRBAC.sol\":1242:1253  roles[user] */\n      0xffffffffffffffffffffffffffffffffffffffff\n      and\n      0xffffffffffffffffffffffffffffffffffffffff\n      and\n      dup2\n      mstore\n      0x20\n      add\n      swap1\n      dup2\n      mstore\n      0x20\n      add\n      0x00\n      keccak256\n        /* \"SimpleRBAC.sol\":1242:1260  roles[user] = role */\n      swap1\n      dup2\n      tag_99\n      swap2\n      swap1\n      tag_67\n      jump\t// in\n    tag_99:\n      pop\n        /* \"SimpleRBAC.sol\":1289:1293  user */\n      dup2\n        /* \"SimpleRBAC.sol\":1276:1300  RoleAssigned(user, role) */\n      0xffffffffffffffffffffffffffffffffffffffff\n      and\n      0x3565795c2fb8842c21347d277937778bbcfe788b5b4f790fc5e408786cbe9c90\n        /* \"SimpleRBAC.sol\":1295:1299  role */\n      dup3\n        /* \"SimpleRBAC.sol\":1276:1300  RoleAssigned(user, role) */\n      mload(0x40)\n      tag_100\n      swap2\n      swap1\n      tag_35\n      jump\t// in\n    tag_100:\n      mload(0x40)\n      dup1\n      swap2\n      sub\n      swap1\n      log2\n        /* \"SimpleRBAC.sol\":1170:1308  function assignRole(address user, string memory role) public {... */\n      pop\n      pop\n      jump\t// out\n        /* \"SimpleRBAC.sol\":2322:2432  function resolveDID(address user) public view returns (string memory) {... */\n    tag_49:\n        /* \"SimpleRBAC.sol\":2377:2390  string memory */\n      0x60\n        /* \"SimpleRBAC.sol\":2410:2418  userDIDs */\n      0x02\n        /* \"SimpleRBAC.sol\":2410:2424  userDIDs[user] */\n      0x00\n        /* \"SimpleRBAC.sol\":2419:2423  user */\n      dup4\n        /* \"SimpleRBAC.sol\":2410:2424  userDIDs[user] */\n      0xffffffffffffffffffffffffffffffffffffffff\n      and\n      0xffffffffffffffffffffffffffffffffffffffff\n      and\n      dup2\n      mstore\n      0x20\n      add\n      swap1\n      dup2\n      mstore\n      0x20\n      add\n      0x00\n      keccak256\n        /* \"SimpleRBAC.sol\":2403:2424  return userDIDs[user] */\n      dup1\n      sload\n      tag_102\n      swap1\n      tag_62\n      jump\t// in\n    tag_102:\n      dup1\n      0x1f\n      add\n      0x20\n      dup1\n      swap2\n      div\n      mul\n      0x20\n      add\n      mload(0x40)\n      swap1\n      dup2\n      add\n      0x40\n      mstore\n      dup1\n      swap3\n      swap2\n      swap1\n      dup2\n      dup2\n      mstore\n      0x20\n      add\n      dup3\n      dup1\n      sload\n      tag_103\n      swap1\n      tag_62\n      jump\t// in\n    tag_103:\n      dup1\n      iszero\n      tag_104\n      jumpi\n      dup1\n      0x1f\n      lt\n      tag_105\n      jumpi\n      0x0100\n      dup1\n      dup4\n      sload\n      div\n      mul\n      dup4\n      mstore\n      swap2\n      0x20\n      add\n      swap2\n      jump(tag_104)\n    tag_105:\n      dup3\n      add\n      swap2\n      swap1\n      0x00\n      mstore\n      keccak256(0x00, 0x20)\n      swap1\n    tag_106:\n      dup2\n      sload\n      dup2\n      mstore\n      swap1\n      0x01\n      add\n      swap1\n      0x20\n      add\n      dup1\n      dup4\n      gt\n      tag_106\n      jumpi\n      dup3\n      swap1\n      sub\n      0x1f\n      and\n      dup3\n      add\n      swap2\n    tag_104:\n      pop\n      pop\n      pop\n      pop\n      pop\n      swap1\n      pop\n        /* \"SimpleRBAC.sol\":2322:2432  function resolveDID(address user) public view returns (string memory) {... */\n      swap2\n      swap1\n      pop\n      jump\t// out\n        /* \"SimpleRBAC.sol\":2723:2878  function hasPermission(string memory role, string memory permission) public view returns (bool) {... */\n    tag_53:\n        /* \"SimpleRBAC.sol\":2813:2817  bool */\n      0x00\n        /* \"SimpleRBAC.sol\":2837:2852  rolePermissions */\n      0x01\n        /* \"SimpleRBAC.sol\":2853:2857  role */\n      dup4\n        /* \"SimpleRBAC.sol\":2837:2858  rolePermissions[role] */\n      mload(0x40)\n      tag_108\n      swap2\n      swap1\n      tag_57\n      jump\t// in\n    tag_108:\n      swap1\n      dup2\n      mstore\n      0x20\n      add\n      mload(0x40)\n      dup1\n      swap2\n      sub\n      swap1\n      keccak256\n        /* \"SimpleRBAC.sol\":2859:2869  permission */\n      dup3\n        /* \"SimpleRBAC.sol\":2837:2870  rolePermissions[role][permission] */\n      mload(0x40)\n      tag_109\n      swap2\n      swap1\n      tag_57\n      jump\t// in\n    tag_109:\n      swap1\n      dup2\n      mstore\n      0x20\n      add\n      mload(0x40)\n      dup1\n      swap2\n      sub\n      swap1\n      keccak256\n      0x00\n      swap1\n      sload\n      swap1\n      0x0100\n      exp\n      swap1\n      div\n      0xff\n      and\n        /* \"SimpleRBAC.sol\":2830:2870  return rolePermissions[role][permission] */\n      swap1\n      pop\n        /* \"SimpleRBAC.sol\":2723:2878  function hasPermission(string memory role, string memory permission) public view returns (bool) {... */\n      swap3\n      swap2\n      pop\n      pop\n      jump\t// out\n        /* \"#utility.yul\":7:82   */\n    tag_110:\n        /* \"#utility.yul\":40:46   */\n      0x00\n        /* \"#utility.yul\":73:75   */\n      0x40\n        /* \"#utility.yul\":67:76   */\n      mload\n        /* \"#utility.yul\":57:76   */\n      swap1\n      pop\n        /* \"#utility.yul\":7:82   */\n      swap1\n      jump\t// out\n        /* \"#utility.yul\":88:205   */\n    tag_111:\n        /* \"#utility.yul\":197:198   */\n      0x00\n        /* \"#utility.yul\":194:195   */\n      dup1\n        /* \"#utility.yul\":187:199   */\n      revert\n        /* \"#utility.yul\":211:328   */\n    tag_112:\n        /* \"#utility.yul\":320:321   */\n      0x00\n        /* \"#utility.yul\":317:318   */\n      dup1\n        /* \"#utility.yul\":310:322   */\n      revert\n        /* \"#utility.yul\":334:460   */\n    tag_113:\n        /* \"#utility.yul\":371:378   */\n      0x00\n        /* \"#utility.yul\":411:453   */\n      0xffffffffffffffffffffffffffffffffffffffff\n        /* \"#utility.yul\":404:409   */\n      dup3\n        /* \"#utility.yul\":400:454   */\n      and\n        /* \"#utility.yul\":389:454   */\n      swap1\n      pop\n        /* \"#utility.yul\":334:460   */\n      swap2\n      swap1\n      pop\n      jump\t// out\n        /* \"#utility.yul\":466:562   */\n    tag_114:\n        /* \"#utility.yul\":503:510   */\n      0x00\n        /* \"#utility.yul\":532:556   */\n      tag_163\n        /* \"#utility.yul\":550:555   */\n      dup3\n        /* \"#utility.yul\":532:556   */\n      tag_113\n      jump\t// in\n    tag_163:\n        /* \"#utility.yul\":521:556   */\n      swap1\n      pop\n        /* \"#utility.yul\":466:562   */\n      swap2\n      swap1\n      pop\n      jump\t// out\n        /* \"#utility.yul\":568:690   */\n    tag_115:\n        /* \"#utility.yul\":641:665   */\n      tag_165\n        /* \"#utility.yul\":659:664   */\n      dup2\n        /* \"#utility.yul\":641:665   */\n      tag_114\n      jump\t// in\n    tag_165:\n        /* \"#utility.yul\":634:639   */\n      dup2\n        /* \"#utility.yul\":631:666   */\n      eq\n        /* \"#utility.yul\":621:684   */\n      tag_166\n      jumpi\n        /* \"#utility.yul\":680:681   */\n      0x00\n        /* \"#utility.yul\":677:678   */\n      dup1\n        /* \"#utility.yul\":670:682   */\n      revert\n        /* \"#utility.yul\":621:684   */\n    tag_166:\n        /* \"#utility.yul\":568:690   */\n      pop\n      jump\t// out\n        /* \"#utility.yul\":696:835   */\n    tag_116:\n        /* \"#utility.yul\":742:747   */\n      0x00\n        /* \"#utility.yul\":780:786   */\n      dup2\n        /* \"#utility.yul\":767:787   */\n      calldataload\n        /* \"#utility.yul\":758:787   */\n      swap1\n      pop\n        /* \"#utility.yul\":796:829   */\n      tag_168\n        /* \"#utility.yul\":823:828   */\n      dup2\n        /* \"#utility.yul\":796:829   */\n      tag_115\n      jump\t// in\n    tag_168:\n        /* \"#utility.yul\":696:835   */\n      swap3\n      swap2\n      pop\n      pop\n      jump\t// out\n        /* \"#utility.yul\":841:958   */\n    tag_117:\n        /* \"#utility.yul\":950:951   */\n      0x00\n        /* \"#utility.yul\":947:948   */\n      dup1\n        /* \"#utility.yul\":940:952   */\n      revert\n        /* \"#utility.yul\":964:1081   */\n    tag_118:\n        /* \"#utility.yul\":1073:1074   */\n      0x00\n        /* \"#utility.yul\":1070:1071   */\n      dup1\n        /* \"#utility.yul\":1063:1075   */\n      revert\n        /* \"#utility.yul\":1087:1189   */\n    tag_119:\n        /* \"#utility.yul\":1128:1134   */\n      0x00\n        /* \"#utility.yul\":1179:1181   */\n      0x1f\n        /* \"#utility.yul\":1175:1182   */\n      not\n        /* \"#utility.yul\":1170:1172   */\n      0x1f\n        /* \"#utility.yul\":1163:1168   */\n      dup4\n        /* \"#utility.yul\":1159:1173   */\n      add\n        /* \"#utility.yul\":1155:1183   */\n      and\n        /* \"#utility.yul\":1145:1183   */\n      swap1\n      pop\n        /* \"#utility.yul\":1087:1189   */\n      swap2\n      swap1\n      pop\n      jump\t// out\n        /* \"#utility.yul\":1195:1375   */\n    tag_120:\n        /* \"#utility.yul\":1243:1320   */\n      0x4e487b7100000000000000000000000000000000000000000000000000000000\n        /* \"#utility.yul\":1240:1241   */\n      0x00\n        /* \"#utility.yul\":1233:1321   */\n      mstore\n        /* \"#utility.yul\":1340:1344   */\n      0x41\n        /* \"#utility.yul\":1337:1338   */\n      0x04\n        /* \"#utility.yul\":1330:1345   */\n      mstore\n        /* \"#utility.yul\":1364:1368   */\n      0x24\n        /* \"#utility.yul\":1361:1362   */\n      0x00\n        /* \"#utility.yul\":1354:1369   */\n      revert\n        /* \"#utility.yul\":1381:1662   */\n    tag_121:\n        /* \"#utility.yul\":1464:1491   */\n      tag_174\n        /* \"#utility.yul\":1486:1490   */\n      dup3\n        /* \"#utility.yul\":1464:1491   */\n      tag_119\n      jump\t// in\n    tag_174:\n        /* \"#utility.yul\":1456:1462   */\n      dup2\n        /* \"#utility.yul\":1452:1492   */\n      add\n        /* \"#utility.yul\":1594:1600   */\n      dup2\n        /* \"#utility.yul\":1582:1592   */\n      dup2\n        /* \"#utility.yul\":1579:1601   */\n      lt\n        /* \"#utility.yul\":1558:1576   */\n      0xffffffffffffffff\n        /* \"#utility.yul\":1546:1556   */\n      dup3\n        /* \"#utility.yul\":1543:1577   */\n      gt\n        /* \"#utility.yul\":1540:1602   */\n      or\n        /* \"#utility.yul\":1537:1625   */\n      iszero\n      tag_175\n      jumpi\n        /* \"#utility.yul\":1605:1623   */\n      tag_176\n      tag_120\n      jump\t// in\n    tag_176:\n        /* \"#utility.yul\":1537:1625   */\n    tag_175:\n        /* \"#utility.yul\":1645:1655   */\n      dup1\n        /* \"#utility.yul\":1641:1643   */\n      0x40\n        /* \"#utility.yul\":1634:1656   */\n      mstore\n        /* \"#utility.yul\":1424:1662   */\n      pop\n        /* \"#utility.yul\":1381:1662   */\n      pop\n      pop\n      jump\t// out\n        /* \"#utility.yul\":1668:1797   */\n    tag_122:\n        /* \"#utility.yul\":1702:1708   */\n      0x00\n        /* \"#utility.yul\":1729:1749   */\n      tag_178\n      tag_110\n      jump\t// in\n    tag_178:\n        /* \"#utility.yul\":1719:1749   */\n      swap1\n      pop\n        /* \"#utility.yul\":1758:1791   */\n      tag_179\n        /* \"#utility.yul\":1786:1790   */\n      dup3\n        /* \"#utility.yul\":1778:1784   */\n      dup3\n        /* \"#utility.yul\":1758:1791   */\n      tag_121\n      jump\t// in\n    tag_179:\n        /* \"#utility.yul\":1668:1797   */\n      swap2\n      swap1\n      pop\n      jump\t// out\n        /* \"#utility.yul\":1803:2111   */\n    tag_123:\n        /* \"#utility.yul\":1865:1869   */\n      0x00\n        /* \"#utility.yul\":1955:1973   */\n      0xffffffffffffffff\n        /* \"#utility.yul\":1947:1953   */\n      dup3\n        /* \"#utility.yul\":1944:1974   */\n      gt\n        /* \"#utility.yul\":1941:1997   */\n      iszero\n      tag_181\n      jumpi\n        /* \"#utility.yul\":1977:1995   */\n      tag_182\n      tag_120\n      jump\t// in\n    tag_182:\n        /* \"#utility.yul\":1941:1997   */\n    tag_181:\n        /* \"#utility.yul\":2015:2044   */\n      tag_183\n        /* \"#utility.yul\":2037:2043   */\n      dup3\n        /* \"#utility.yul\":2015:2044   */\n      tag_119\n      jump\t// in\n    tag_183:\n        /* \"#utility.yul\":2007:2044   */\n      swap1\n      pop\n        /* \"#utility.yul\":2099:2103   */\n      0x20\n        /* \"#utility.yul\":2093:2097   */\n      dup2\n        /* \"#utility.yul\":2089:2104   */\n      add\n        /* \"#utility.yul\":2081:2104   */\n      swap1\n      pop\n        /* \"#utility.yul\":1803:2111   */\n      swap2\n      swap1\n      pop\n      jump\t// out\n        /* \"#utility.yul\":2117:2265   */\n    tag_124:\n        /* \"#utility.yul\":2215:2221   */\n      dup3\n        /* \"#utility.yul\":2210:2213   */\n      dup2\n        /* \"#utility.yul\":2205:2208   */\n      dup4\n        /* \"#utility.yul\":2192:2222   */\n      calldatacopy\n        /* \"#utility.yul\":2256:2257   */\n      0x00\n        /* \"#utility.yul\":2247:2253   */\n      dup4\n        /* \"#utility.yul\":2242:2245   */\n      dup4\n        /* \"#utility.yul\":2238:2254   */\n      add\n        /* \"#utility.yul\":2231:2258   */\n      mstore\n        /* \"#utility.yul\":2117:2265   */\n      pop\n      pop\n      pop\n      jump\t// out\n        /* \"#utility.yul\":2271:2696   */\n    tag_125:\n        /* \"#utility.yul\":2349:2354   */\n      0x00\n        /* \"#utility.yul\":2374:2440   */\n      tag_186\n        /* \"#utility.yul\":2390:2439   */\n      tag_187\n        /* \"#utility.yul\":2432:2438   */\n      dup5\n        /* \"#utility.yul\":2390:2439   */\n      tag_123\n      jump\t// in\n    tag_187:\n        /* \"#utility.yul\":2374:2440   */\n      tag_122\n      jump\t// in\n    tag_186:\n        /* \"#utility.yul\":2365:2440   */\n      swap1\n      pop\n        /* \"#utility.yul\":2463:2469   */\n      dup3\n        /* \"#utility.yul\":2456:2461   */\n      dup2\n        /* \"#utility.yul\":2449:2470   */\n      mstore\n        /* \"#utility.yul\":2501:2505   */\n      0x20\n        /* \"#utility.yul\":2494:2499   */\n      dup2\n        /* \"#utility.yul\":2490:2506   */\n      add\n        /* \"#utility.yul\":2539:2542   */\n      dup5\n        /* \"#utility.yul\":2530:2536   */\n      dup5\n        /* \"#utility.yul\":2525:2528   */\n      dup5\n        /* \"#utility.yul\":2521:2537   */\n      add\n        /* \"#utility.yul\":2518:2543   */\n      gt\n        /* \"#utility.yul\":2515:2627   */\n      iszero\n      tag_188\n      jumpi\n        /* \"#utility.yul\":2546:2625   */\n      tag_189\n      tag_118\n      jump\t// in\n    tag_189:\n        /* \"#utility.yul\":2515:2627   */\n    tag_188:\n        /* \"#utility.yul\":2636:2690   */\n      tag_190\n        /* \"#utility.yul\":2683:2689   */\n      dup5\n        /* \"#utility.yul\":2678:2681   */\n      dup3\n        /* \"#utility.yul\":2673:2676   */\n      dup6\n        /* \"#utility.yul\":2636:2690   */\n      tag_124\n      jump\t// in\n    tag_190:\n        /* \"#utility.yul\":2355:2696   */\n      pop\n        /* \"#utility.yul\":2271:2696   */\n      swap4\n      swap3\n      pop\n      pop\n      pop\n      jump\t// out\n        /* \"#utility.yul\":2716:3056   */\n    tag_126:\n        /* \"#utility.yul\":2772:2777   */\n      0x00\n        /* \"#utility.yul\":2821:2824   */\n      dup3\n        /* \"#utility.yul\":2814:2818   */\n      0x1f\n        /* \"#utility.yul\":2806:2812   */\n      dup4\n        /* \"#utility.yul\":2802:2819   */\n      add\n        /* \"#utility.yul\":2798:2825   */\n      slt\n        /* \"#utility.yul\":2788:2910   */\n      tag_192\n      jumpi\n        /* \"#utility.yul\":2829:2908   */\n      tag_193\n      tag_117\n      jump\t// in\n    tag_193:\n        /* \"#utility.yul\":2788:2910   */\n    tag_192:\n        /* \"#utility.yul\":2946:2952   */\n      dup2\n        /* \"#utility.yul\":2933:2953   */\n      calldataload\n        /* \"#utility.yul\":2971:3050   */\n      tag_194\n        /* \"#utility.yul\":3046:3049   */\n      dup5\n        /* \"#utility.yul\":3038:3044   */\n      dup3\n        /* \"#utility.yul\":3031:3035   */\n      0x20\n        /* \"#utility.yul\":3023:3029   */\n      dup7\n        /* \"#utility.yul\":3019:3036   */\n      add\n        /* \"#utility.yul\":2971:3050   */\n      tag_125\n      jump\t// in\n    tag_194:\n        /* \"#utility.yul\":2962:3050   */\n      swap2\n      pop\n        /* \"#utility.yul\":2778:3056   */\n      pop\n        /* \"#utility.yul\":2716:3056   */\n      swap3\n      swap2\n      pop\n      pop\n      jump\t// out\n        /* \"#utility.yul\":3062:3716   */\n    tag_16:\n        /* \"#utility.yul\":3140:3146   */\n      0x00\n        /* \"#utility.yul\":3148:3154   */\n      dup1\n        /* \"#utility.yul\":3197:3199   */\n      0x40\n        /* \"#utility.yul\":3185:3194   */\n      dup4\n        /* \"#utility.yul\":3176:3183   */\n      dup6\n        /* \"#utility.yul\":3172:3195   */\n      sub\n        /* \"#utility.yul\":3168:3200   */\n      slt\n        /* \"#utility.yul\":3165:3284   */\n      iszero\n      tag_196\n      jumpi\n        /* \"#utility.yul\":3203:3282   */\n      tag_197\n      tag_111\n      jump\t// in\n    tag_197:\n        /* \"#utility.yul\":3165:3284   */\n    tag_196:\n        /* \"#utility.yul\":3323:3324   */\n      0x00\n        /* \"#utility.yul\":3348:3401   */\n      tag_198\n        /* \"#utility.yul\":3393:3400   */\n      dup6\n        /* \"#utility.yul\":3384:3390   */\n      dup3\n        /* \"#utility.yul\":3373:3382   */\n      dup7\n        /* \"#utility.yul\":3369:3391   */\n      add\n        /* \"#utility.yul\":3348:3401   */\n      tag_116\n      jump\t// in\n    tag_198:\n        /* \"#utility.yul\":3338:3401   */\n      swap3\n      pop\n        /* \"#utility.yul\":3294:3411   */\n      pop\n        /* \"#utility.yul\":3478:3480   */\n      0x20\n        /* \"#utility.yul\":3467:3476   */\n      dup4\n        /* \"#utility.yul\":3463:3481   */\n      add\n        /* \"#utility.yul\":3450:3482   */\n      calldataload\n        /* \"#utility.yul\":3509:3527   */\n      0xffffffffffffffff\n        /* \"#utility.yul\":3501:3507   */\n      dup2\n        /* \"#utility.yul\":3498:3528   */\n      gt\n        /* \"#utility.yul\":3495:3612   */\n      iszero\n      tag_199\n      jumpi\n        /* \"#utility.yul\":3531:3610   */\n      tag_200\n      tag_112\n      jump\t// in\n    tag_200:\n        /* \"#utility.yul\":3495:3612   */\n    tag_199:\n        /* \"#utility.yul\":3636:3699   */\n      tag_201\n        /* \"#utility.yul\":3691:3698   */\n      dup6\n        /* \"#utility.yul\":3682:3688   */\n      dup3\n        /* \"#utility.yul\":3671:3680   */\n      dup7\n        /* \"#utility.yul\":3667:3689   */\n      add\n        /* \"#utility.yul\":3636:3699   */\n      tag_126\n      jump\t// in\n    tag_201:\n        /* \"#utility.yul\":3626:3699   */\n      swap2\n      pop\n        /* \"#utility.yul\":3421:3709   */\n      pop\n        /* \"#utility.yul\":3062:3716   */\n      swap3\n      pop\n      swap3\n      swap1\n      pop\n      jump\t// out\n        /* \"#utility.yul\":3722:3812   */\n    tag_127:\n        /* \"#utility.yul\":3756:3763   */\n      0x00\n        /* \"#utility.yul\":3799:3804   */\n      dup2\n        /* \"#utility.yul\":3792:3805   */\n      iszero\n        /* \"#utility.yul\":3785:3806   */\n      iszero\n        /* \"#utility.yul\":3774:3806   */\n      swap1\n      pop\n        /* \"#utility.yul\":3722:3812   */\n      swap2\n      swap1\n      pop\n      jump\t// out\n        /* \"#utility.yul\":3818:3927   */\n    tag_128:\n        /* \"#utility.yul\":3899:3920   */\n      tag_204\n        /* \"#utility.yul\":3914:3919   */\n      dup2\n        /* \"#utility.yul\":3899:3920   */\n      tag_127\n      jump\t// in\n    tag_204:\n        /* \"#utility.yul\":3894:3897   */\n      dup3\n        /* \"#utility.yul\":3887:3921   */\n      mstore\n        /* \"#utility.yul\":3818:3927   */\n      pop\n      pop\n      jump\t// out\n        /* \"#utility.yul\":3933:4143   */\n    tag_19:\n        /* \"#utility.yul\":4020:4024   */\n      0x00\n        /* \"#utility.yul\":4058:4060   */\n      0x20\n        /* \"#utility.yul\":4047:4056   */\n      dup3\n        /* \"#utility.yul\":4043:4061   */\n      add\n        /* \"#utility.yul\":4035:4061   */\n      swap1\n      pop\n        /* \"#utility.yul\":4071:4136   */\n      tag_206\n        /* \"#utility.yul\":4133:4134   */\n      0x00\n        /* \"#utility.yul\":4122:4131   */\n      dup4\n        /* \"#utility.yul\":4118:4135   */\n      add\n        /* \"#utility.yul\":4109:4115   */\n      dup5\n        /* \"#utility.yul\":4071:4136   */\n      tag_128\n      jump\t// in\n    tag_206:\n        /* \"#utility.yul\":3933:4143   */\n      swap3\n      swap2\n      pop\n      pop\n      jump\t// out\n        /* \"#utility.yul\":4149:4983   */\n    tag_25:\n        /* \"#utility.yul\":4237:4243   */\n      0x00\n        /* \"#utility.yul\":4245:4251   */\n      dup1\n        /* \"#utility.yul\":4294:4296   */\n      0x40\n        /* \"#utility.yul\":4282:4291   */\n      dup4\n        /* \"#utility.yul\":4273:4280   */\n      dup6\n        /* \"#utility.yul\":4269:4292   */\n      sub\n        /* \"#utility.yul\":4265:4297   */\n      slt\n        /* \"#utility.yul\":4262:4381   */\n      iszero\n      tag_208\n      jumpi\n        /* \"#utility.yul\":4300:4379   */\n      tag_209\n      tag_111\n      jump\t// in\n    tag_209:\n        /* \"#utility.yul\":4262:4381   */\n    tag_208:\n        /* \"#utility.yul\":4448:4449   */\n      0x00\n        /* \"#utility.yul\":4437:4446   */\n      dup4\n        /* \"#utility.yul\":4433:4450   */\n      add\n        /* \"#utility.yul\":4420:4451   */\n      calldataload\n        /* \"#utility.yul\":4478:4496   */\n      0xffffffffffffffff\n        /* \"#utility.yul\":4470:4476   */\n      dup2\n        /* \"#utility.yul\":4467:4497   */\n      gt\n        /* \"#utility.yul\":4464:4581   */\n      iszero\n      tag_210\n      jumpi\n        /* \"#utility.yul\":4500:4579   */\n      tag_211\n      tag_112\n      jump\t// in\n    tag_211:\n        /* \"#utility.yul\":4464:4581   */\n    tag_210:\n        /* \"#utility.yul\":4605:4668   */\n      tag_212\n        /* \"#utility.yul\":4660:4667   */\n      dup6\n        /* \"#utility.yul\":4651:4657   */\n      dup3\n        /* \"#utility.yul\":4640:4649   */\n      dup7\n        /* \"#utility.yul\":4636:4658   */\n      add\n        /* \"#utility.yul\":4605:4668   */\n      tag_126\n      jump\t// in\n    tag_212:\n        /* \"#utility.yul\":4595:4668   */\n      swap3\n      pop\n        /* \"#utility.yul\":4391:4678   */\n      pop\n        /* \"#utility.yul\":4745:4747   */\n      0x20\n        /* \"#utility.yul\":4734:4743   */\n      dup4\n        /* \"#utility.yul\":4730:4748   */\n      add\n        /* \"#utility.yul\":4717:4749   */\n      calldataload\n        /* \"#utility.yul\":4776:4794   */\n      0xffffffffffffffff\n        /* \"#utility.yul\":4768:4774   */\n      dup2\n        /* \"#utility.yul\":4765:4795   */\n      gt\n        /* \"#utility.yul\":4762:4879   */\n      iszero\n      tag_213\n      jumpi\n        /* \"#utility.yul\":4798:4877   */\n      tag_214\n      tag_112\n      jump\t// in\n    tag_214:\n        /* \"#utility.yul\":4762:4879   */\n    tag_213:\n        /* \"#utility.yul\":4903:4966   */\n      tag_215\n        /* \"#utility.yul\":4958:4965   */\n      dup6\n        /* \"#utility.yul\":4949:4955   */\n      dup3\n        /* \"#utility.yul\":4938:4947   */\n      dup7\n        /* \"#utility.yul\":4934:4956   */\n      add\n        /* \"#utility.yul\":4903:4966   */\n      tag_126\n      jump\t// in\n    tag_215:\n        /* \"#utility.yul\":4893:4966   */\n      swap2\n      pop\n        /* \"#utility.yul\":4688:4976   */\n      pop\n        /* \"#utility.yul\":4149:4983   */\n      swap3\n      pop\n      swap3\n      swap1\n      pop\n      jump\t// out\n        /* \"#utility.yul\":4989:5318   */\n    tag_32:\n        /* \"#utility.yul\":5048:5054   */\n      0x00\n        /* \"#utility.yul\":5097:5099   */\n      0x20\n        /* \"#utility.yul\":5085:5094   */\n      dup3\n        /* \"#utility.yul\":5076:5083   */\n      dup5\n        /* \"#utility.yul\":5072:5095   */\n      sub\n        /* \"#utility.yul\":5068:5100   */\n      slt\n        /* \"#utility.yul\":5065:5184   */\n      iszero\n      tag_217\n      jumpi\n        /* \"#utility.yul\":5103:5182   */\n      tag_218\n      tag_111\n      jump\t// in\n    tag_218:\n        /* \"#utility.yul\":5065:5184   */\n    tag_217:\n        /* \"#utility.yul\":5223:5224   */\n      0x00\n        /* \"#utility.yul\":5248:5301   */\n      tag_219\n        /* \"#utility.yul\":5293:5300   */\n      dup5\n        /* \"#utility.yul\":5284:5290   */\n      dup3\n        /* \"#utility.yul\":5273:5282   */\n      dup6\n        /* \"#utility.yul\":5269:5291   */\n      add\n        /* \"#utility.yul\":5248:5301   */\n      tag_116\n      jump\t// in\n    tag_219:\n        /* \"#utility.yul\":5238:5301   */\n      swap2\n      pop\n        /* \"#utility.yul\":5194:5311   */\n      pop\n        /* \"#utility.yul\":4989:5318   */\n      swap3\n      swap2\n      pop\n      pop\n      jump\t// out\n        /* \"#utility.yul\":5324:5423   */\n    tag_129:\n        /* \"#utility.yul\":5376:5382   */\n      0x00\n        /* \"#utility.yul\":5410:5415   */\n      dup2\n        /* \"#utility.yul\":5404:5416   */\n      mload\n        /* \"#utility.yul\":5394:5416   */\n      swap1\n      pop\n        /* \"#utility.yul\":5324:5423   */\n      swap2\n      swap1\n      pop\n      jump\t// out\n        /* \"#utility.yul\":5429:5598   */\n    tag_130:\n        /* \"#utility.yul\":5513:5524   */\n      0x00\n        /* \"#utility.yul\":5547:5553   */\n      dup3\n        /* \"#utility.yul\":5542:5545   */\n      dup3\n        /* \"#utility.yul\":5535:5554   */\n      mstore\n        /* \"#utility.yul\":5587:5591   */\n      0x20\n        /* \"#utility.yul\":5582:5585   */\n      dup3\n        /* \"#utility.yul\":5578:5592   */\n      add\n        /* \"#utility.yul\":5563:5592   */\n      swap1\n      pop\n        /* \"#utility.yul\":5429:5598   */\n      swap3\n      swap2\n      pop\n      pop\n      jump\t// out\n        /* \"#utility.yul\":5604:5743   */\n    tag_131:\n        /* \"#utility.yul\":5693:5699   */\n      dup3\n        /* \"#utility.yul\":5688:5691   */\n      dup2\n        /* \"#utility.yul\":5683:5686   */\n      dup4\n        /* \"#utility.yul\":5677:5700   */\n      mcopy\n        /* \"#utility.yul\":5734:5735   */\n      0x00\n        /* \"#utility.yul\":5725:5731   */\n      dup4\n        /* \"#utility.yul\":5720:5723   */\n      dup4\n        /* \"#utility.yul\":5716:5732   */\n      add\n        /* \"#utility.yul\":5709:5736   */\n      mstore\n        /* \"#utility.yul\":5604:5743   */\n      pop\n      pop\n      pop\n      jump\t// out\n        /* \"#utility.yul\":5749:6126   */\n    tag_132:\n        /* \"#utility.yul\":5837:5840   */\n      0x00\n        /* \"#utility.yul\":5865:5904   */\n      tag_224\n        /* \"#utility.yul\":5898:5903   */\n      dup3\n        /* \"#utility.yul\":5865:5904   */\n      tag_129\n      jump\t// in\n    tag_224:\n        /* \"#utility.yul\":5920:5991   */\n      tag_225\n        /* \"#utility.yul\":5984:5990   */\n      dup2\n        /* \"#utility.yul\":5979:5982   */\n      dup6\n        /* \"#utility.yul\":5920:5991   */\n      tag_130\n      jump\t// in\n    tag_225:\n        /* \"#utility.yul\":5913:5991   */\n      swap4\n      pop\n        /* \"#utility.yul\":6000:6065   */\n      tag_226\n        /* \"#utility.yul\":6058:6064   */\n      dup2\n        /* \"#utility.yul\":6053:6056   */\n      dup6\n        /* \"#utility.yul\":6046:6050   */\n      0x20\n        /* \"#utility.yul\":6039:6044   */\n      dup7\n        /* \"#utility.yul\":6035:6051   */\n      add\n        /* \"#utility.yul\":6000:6065   */\n      tag_131\n      jump\t// in\n    tag_226:\n        /* \"#utility.yul\":6090:6119   */\n      tag_227\n        /* \"#utility.yul\":6112:6118   */\n      dup2\n        /* \"#utility.yul\":6090:6119   */\n      tag_119\n      jump\t// in\n    tag_227:\n        /* \"#utility.yul\":6085:6088   */\n      dup5\n        /* \"#utility.yul\":6081:6120   */\n      add\n        /* \"#utility.yul\":6074:6120   */\n      swap2\n      pop\n        /* \"#utility.yul\":5841:6126   */\n      pop\n        /* \"#utility.yul\":5749:6126   */\n      swap3\n      swap2\n      pop\n      pop\n      jump\t// out\n        /* \"#utility.yul\":6132:6445   */\n    tag_35:\n        /* \"#utility.yul\":6245:6249   */\n      0x00\n        /* \"#utility.yul\":6283:6285   */\n      0x20\n        /* \"#utility.yul\":6272:6281   */\n      dup3\n        /* \"#utility.yul\":6268:6286   */\n      add\n        /* \"#utility.yul\":6260:6286   */\n      swap1\n      pop\n        /* \"#utility.yul\":6332:6341   */\n      dup2\n        /* \"#utility.yul\":6326:6330   */\n      dup2\n        /* \"#utility.yul\":6322:6342   */\n      sub\n        /* \"#utility.yul\":6318:6319   */\n      0x00\n        /* \"#utility.yul\":6307:6316   */\n      dup4\n        /* \"#utility.yul\":6303:6320   */\n      add\n        /* \"#utility.yul\":6296:6343   */\n      mstore\n        /* \"#utility.yul\":6360:6438   */\n      tag_229\n        /* \"#utility.yul\":6433:6437   */\n      dup2\n        /* \"#utility.yul\":6424:6430   */\n      dup5\n        /* \"#utility.yul\":6360:6438   */\n      tag_132\n      jump\t// in\n    tag_229:\n        /* \"#utility.yul\":6352:6438   */\n      swap1\n      pop\n        /* \"#utility.yul\":6132:6445   */\n      swap3\n      swap2\n      pop\n      pop\n      jump\t// out\n        /* \"#utility.yul\":6451:6960   */\n    tag_38:\n        /* \"#utility.yul\":6520:6526   */\n      0x00\n        /* \"#utility.yul\":6569:6571   */\n      0x20\n        /* \"#utility.yul\":6557:6566   */\n      dup3\n        /* \"#utility.yul\":6548:6555   */\n      dup5\n        /* \"#utility.yul\":6544:6567   */\n      sub\n        /* \"#utility.yul\":6540:6572   */\n      slt\n        /* \"#utility.yul\":6537:6656   */\n      iszero\n      tag_231\n      jumpi\n        /* \"#utility.yul\":6575:6654   */\n      tag_232\n      tag_111\n      jump\t// in\n    tag_232:\n        /* \"#utility.yul\":6537:6656   */\n    tag_231:\n        /* \"#utility.yul\":6723:6724   */\n      0x00\n        /* \"#utility.yul\":6712:6721   */\n      dup3\n        /* \"#utility.yul\":6708:6725   */\n      add\n        /* \"#utility.yul\":6695:6726   */\n      calldataload\n        /* \"#utility.yul\":6753:6771   */\n      0xffffffffffffffff\n        /* \"#utility.yul\":6745:6751   */\n      dup2\n        /* \"#utility.yul\":6742:6772   */\n      gt\n        /* \"#utility.yul\":6739:6856   */\n      iszero\n      tag_233\n      jumpi\n        /* \"#utility.yul\":6775:6854   */\n      tag_234\n      tag_112\n      jump\t// in\n    tag_234:\n        /* \"#utility.yul\":6739:6856   */\n    tag_233:\n        /* \"#utility.yul\":6880:6943   */\n      tag_235\n        /* \"#utility.yul\":6935:6942   */\n      dup5\n        /* \"#utility.yul\":6926:6932   */\n      dup3\n        /* \"#utility.yul\":6915:6924   */\n      dup6\n        /* \"#utility.yul\":6911:6933   */\n      add\n        /* \"#utility.yul\":6880:6943   */\n      tag_126\n      jump\t// in\n    tag_235:\n        /* \"#utility.yul\":6870:6943   */\n      swap2\n      pop\n        /* \"#utility.yul\":6666:6953   */\n      pop\n        /* \"#utility.yul\":6451:6960   */\n      swap3\n      swap2\n      pop\n      pop\n      jump\t// out\n        /* \"#utility.yul\":6966:7114   */\n    tag_133:\n        /* \"#utility.yul\":7068:7079   */\n      0x00\n        /* \"#utility.yul\":7105:7108   */\n      dup2\n        /* \"#utility.yul\":7090:7108   */\n      swap1\n      pop\n        /* \"#utility.yul\":6966:7114   */\n      swap3\n      swap2\n      pop\n      pop\n      jump\t// out\n        /* \"#utility.yul\":7120:7510   */\n    tag_134:\n        /* \"#utility.yul\":7226:7229   */\n      0x00\n        /* \"#utility.yul\":7254:7293   */\n      tag_238\n        /* \"#utility.yul\":7287:7292   */\n      dup3\n        /* \"#utility.yul\":7254:7293   */\n      tag_129\n      jump\t// in\n    tag_238:\n        /* \"#utility.yul\":7309:7398   */\n      tag_239\n        /* \"#utility.yul\":7391:7397   */\n      dup2\n        /* \"#utility.yul\":7386:7389   */\n      dup6\n        /* \"#utility.yul\":7309:7398   */\n      tag_133\n      jump\t// in\n    tag_239:\n        /* \"#utility.yul\":7302:7398   */\n      swap4\n      pop\n        /* \"#utility.yul\":7407:7472   */\n      tag_240\n        /* \"#utility.yul\":7465:7471   */\n      dup2\n        /* \"#utility.yul\":7460:7463   */\n      dup6\n        /* \"#utility.yul\":7453:7457   */\n      0x20\n        /* \"#utility.yul\":7446:7451   */\n      dup7\n        /* \"#utility.yul\":7442:7458   */\n      add\n        /* \"#utility.yul\":7407:7472   */\n      tag_131\n      jump\t// in\n    tag_240:\n        /* \"#utility.yul\":7497:7503   */\n      dup1\n        /* \"#utility.yul\":7492:7495   */\n      dup5\n        /* \"#utility.yul\":7488:7504   */\n      add\n        /* \"#utility.yul\":7481:7504   */\n      swap2\n      pop\n        /* \"#utility.yul\":7230:7510   */\n      pop\n        /* \"#utility.yul\":7120:7510   */\n      swap3\n      swap2\n      pop\n      pop\n      jump\t// out\n        /* \"#utility.yul\":7516:7791   */\n    tag_57:\n        /* \"#utility.yul\":7648:7651   */\n      0x00\n        /* \"#utility.yul\":7670:7765   */\n      tag_242\n        /* \"#utility.yul\":7761:7764   */\n      dup3\n        /* \"#utility.yul\":7752:7758   */\n      dup5\n        /* \"#utility.yul\":7670:7765   */\n      tag_134\n      jump\t// in\n    tag_242:\n        /* \"#utility.yul\":7663:7765   */\n      swap2\n      pop\n        /* \"#utility.yul\":7782:7785   */\n      dup2\n        /* \"#utility.yul\":7775:7785   */\n      swap1\n      pop\n        /* \"#utility.yul\":7516:7791   */\n      swap3\n      swap2\n      pop\n      pop\n      jump\t// out\n        /* \"#utility.yul\":7797:7977   */\n    tag_135:\n        /* \"#utility.yul\":7845:7922   */\n      0x4e487b7100000000000000000000000000000000000000000000000000000000\n        /* \"#utility.yul\":7842:7843   */\n      0x00\n        /* \"#utility.yul\":7835:7923   */\n      mstore\n        /* \"#utility.yul\":7942:7946   */\n      0x22\n        /* \"#utility.yul\":7939:7940   */\n      0x04\n        /* \"#utility.yul\":7932:7947   */\n      mstore\n        /* \"#utility.yul\":7966:7970   */\n      0x24\n        /* \"#utility.yul\":7963:7964   */\n      0x00\n        /* \"#utility.yul\":7956:7971   */\n      revert\n        /* \"#utility.yul\":7983:8303   */\n    tag_62:\n        /* \"#utility.yul\":8027:8033   */\n      0x00\n        /* \"#utility.yul\":8064:8065   */\n      0x02\n        /* \"#utility.yul\":8058:8062   */\n      dup3\n        /* \"#utility.yul\":8054:8066   */\n      div\n        /* \"#utility.yul\":8044:8066   */\n      swap1\n      pop\n        /* \"#utility.yul\":8111:8112   */\n      0x01\n        /* \"#utility.yul\":8105:8109   */\n      dup3\n        /* \"#utility.yul\":8101:8113   */\n      and\n        /* \"#utility.yul\":8132:8150   */\n      dup1\n        /* \"#utility.yul\":8122:8203   */\n      tag_245\n      jumpi\n        /* \"#utility.yul\":8188:8192   */\n      0x7f\n        /* \"#utility.yul\":8180:8186   */\n      dup3\n        /* \"#utility.yul\":8176:8193   */\n      and\n        /* \"#utility.yul\":8166:8193   */\n      swap2\n      pop\n        /* \"#utility.yul\":8122:8203   */\n    tag_245:\n        /* \"#utility.yul\":8250:8252   */\n      0x20\n        /* \"#utility.yul\":8242:8248   */\n      dup3\n        /* \"#utility.yul\":8239:8253   */\n      lt\n        /* \"#utility.yul\":8219:8237   */\n      dup2\n        /* \"#utility.yul\":8216:8254   */\n      sub\n        /* \"#utility.yul\":8213:8297   */\n      tag_246\n      jumpi\n        /* \"#utility.yul\":8269:8287   */\n      tag_247\n      tag_135\n      jump\t// in\n    tag_247:\n        /* \"#utility.yul\":8213:8297   */\n    tag_246:\n        /* \"#utility.yul\":8034:8303   */\n      pop\n        /* \"#utility.yul\":7983:8303   */\n      swap2\n      swap1\n      pop\n      jump\t// out\n        /* \"#utility.yul\":8309:8450   */\n    tag_136:\n        /* \"#utility.yul\":8358:8362   */\n      0x00\n        /* \"#utility.yul\":8381:8384   */\n      dup2\n        /* \"#utility.yul\":8373:8384   */\n      swap1\n      pop\n        /* \"#utility.yul\":8404:8407   */\n      dup2\n        /* \"#utility.yul\":8401:8402   */\n      0x00\n        /* \"#utility.yul\":8394:8408   */\n      mstore\n        /* \"#utility.yul\":8438:8442   */\n      0x20\n        /* \"#utility.yul\":8435:8436   */\n      0x00\n        /* \"#utility.yul\":8425:8443   */\n      keccak256\n        /* \"#utility.yul\":8417:8443   */\n      swap1\n      pop\n        /* \"#utility.yul\":8309:8450   */\n      swap2\n      swap1\n      pop\n      jump\t// out\n        /* \"#utility.yul\":8480:9354   */\n    tag_137:\n        /* \"#utility.yul\":8583:8586   */\n      0x00\n        /* \"#utility.yul\":8620:8625   */\n      dup2\n        /* \"#utility.yul\":8614:8626   */\n      sload\n        /* \"#utility.yul\":8649:8685   */\n      tag_250\n        /* \"#utility.yul\":8675:8684   */\n      dup2\n        /* \"#utility.yul\":8649:8685   */\n      tag_62\n      jump\t// in\n    tag_250:\n        /* \"#utility.yul\":8701:8790   */\n      tag_251\n        /* \"#utility.yul\":8783:8789   */\n      dup2\n        /* \"#utility.yul\":8778:8781   */\n      dup7\n        /* \"#utility.yul\":8701:8790   */\n      tag_133\n      jump\t// in\n    tag_251:\n        /* \"#utility.yul\":8694:8790   */\n      swap5\n      pop\n        /* \"#utility.yul\":8821:8822   */\n      0x01\n        /* \"#utility.yul\":8810:8819   */\n      dup3\n        /* \"#utility.yul\":8806:8823   */\n      and\n        /* \"#utility.yul\":8837:8838   */\n      0x00\n        /* \"#utility.yul\":8832:8998   */\n      dup2\n      eq\n      tag_253\n      jumpi\n        /* \"#utility.yul\":9012:9013   */\n      0x01\n        /* \"#utility.yul\":9007:9348   */\n      dup2\n      eq\n      tag_254\n      jumpi\n        /* \"#utility.yul\":8799:9348   */\n      jump(tag_252)\n        /* \"#utility.yul\":8832:8998   */\n    tag_253:\n        /* \"#utility.yul\":8916:8920   */\n      0xff\n        /* \"#utility.yul\":8912:8921   */\n      not\n        /* \"#utility.yul\":8901:8910   */\n      dup4\n        /* \"#utility.yul\":8897:8922   */\n      and\n        /* \"#utility.yul\":8892:8895   */\n      dup7\n        /* \"#utility.yul\":8885:8923   */\n      mstore\n        /* \"#utility.yul\":8978:8984   */\n      dup2\n        /* \"#utility.yul\":8971:8985   */\n      iszero\n        /* \"#utility.yul\":8964:8986   */\n      iszero\n        /* \"#utility.yul\":8956:8962   */\n      dup3\n        /* \"#utility.yul\":8952:8987   */\n      mul\n        /* \"#utility.yul\":8947:8950   */\n      dup7\n        /* \"#utility.yul\":8943:8988   */\n      add\n        /* \"#utility.yul\":8936:8988   */\n      swap4\n      pop\n        /* \"#utility.yul\":8832:8998   */\n      jump(tag_252)\n        /* \"#utility.yul\":9007:9348   */\n    tag_254:\n        /* \"#utility.yul\":9074:9112   */\n      tag_255\n        /* \"#utility.yul\":9106:9111   */\n      dup6\n        /* \"#utility.yul\":9074:9112   */\n      tag_136\n      jump\t// in\n    tag_255:\n        /* \"#utility.yul\":9134:9135   */\n      0x00\n        /* \"#utility.yul\":9148:9302   */\n    tag_256:\n        /* \"#utility.yul\":9162:9168   */\n      dup4\n        /* \"#utility.yul\":9159:9160   */\n      dup2\n        /* \"#utility.yul\":9156:9169   */\n      lt\n        /* \"#utility.yul\":9148:9302   */\n      iszero\n      tag_258\n      jumpi\n        /* \"#utility.yul\":9236:9243   */\n      dup2\n        /* \"#utility.yul\":9230:9244   */\n      sload\n        /* \"#utility.yul\":9226:9227   */\n      dup2\n        /* \"#utility.yul\":9221:9224   */\n      dup10\n        /* \"#utility.yul\":9217:9228   */\n      add\n        /* \"#utility.yul\":9210:9245   */\n      mstore\n        /* \"#utility.yul\":9286:9287   */\n      0x01\n        /* \"#utility.yul\":9277:9284   */\n      dup3\n        /* \"#utility.yul\":9273:9288   */\n      add\n        /* \"#utility.yul\":9262:9288   */\n      swap2\n      pop\n        /* \"#utility.yul\":9184:9188   */\n      0x20\n        /* \"#utility.yul\":9181:9182   */\n      dup2\n        /* \"#utility.yul\":9177:9189   */\n      add\n        /* \"#utility.yul\":9172:9189   */\n      swap1\n      pop\n        /* \"#utility.yul\":9148:9302   */\n      jump(tag_256)\n    tag_258:\n        /* \"#utility.yul\":9331:9337   */\n      dup4\n        /* \"#utility.yul\":9326:9329   */\n      dup9\n        /* \"#utility.yul\":9322:9338   */\n      add\n        /* \"#utility.yul\":9315:9338   */\n      swap6\n      pop\n        /* \"#utility.yul\":9014:9348   */\n      pop\n      pop\n        /* \"#utility.yul\":8799:9348   */\n    tag_252:\n      pop\n        /* \"#utility.yul\":8587:9354   */\n      pop\n      pop\n        /* \"#utility.yul\":8480:9354   */\n      swap3\n      swap2\n      pop\n      pop\n      jump\t// out\n        /* \"#utility.yul\":9360:9629   */\n    tag_59:\n        /* \"#utility.yul\":9489:9492   */\n      0x00\n        /* \"#utility.yul\":9511:9603   */\n      tag_260\n        /* \"#utility.yul\":9599:9602   */\n      dup3\n        /* \"#utility.yul\":9590:9596   */\n      dup5\n        /* \"#utility.yul\":9511:9603   */\n      tag_137\n      jump\t// in\n    tag_260:\n        /* \"#utility.yul\":9504:9603   */\n      swap2\n      pop\n        /* \"#utility.yul\":9620:9623   */\n      dup2\n        /* \"#utility.yul\":9613:9623   */\n      swap1\n      pop\n        /* \"#utility.yul\":9360:9629   */\n      swap3\n      swap2\n      pop\n      pop\n      jump\t// out\n        /* \"#utility.yul\":9635:9803   */\n    tag_138:\n        /* \"#utility.yul\":9775:9795   */\n      0x444944206e6f7420726567697374657265640000000000000000000000000000\n        /* \"#utility.yul\":9771:9772   */\n      0x00\n        /* \"#utility.yul\":9763:9769   */\n      dup3\n        /* \"#utility.yul\":9759:9773   */\n      add\n        /* \"#utility.yul\":9752:9796   */\n      mstore\n        /* \"#utility.yul\":9635:9803   */\n      pop\n      jump\t// out\n        /* \"#utility.yul\":9809:10175   */\n    tag_139:\n        /* \"#utility.yul\":9951:9954   */\n      0x00\n        /* \"#utility.yul\":9972:10039   */\n      tag_263\n        /* \"#utility.yul\":10036:10038   */\n      0x12\n        /* \"#utility.yul\":10031:10034   */\n      dup4\n        /* \"#utility.yul\":9972:10039   */\n      tag_130\n      jump\t// in\n    tag_263:\n        /* \"#utility.yul\":9965:10039   */\n      swap2\n      pop\n        /* \"#utility.yul\":10048:10141   */\n      tag_264\n        /* \"#utility.yul\":10137:10140   */\n      dup3\n        /* \"#utility.yul\":10048:10141   */\n      tag_138\n      jump\t// in\n    tag_264:\n        /* \"#utility.yul\":10166:10168   */\n      0x20\n        /* \"#utility.yul\":10161:10164   */\n      dup3\n        /* \"#utility.yul\":10157:10169   */\n      add\n        /* \"#utility.yul\":10150:10169   */\n      swap1\n      pop\n        /* \"#utility.yul\":9809:10175   */\n      swap2\n      swap1\n      pop\n      jump\t// out\n        /* \"#utility.yul\":10181:10600   */\n    tag_65:\n        /* \"#utility.yul\":10347:10351   */\n      0x00\n        /* \"#utility.yul\":10385:10387   */\n      0x20\n        /* \"#utility.yul\":10374:10383   */\n      dup3\n        /* \"#utility.yul\":10370:10388   */\n      add\n        /* \"#utility.yul\":10362:10388   */\n      swap1\n      pop\n        /* \"#utility.yul\":10434:10443   */\n      dup2\n        /* \"#utility.yul\":10428:10432   */\n      dup2\n        /* \"#utility.yul\":10424:10444   */\n      sub\n        /* \"#utility.yul\":10420:10421   */\n      0x00\n        /* \"#utility.yul\":10409:10418   */\n      dup4\n        /* \"#utility.yul\":10405:10422   */\n      add\n        /* \"#utility.yul\":10398:10445   */\n      mstore\n        /* \"#utility.yul\":10462:10593   */\n      tag_266\n        /* \"#utility.yul\":10588:10592   */\n      dup2\n        /* \"#utility.yul\":10462:10593   */\n      tag_139\n      jump\t// in\n    tag_266:\n        /* \"#utility.yul\":10454:10593   */\n      swap1\n      pop\n        /* \"#utility.yul\":10181:10600   */\n      swap2\n      swap1\n      pop\n      jump\t// out\n        /* \"#utility.yul\":10606:10699   */\n    tag_140:\n        /* \"#utility.yul\":10643:10649   */\n      0x00\n        /* \"#utility.yul\":10690:10692   */\n      0x20\n        /* \"#utility.yul\":10685:10687   */\n      0x1f\n        /* \"#utility.yul\":10678:10683   */\n      dup4\n        /* \"#utility.yul\":10674:10688   */\n      add\n        /* \"#utility.yul\":10670:10693   */\n      div\n        /* \"#utility.yul\":10660:10693   */\n      swap1\n      pop\n        /* \"#utility.yul\":10606:10699   */\n      swap2\n      swap1\n      pop\n      jump\t// out\n        /* \"#utility.yul\":10705:10812   */\n    tag_141:\n        /* \"#utility.yul\":10749:10757   */\n      0x00\n        /* \"#utility.yul\":10799:10804   */\n      dup3\n        /* \"#utility.yul\":10793:10797   */\n      dup3\n        /* \"#utility.yul\":10789:10805   */\n      shl\n        /* \"#utility.yul\":10768:10805   */\n      swap1\n      pop\n        /* \"#utility.yul\":10705:10812   */\n      swap3\n      swap2\n      pop\n      pop\n      jump\t// out\n        /* \"#utility.yul\":10818:11211   */\n    tag_142:\n        /* \"#utility.yul\":10887:10893   */\n      0x00\n        /* \"#utility.yul\":10937:10938   */\n      0x08\n        /* \"#utility.yul\":10925:10935   */\n      dup4\n        /* \"#utility.yul\":10921:10939   */\n      mul\n        /* \"#utility.yul\":10960:11057   */\n      tag_270\n        /* \"#utility.yul\":10990:11056   */\n      0xffffffffffffffffffffffffffffffffffffffffffffffffffffffffffffffff\n        /* \"#utility.yul\":10979:10988   */\n      dup3\n        /* \"#utility.yul\":10960:11057   */\n      tag_141\n      jump\t// in\n    tag_270:\n        /* \"#utility.yul\":11078:11117   */\n      tag_271\n        /* \"#utility.yul\":11108:11116   */\n      dup7\n        /* \"#utility.yul\":11097:11106   */\n      dup4\n        /* \"#utility.yul\":11078:11117   */\n      tag_141\n      jump\t// in\n    tag_271:\n        /* \"#utility.yul\":11066:11117   */\n      swap6\n      pop\n        /* \"#utility.yul\":11150:11154   */\n      dup1\n        /* \"#utility.yul\":11146:11155   */\n      not\n        /* \"#utility.yul\":11139:11144   */\n      dup5\n        /* \"#utility.yul\":11135:11156   */\n      and\n        /* \"#utility.yul\":11126:11156   */\n      swap4\n      pop\n        /* \"#utility.yul\":11199:11203   */\n      dup1\n        /* \"#utility.yul\":11189:11197   */\n      dup7\n        /* \"#utility.yul\":11185:11204   */\n      and\n        /* \"#utility.yul\":11178:11183   */\n      dup5\n        /* \"#utility.yul\":11175:11205   */\n      or\n        /* \"#utility.yul\":11165:11205   */\n      swap3\n      pop\n        /* \"#utility.yul\":10894:11211   */\n      pop\n      pop\n        /* \"#utility.yul\":10818:11211   */\n      swap4\n      swap3\n      pop\n      pop\n      pop\n      jump\t// out\n        /* \"#utility.yul\":11217:11294   */\n    tag_143:\n        /* \"#utility.yul\":11254:11261   */\n      0x00\n        /* \"#utility.yul\":11283:11288   */\n      dup2\n        /* \"#utility.yul\":11272:11288   */\n      swap1\n      pop\n        /* \"#utility.yul\":11217:11294   */\n      swap2\n      swap1\n      pop\n      jump\t// out\n        /* \"#utility.yul\":11300:11360   */\n    tag_144:\n        /* \"#utility.yul\":11328:11331   */\n      0x00\n        /* \"#utility.yul\":11349:11354   */\n      dup2\n        /* \"#utility.yul\":11342:11354   */\n      swap1\n      pop\n        /* \"#utility.yul\":11300:11360   */\n      swap2\n      swap1\n      pop\n      jump\t// out\n        /* \"#utility.yul\":11366:11508   */\n    tag_145:\n        /* \"#utility.yul\":11416:11425   */\n      0x00\n        /* \"#utility.yul\":11449:11502   */\n      tag_275\n        /* \"#utility.yul\":11467:11501   */\n      tag_276\n        /* \"#utility.yul\":11476:11500   */\n      tag_277\n        /* \"#utility.yul\":11494:11499   */\n      dup5\n        /* \"#utility.yul\":11476:11500   */\n      tag_143\n      jump\t// in\n    tag_277:\n        /* \"#utility.yul\":11467:11501   */\n      tag_144\n      jump\t// in\n    tag_276:\n        /* \"#utility.yul\":11449:11502   */\n      tag_143\n      jump\t// in\n    tag_275:\n        /* \"#utility.yul\":11436:11502   */\n      swap1\n      pop\n        /* \"#utility.yul\":11366:11508   */\n      swap2\n      swap1\n      pop\n      jump\t// out\n        /* \"#utility.yul\":11514:11589   */\n    tag_146:\n        /* \"#utility.yul\":11557:11560   */\n      0x00\n        /* \"#utility.yul\":11578:11583   */\n      dup2\n        /* \"#utility.yul\":11571:11583   */\n      swap1\n      pop\n        /* \"#utility.yul\":11514:11589   */\n      swap2\n      swap1\n      pop\n      jump\t// out\n        /* \"#utility.yul\":11595:11864   */\n    tag_147:\n        /* \"#utility.yul\":11705:11744   */\n      tag_280\n        /* \"#utility.yul\":11736:11743   */\n      dup4\n        /* \"#utility.yul\":11705:11744   */\n      tag_145\n      jump\t// in\n    tag_280:\n        /* \"#utility.yul\":11766:11857   */\n      tag_281\n        /* \"#utility.yul\":11815:11856   */\n      tag_282\n        /* \"#utility.yul\":11839:11855   */\n      dup3\n        /* \"#utility.yul\":11815:11856   */\n      tag_146\n      jump\t// in\n    tag_282:\n        /* \"#utility.yul\":11807:11813   */\n      dup5\n        /* \"#utility.yul\":11800:11804   */\n      dup5\n        /* \"#utility.yul\":11794:11805   */\n      sload\n        /* \"#utility.yul\":11766:11857   */\n      tag_142\n      jump\t// in\n    tag_281:\n        /* \"#utility.yul\":11760:11764   */\n      dup3\n        /* \"#utility.yul\":11753:11858   */\n      sstore\n        /* \"#utility.yul\":11671:11864   */\n      pop\n        /* \"#utility.yul\":11595:11864   */\n      pop\n      pop\n      pop\n      jump\t// out\n        /* \"#utility.yul\":11870:11943   */\n    tag_148:\n        /* \"#utility.yul\":11915:11918   */\n      0x00\n        /* \"#utility.yul\":11870:11943   */\n      swap1\n      jump\t// out\n        /* \"#utility.yul\":11949:12138   */\n    tag_149:\n        /* \"#utility.yul\":12026:12058   */\n      tag_285\n      tag_148\n      jump\t// in\n    tag_285:\n        /* \"#utility.yul\":12067:12132   */\n      tag_286\n        /* \"#utility.yul\":12125:12131   */\n      dup2\n        /* \"#utility.yul\":12117:12123   */\n      dup5\n        /* \"#utility.yul\":12111:12115   */\n      dup5\n        /* \"#utility.yul\":12067:12132   */\n      tag_147\n      jump\t// in\n    tag_286:\n        /* \"#utility.yul\":12002:12138   */\n      pop\n        /* \"#utility.yul\":11949:12138   */\n      pop\n      pop\n      jump\t// out\n        /* \"#utility.yul\":12144:12330   */\n    tag_150:\n        /* \"#utility.yul\":12204:12324   */\n    tag_288:\n        /* \"#utility.yul\":12221:12224   */\n      dup2\n        /* \"#utility.yul\":12214:12219   */\n      dup2\n        /* \"#utility.yul\":12211:12225   */\n      lt\n        /* \"#utility.yul\":12204:12324   */\n      iszero\n      tag_290\n      jumpi\n        /* \"#utility.yul\":12275:12314   */\n      tag_291\n        /* \"#utility.yul\":12312:12313   */\n      0x00\n        /* \"#utility.yul\":12305:12310   */\n      dup3\n        /* \"#utility.yul\":12275:12314   */\n      tag_149\n      jump\t// in\n    tag_291:\n        /* \"#utility.yul\":12248:12249   */\n      0x01\n        /* \"#utility.yul\":12241:12246   */\n      dup2\n        /* \"#utility.yul\":12237:12250   */\n      add\n        /* \"#utility.yul\":12228:12250   */\n      swap1\n      pop\n        /* \"#utility.yul\":12204:12324   */\n      jump(tag_288)\n    tag_290:\n        /* \"#utility.yul\":12144:12330   */\n      pop\n      pop\n      jump\t// out\n        /* \"#utility.yul\":12336:12879   */\n    tag_151:\n        /* \"#utility.yul\":12437:12439   */\n      0x1f\n        /* \"#utility.yul\":12432:12435   */\n      dup3\n        /* \"#utility.yul\":12429:12440   */\n      gt\n        /* \"#utility.yul\":12426:12872   */\n      iszero\n      tag_293\n      jumpi\n        /* \"#utility.yul\":12471:12509   */\n      tag_294\n        /* \"#utility.yul\":12503:12508   */\n      dup2\n        /* \"#utility.yul\":12471:12509   */\n      tag_136\n      jump\t// in\n    tag_294:\n        /* \"#utility.yul\":12555:12584   */\n      tag_295\n        /* \"#utility.yul\":12573:12583   */\n      dup5\n        /* \"#utility.yul\":12555:12584   */\n      tag_140\n      jump\t// in\n    tag_295:\n        /* \"#utility.yul\":12545:12553   */\n      dup2\n        /* \"#utility.yul\":12541:12585   */\n      add\n        /* \"#utility.yul\":12738:12740   */\n      0x20\n        /* \"#utility.yul\":12726:12736   */\n      dup6\n        /* \"#utility.yul\":12723:12741   */\n      lt\n        /* \"#utility.yul\":12720:12769   */\n      iszero\n      tag_296\n      jumpi\n        /* \"#utility.yul\":12759:12767   */\n      dup2\n        /* \"#utility.yul\":12744:12767   */\n      swap1\n      pop\n        /* \"#utility.yul\":12720:12769   */\n    tag_296:\n        /* \"#utility.yul\":12782:12862   */\n      tag_297\n        /* \"#utility.yul\":12838:12860   */\n      tag_298\n        /* \"#utility.yul\":12856:12859   */\n      dup6\n        /* \"#utility.yul\":12838:12860   */\n      tag_140\n      jump\t// in\n    tag_298:\n        /* \"#utility.yul\":12828:12836   */\n      dup4\n        /* \"#utility.yul\":12824:12861   */\n      add\n        /* \"#utility.yul\":12811:12822   */\n      dup3\n        /* \"#utility.yul\":12782:12862   */\n      tag_150\n      jump\t// in\n    tag_297:\n        /* \"#utility.yul\":12441:12872   */\n      pop\n      pop\n        /* \"#utility.yul\":12426:12872   */\n    tag_293:\n        /* \"#utility.yul\":12336:12879   */\n      pop\n      pop\n      pop\n      jump\t// out\n        /* \"#utility.yul\":12885:13002   */\n    tag_152:\n        /* \"#utility.yul\":12939:12947   */\n      0x00\n        /* \"#utility.yul\":12989:12994   */\n      dup3\n        /* \"#utility.yul\":12983:12987   */\n      dup3\n        /* \"#utility.yul\":12979:12995   */\n      shr\n        /* \"#utility.yul\":12958:12995   */\n      swap1\n      pop\n        /* \"#utility.yul\":12885:13002   */\n      swap3\n      swap2\n      pop\n      pop\n      jump\t// out\n        /* \"#utility.yul\":13008:13177   */\n    tag_153:\n        /* \"#utility.yul\":13052:13058   */\n      0x00\n        /* \"#utility.yul\":13085:13136   */\n      tag_301\n        /* \"#utility.yul\":13133:13134   */\n      0x00\n        /* \"#utility.yul\":13129:13135   */\n      not\n        /* \"#utility.yul\":13121:13126   */\n      dup5\n        /* \"#utility.yul\":13118:13119   */\n      0x08\n        /* \"#utility.yul\":13114:13127   */\n      mul\n        /* \"#utility.yul\":13085:13136   */\n      tag_152\n      jump\t// in\n    tag_301:\n        /* \"#utility.yul\":13081:13137   */\n      not\n        /* \"#utility.yul\":13166:13170   */\n      dup1\n        /* \"#utility.yul\":13160:13164   */\n      dup4\n        /* \"#utility.yul\":13156:13171   */\n      and\n        /* \"#utility.yul\":13146:13171   */\n      swap2\n      pop\n        /* \"#utility.yul\":13059:13177   */\n      pop\n        /* \"#utility.yul\":13008:13177   */\n      swap3\n      swap2\n      pop\n      pop\n      jump\t// out\n        /* \"#utility.yul\":13182:13477   */\n    tag_154:\n        /* \"#utility.yul\":13258:13262   */\n      0x00\n        /* \"#utility.yul\":13404:13433   */\n      tag_303\n        /* \"#utility.yul\":13429:13432   */\n      dup4\n        /* \"#utility.yul\":13423:13427   */\n      dup4\n        /* \"#utility.yul\":13404:13433   */\n      tag_153\n      jump\t// in\n    tag_303:\n        /* \"#utility.yul\":13396:13433   */\n      swap2\n      pop\n        /* \"#utility.yul\":13466:13469   */\n      dup3\n        /* \"#utility.yul\":13463:13464   */\n      0x02\n        /* \"#utility.yul\":13459:13470   */\n      mul\n        /* \"#utility.yul\":13453:13457   */\n      dup3\n        /* \"#utility.yul\":13450:13471   */\n      or\n        /* \"#utility.yul\":13442:13471   */\n      swap1\n      pop\n        /* \"#utility.yul\":13182:13477   */\n      swap3\n      swap2\n      pop\n      pop\n      jump\t// out\n        /* \"#utility.yul\":13482:14877   */\n    tag_67:\n        /* \"#utility.yul\":13599:13636   */\n      tag_305\n        /* \"#utility.yul\":13632:13635   */\n      dup3\n        /* \"#utility.yul\":13599:13636   */\n      tag_129\n      jump\t// in\n    tag_305:\n        /* \"#utility.yul\":13701:13719   */\n      0xffffffffffffffff\n        /* \"#utility.yul\":13693:13699   */\n      dup2\n        /* \"#utility.yul\":13690:13720   */\n      gt\n        /* \"#utility.yul\":13687:13743   */\n      iszero\n      tag_306\n      jumpi\n        /* \"#utility.yul\":13723:13741   */\n      tag_307\n      tag_120\n      jump\t// in\n    tag_307:\n        /* \"#utility.yul\":13687:13743   */\n    tag_306:\n        /* \"#utility.yul\":13767:13805   */\n      tag_308\n        /* \"#utility.yul\":13799:13803   */\n      dup3\n        /* \"#utility.yul\":13793:13804   */\n      sload\n        /* \"#utility.yul\":13767:13805   */\n      tag_62\n      jump\t// in\n    tag_308:\n        /* \"#utility.yul\":13852:13919   */\n      tag_309\n        /* \"#utility.yul\":13912:13918   */\n      dup3\n        /* \"#utility.yul\":13904:13910   */\n      dup3\n        /* \"#utility.yul\":13898:13902   */\n      dup6\n        /* \"#utility.yul\":13852:13919   */\n      tag_151\n      jump\t// in\n    tag_309:\n        /* \"#utility.yul\":13946:13947   */\n      0x00\n        /* \"#utility.yul\":13970:13974   */\n      0x20\n        /* \"#utility.yul\":13957:13974   */\n      swap1\n      pop\n        /* \"#utility.yul\":14002:14004   */\n      0x1f\n        /* \"#utility.yul\":13994:14000   */\n      dup4\n        /* \"#utility.yul\":13991:14005   */\n      gt\n        /* \"#utility.yul\":14019:14020   */\n      0x01\n        /* \"#utility.yul\":14014:14632   */\n      dup2\n      eq\n      tag_311\n      jumpi\n        /* \"#utility.yul\":14676:14677   */\n      0x00\n        /* \"#utility.yul\":14693:14699   */\n      dup5\n        /* \"#utility.yul\":14690:14767   */\n      iszero\n      tag_312\n      jumpi\n        /* \"#utility.yul\":14742:14751   */\n      dup3\n        /* \"#utility.yul\":14737:14740   */\n      dup8\n        /* \"#utility.yul\":14733:14752   */\n      add\n        /* \"#utility.yul\":14727:14753   */\n      mload\n        /* \"#utility.yul\":14718:14753   */\n      swap1\n      pop\n        /* \"#utility.yul\":14690:14767   */\n    tag_312:\n        /* \"#utility.yul\":14793:14860   */\n      tag_313\n        /* \"#utility.yul\":14853:14859   */\n      dup6\n        /* \"#utility.yul\":14846:14851   */\n      dup3\n        /* \"#utility.yul\":14793:14860   */\n      tag_154\n      jump\t// in\n    tag_313:\n        /* \"#utility.yul\":14787:14791   */\n      dup7\n        /* \"#utility.yul\":14780:14861   */\n      sstore\n        /* \"#utility.yul\":14649:14871   */\n      pop\n        /* \"#utility.yul\":13984:14871   */\n      jump(tag_310)\n        /* \"#utility.yul\":14014:14632   */\n    tag_311:\n        /* \"#utility.yul\":14066:14070   */\n      0x1f\n        /* \"#utility.yul\":14062:14071   */\n      not\n        /* \"#utility.yul\":14054:14060   */\n      dup5\n        /* \"#utility.yul\":14050:14072   */\n      and\n        /* \"#utility.yul\":14100:14137   */\n      tag_314\n        /* \"#utility.yul\":14132:14136   */\n      dup7\n        /* \"#utility.yul\":14100:14137   */\n      tag_136\n      jump\t// in\n    tag_314:\n        /* \"#utility.yul\":14159:14160   */\n      0x00\n        /* \"#utility.yul\":14173:14381   */\n    tag_315:\n        /* \"#utility.yul\":14187:14194   */\n      dup3\n        /* \"#utility.yul\":14184:14185   */\n      dup2\n        /* \"#utility.yul\":14181:14195   */\n      lt\n        /* \"#utility.yul\":14173:14381   */\n      iszero\n      tag_317\n      jumpi\n        /* \"#utility.yul\":14266:14275   */\n      dup5\n        /* \"#utility.yul\":14261:14264   */\n      dup10\n        /* \"#utility.yul\":14257:14276   */\n      add\n        /* \"#utility.yul\":14251:14277   */\n      mload\n        /* \"#utility.yul\":14243:14249   */\n      dup3\n        /* \"#utility.yul\":14236:14278   */\n      sstore\n        /* \"#utility.yul\":14317:14318   */\n      0x01\n        /* \"#utility.yul\":14309:14315   */\n      dup3\n        /* \"#utility.yul\":14305:14319   */\n      add\n        /* \"#utility.yul\":14295:14319   */\n      swap2\n      pop\n        /* \"#utility.yul\":14364:14366   */\n      0x20\n        /* \"#utility.yul\":14353:14362   */\n      dup6\n        /* \"#utility.yul\":14349:14367   */\n      add\n        /* \"#utility.yul\":14336:14367   */\n      swap5\n      pop\n        /* \"#utility.yul\":14210:14214   */\n      0x20\n        /* \"#utility.yul\":14207:14208   */\n      dup2\n        /* \"#utility.yul\":14203:14215   */\n      add\n        /* \"#utility.yul\":14198:14215   */\n      swap1\n      pop\n        /* \"#utility.yul\":14173:14381   */\n      jump(tag_315)\n    tag_317:\n        /* \"#utility.yul\":14409:14415   */\n      dup7\n        /* \"#utility.yul\":14400:14407   */\n      dup4\n        /* \"#utility.yul\":14397:14416   */\n      lt\n        /* \"#utility.yul\":14394:14573   */\n      iszero\n      tag_318\n      jumpi\n        /* \"#utility.yul\":14467:14476   */\n      dup5\n        /* \"#utility.yul\":14462:14465   */\n      dup10\n        /* \"#utility.yul\":14458:14477   */\n      add\n        /* \"#utility.yul\":14452:14478   */\n      mload\n        /* \"#utility.yul\":14510:14558   */\n      tag_319\n        /* \"#utility.yul\":14552:14556   */\n      0x1f\n        /* \"#utility.yul\":14544:14550   */\n      dup10\n        /* \"#utility.yul\":14540:14557   */\n      and\n        /* \"#utility.yul\":14529:14538   */\n      dup3\n        /* \"#utility.yul\":14510:14558   */\n      tag_153\n      jump\t// in\n    tag_319:\n        /* \"#utility.yul\":14502:14508   */\n      dup4\n        /* \"#utility.yul\":14495:14559   */\n      sstore\n        /* \"#utility.yul\":14417:14573   */\n      pop\n        /* \"#utility.yul\":14394:14573   */\n    tag_318:\n        /* \"#utility.yul\":14619:14620   */\n      0x01\n        /* \"#utility.yul\":14615:14616   */\n      0x02\n        /* \"#utility.yul\":14607:14613   */\n      dup9\n        /* \"#utility.yul\":14603:14617   */\n      mul\n        /* \"#utility.yul\":14599:14621   */\n      add\n        /* \"#utility.yul\":14593:14597   */\n      dup9\n        /* \"#utility.yul\":14586:14622   */\n      sstore\n        /* \"#utility.yul\":14021:14632   */\n      pop\n      pop\n      pop\n        /* \"#utility.yul\":13984:14871   */\n    tag_310:\n      pop\n        /* \"#utility.yul\":13574:14877   */\n      pop\n      pop\n      pop\n        /* \"#utility.yul\":13482:14877   */\n      pop\n      pop\n      jump\t// out\n        /* \"#utility.yul\":14883:15397   */\n    tag_73:\n        /* \"#utility.yul\":15044:15048   */\n      0x00\n        /* \"#utility.yul\":15082:15084   */\n      0x40\n        /* \"#utility.yul\":15071:15080   */\n      dup3\n        /* \"#utility.yul\":15067:15085   */\n      add\n        /* \"#utility.yul\":15059:15085   */\n      swap1\n      pop\n        /* \"#utility.yul\":15131:15140   */\n      dup2\n        /* \"#utility.yul\":15125:15129   */\n      dup2\n        /* \"#utility.yul\":15121:15141   */\n      sub\n        /* \"#utility.yul\":15117:15118   */\n      0x00\n        /* \"#utility.yul\":15106:15115   */\n      dup4\n        /* \"#utility.yul\":15102:15119   */\n      add\n        /* \"#utility.yul\":15095:15142   */\n      mstore\n        /* \"#utility.yul\":15159:15237   */\n      tag_321\n        /* \"#utility.yul\":15232:15236   */\n      dup2\n        /* \"#utility.yul\":15223:15229   */\n      dup6\n        /* \"#utility.yul\":15159:15237   */\n      tag_132\n      jump\t// in\n    tag_321:\n        /* \"#utility.yul\":15151:15237   */\n      swap1\n      pop\n        /* \"#utility.yul\":15284:15293   */\n      dup2\n        /* \"#utility.yul\":15278:15282   */\n      dup2\n        /* \"#utility.yul\":15274:15294   */\n      sub\n        /* \"#utility.yul\":15269:15271   */\n      0x20\n        /* \"#utility.yul\":15258:15267   */\n      dup4\n        /* \"#utility.yul\":15254:15272   */\n      add\n        /* \"#utility.yul\":15247:15295   */\n      mstore\n        /* \"#utility.yul\":15312:15390   */\n      tag_322\n        /* \"#utility.yul\":15385:15389   */\n      dup2\n        /* \"#utility.yul\":15376:15382   */\n      dup5\n        /* \"#utility.yul\":15312:15390   */\n      tag_132\n      jump\t// in\n    tag_322:\n        /* \"#utility.yul\":15304:15390   */\n      swap1\n      pop\n        /* \"#utility.yul\":14883:15397   */\n      swap4\n      swap3\n      pop\n      pop\n      pop\n      jump\t// out\n        /* \"#utility.yul\":15403:15575   */\n    tag_155:\n        /* \"#utility.yul\":15543:15567   */\n      0x44494420616c7265616479207265676973746572656400000000000000000000\n        /* \"#utility.yul\":15539:15540   */\n      0x00\n        /* \"#utility.yul\":15531:15537   */\n      dup3\n        /* \"#utility.yul\":15527:15541   */\n      add\n        /* \"#utility.yul\":15520:15568   */\n      mstore\n        /* \"#utility.yul\":15403:15575   */\n      pop\n      jump\t// out\n        /* \"#utility.yul\":15581:15947   */\n    tag_156:\n        /* \"#utility.yul\":15723:15726   */\n      0x00\n        /* \"#utility.yul\":15744:15811   */\n      tag_325\n        /* \"#utility.yul\":15808:15810   */\n      0x16\n        /* \"#utility.yul\":15803:15806   */\n      dup4\n        /* \"#utility.yul\":15744:15811   */\n      tag_130\n      jump\t// in\n    tag_325:\n        /* \"#utility.yul\":15737:15811   */\n      swap2\n      pop\n        /* \"#utility.yul\":15820:15913   */\n      tag_326\n        /* \"#utility.yul\":15909:15912   */\n      dup3\n        /* \"#utility.yul\":15820:15913   */\n      tag_155\n      jump\t// in\n    tag_326:\n        /* \"#utility.yul\":15938:15940   */\n      0x20\n        /* \"#utility.yul\":15933:15936   */\n      dup3\n        /* \"#utility.yul\":15929:15941   */\n      add\n        /* \"#utility.yul\":15922:15941   */\n      swap1\n      pop\n        /* \"#utility.yul\":15581:15947   */\n      swap2\n      swap1\n      pop\n      jump\t// out\n        /* \"#utility.yul\":15953:16372   */\n    tag_78:\n        /* \"#utility.yul\":16119:16123   */\n      0x00\n        /* \"#utility.yul\":16157:16159   */\n      0x20\n        /* \"#utility.yul\":16146:16155   */\n      dup3\n        /* \"#utility.yul\":16142:16160   */\n      add\n        /* \"#utility.yul\":16134:16160   */\n      swap1\n      pop\n        /* \"#utility.yul\":16206:16215   */\n      dup2\n        /* \"#utility.yul\":16200:16204   */\n      dup2\n        /* \"#utility.yul\":16196:16216   */\n      sub\n        /* \"#utility.yul\":16192:16193   */\n      0x00\n        /* \"#utility.yul\":16181:16190   */\n      dup4\n        /* \"#utility.yul\":16177:16194   */\n      add\n        /* \"#utility.yul\":16170:16217   */\n      mstore\n        /* \"#utility.yul\":16234:16365   */\n      tag_328\n        /* \"#utility.yul\":16360:16364   */\n      dup2\n        /* \"#utility.yul\":16234:16365   */\n      tag_156\n      jump\t// in\n    tag_328:\n        /* \"#utility.yul\":16226:16365   */\n      swap1\n      pop\n        /* \"#utility.yul\":15953:16372   */\n      swap2\n      swap1\n      pop\n      jump\t// out\n\n    auxdata: 0xa2646970667358221220c680c2b7a4dff550266ecfd58759b159654162b0b1929f690f142afd9464ff3664736f6c634300081a0033\n}\n",
				"bytecode": {
					"linkReferences": {},
					"object": "6080604052348015600e575f80fd5b506112148061001c5f395ff3fe608060405234801561000f575f80fd5b506004361061009c575f3560e01c8063a62d747d11610064578063a62d747d14610154578063ac5f9fd014610184578063b7dfcbee146101a0578063e627dcb6146101bc578063f37488d9146101ec5761009c565b8063217fe6c6146100a057806325f2ac62146100d05780632808235f146100ec57806374d1bd97146101085780637e02386514610124575b5f80fd5b6100ba60048036038101906100b59190610b2c565b61021c565b6040516100c79190610ba0565b60405180910390f35b6100ea60048036038101906100e59190610b2c565b6102af565b005b61010660048036038101906101019190610bb9565b6103d7565b005b610122600480360381019061011d9190610b2c565b610465565b005b61013e60048036038101906101399190610c2f565b61058d565b60405161014b9190610cba565b60405180910390f35b61016e60048036038101906101699190610cda565b610628565b60405161017b9190610ba0565b60405180910390f35b61019e60048036038101906101999190610bb9565b61073e565b005b6101ba60048036038101906101b59190610b2c565b6107cc565b005b6101d660048036038101906101d19190610c2f565b610868565b6040516101e39190610cba565b60405180910390f35b61020660048036038101906102019190610bb9565b610935565b6040516102139190610ba0565b60405180910390f35b5f8160405160200161022e9190610d5b565b604051602081830303815290604052805190602001205f808573ffffffffffffffffffffffffffffffffffffffff1673ffffffffffffffffffffffffffffffffffffffff1681526020019081526020015f206040516020016102909190610e60565b6040516020818303038152906040528051906020012014905092915050565b5f60025f8473ffffffffffffffffffffffffffffffffffffffff1673ffffffffffffffffffffffffffffffffffffffff1681526020019081526020015f2080546102f890610d9e565b90501161033a576040517f08c379a000000000000000000000000000000000000000000000000000000000815260040161033190610ec0565b60405180910390fd5b8060025f8473ffffffffffffffffffffffffffffffffffffffff1673ffffffffffffffffffffffffffffffffffffffff1681526020019081526020015f2090816103849190611072565b508173ffffffffffffffffffffffffffffffffffffffff167fa0016473004b22caf3cbe32658844f4dfe20b54f72612d0ea625cc07ca3a192b826040516103cb9190610cba565b60405180910390a25050565b600180836040516103e89190610d5b565b9081526020016040518091039020826040516104049190610d5b565b90815260200160405180910390205f6101000a81548160ff0219169083151502179055507f995f2970a2ea0d66cc2150b5c93e3c413df023b5b88534d66259c9c3c6dac86a8282604051610459929190611141565b60405180910390a15050565b5f60025f8473ffffffffffffffffffffffffffffffffffffffff1673ffffffffffffffffffffffffffffffffffffffff1681526020019081526020015f2080546104ae90610d9e565b9050146104f0576040517f08c379a00000000000000000000000000000000000000000000000000000000081526004016104e7906111c0565b60405180910390fd5b8060025f8473ffffffffffffffffffffffffffffffffffffffff1673ffffffffffffffffffffffffffffffffffffffff1681526020019081526020015f20908161053a9190611072565b508173ffffffffffffffffffffffffffffffffffffffff167fbfab59a7af78dfc896c3096604749fcee2db2e850297de42de5e6369f54bd3fb826040516105819190610cba565b60405180910390a25050565b6002602052805f5260405f205f9150905080546105a990610d9e565b80601f01602080910402602001604051908101604052809291908181526020018280546105d590610d9e565b80156106205780601f106105f757610100808354040283529160200191610620565b820191905f5260205f20905b81548152906001019060200180831161060357829003601f168201915b505050505081565b5f805f803373ffffffffffffffffffffffffffffffffffffffff1673ffffffffffffffffffffffffffffffffffffffff1681526020019081526020015f20805461067190610d9e565b80601f016020809104026020016040519081016040528092919081815260200182805461069d90610d9e565b80156106e85780601f106106bf576101008083540402835291602001916106e8565b820191905f5260205f20905b8154815290600101906020018083116106cb57829003601f168201915b505050505090506001816040516106ff9190610d5b565b90815260200160405180910390208360405161071b9190610d5b565b90815260200160405180910390205f9054906101000a900460ff16915050919050565b5f60018360405161074f9190610d5b565b90815260200160405180910390208260405161076b9190610d5b565b90815260200160405180910390205f6101000a81548160ff0219169083151502179055507f213e0e506c4dc293f81607cd7c386e8054c30488dec51469ff3fddcc5f3ad70c82826040516107c0929190611141565b60405180910390a15050565b805f808473ffffffffffffffffffffffffffffffffffffffff1673ffffffffffffffffffffffffffffffffffffffff1681526020019081526020015f2090816108159190611072565b508173ffffffffffffffffffffffffffffffffffffffff167f3565795c2fb8842c21347d277937778bbcfe788b5b4f790fc5e408786cbe9c908260405161085c9190610cba565b60405180910390a25050565b606060025f8373ffffffffffffffffffffffffffffffffffffffff1673ffffffffffffffffffffffffffffffffffffffff1681526020019081526020015f2080546108b290610d9e565b80601f01602080910402602001604051908101604052809291908181526020018280546108de90610d9e565b80156109295780601f1061090057610100808354040283529160200191610929565b820191905f5260205f20905b81548152906001019060200180831161090c57829003601f168201915b50505050509050919050565b5f6001836040516109469190610d5b565b9081526020016040518091039020826040516109629190610d5b565b90815260200160405180910390205f9054906101000a900460ff16905092915050565b5f604051905090565b5f80fd5b5f80fd5b5f73ffffffffffffffffffffffffffffffffffffffff82169050919050565b5f6109bf82610996565b9050919050565b6109cf816109b5565b81146109d9575f80fd5b50565b5f813590506109ea816109c6565b92915050565b5f80fd5b5f80fd5b5f601f19601f8301169050919050565b7f4e487b71000000000000000000000000000000000000000000000000000000005f52604160045260245ffd5b610a3e826109f8565b810181811067ffffffffffffffff82111715610a5d57610a5c610a08565b5b80604052505050565b5f610a6f610985565b9050610a7b8282610a35565b919050565b5f67ffffffffffffffff821115610a9a57610a99610a08565b5b610aa3826109f8565b9050602081019050919050565b828183375f83830152505050565b5f610ad0610acb84610a80565b610a66565b905082815260208101848484011115610aec57610aeb6109f4565b5b610af7848285610ab0565b509392505050565b5f82601f830112610b1357610b126109f0565b5b8135610b23848260208601610abe565b91505092915050565b5f8060408385031215610b4257610b4161098e565b5b5f610b4f858286016109dc565b925050602083013567ffffffffffffffff811115610b7057610b6f610992565b5b610b7c85828601610aff565b9150509250929050565b5f8115159050919050565b610b9a81610b86565b82525050565b5f602082019050610bb35f830184610b91565b92915050565b5f8060408385031215610bcf57610bce61098e565b5b5f83013567ffffffffffffffff811115610bec57610beb610992565b5b610bf885828601610aff565b925050602083013567ffffffffffffffff811115610c1957610c18610992565b5b610c2585828601610aff565b9150509250929050565b5f60208284031215610c4457610c4361098e565b5b5f610c51848285016109dc565b91505092915050565b5f81519050919050565b5f82825260208201905092915050565b8281835e5f83830152505050565b5f610c8c82610c5a565b610c968185610c64565b9350610ca6818560208601610c74565b610caf816109f8565b840191505092915050565b5f6020820190508181035f830152610cd28184610c82565b905092915050565b5f60208284031215610cef57610cee61098e565b5b5f82013567ffffffffffffffff811115610d0c57610d0b610992565b5b610d1884828501610aff565b91505092915050565b5f81905092915050565b5f610d3582610c5a565b610d3f8185610d21565b9350610d4f818560208601610c74565b80840191505092915050565b5f610d668284610d2b565b915081905092915050565b7f4e487b71000000000000000000000000000000000000000000000000000000005f52602260045260245ffd5b5f6002820490506001821680610db557607f821691505b602082108103610dc857610dc7610d71565b5b50919050565b5f819050815f5260205f209050919050565b5f8154610dec81610d9e565b610df68186610d21565b9450600182165f8114610e105760018114610e2557610e57565b60ff1983168652811515820286019350610e57565b610e2e85610dce565b5f5b83811015610e4f57815481890152600182019150602081019050610e30565b838801955050505b50505092915050565b5f610e6b8284610de0565b915081905092915050565b7f444944206e6f74207265676973746572656400000000000000000000000000005f82015250565b5f610eaa601283610c64565b9150610eb582610e76565b602082019050919050565b5f6020820190508181035f830152610ed781610e9e565b9050919050565b5f6020601f8301049050919050565b5f82821b905092915050565b5f60088302610f287fffffffffffffffffffffffffffffffffffffffffffffffffffffffffffffffff82610eed565b610f328683610eed565b95508019841693508086168417925050509392505050565b5f819050919050565b5f819050919050565b5f610f76610f71610f6c84610f4a565b610f53565b610f4a565b9050919050565b5f819050919050565b610f8f83610f5c565b610fa3610f9b82610f7d565b848454610ef9565b825550505050565b5f90565b610fb7610fab565b610fc2818484610f86565b505050565b5b81811015610fe557610fda5f82610faf565b600181019050610fc8565b5050565b601f82111561102a57610ffb81610dce565b61100484610ede565b81016020851015611013578190505b61102761101f85610ede565b830182610fc7565b50505b505050565b5f82821c905092915050565b5f61104a5f198460080261102f565b1980831691505092915050565b5f611062838361103b565b9150826002028217905092915050565b61107b82610c5a565b67ffffffffffffffff81111561109457611093610a08565b5b61109e8254610d9e565b6110a9828285610fe9565b5f60209050601f8311600181146110da575f84156110c8578287015190505b6110d28582611057565b865550611139565b601f1984166110e886610dce565b5f5b8281101561110f578489015182556001820191506020850194506020810190506110ea565b8683101561112c5784890151611128601f89168261103b565b8355505b6001600288020188555050505b505050505050565b5f6040820190508181035f8301526111598185610c82565b9050818103602083015261116d8184610c82565b90509392505050565b7f44494420616c72656164792072656769737465726564000000000000000000005f82015250565b5f6111aa601683610c64565b91506111b582611176565b602082019050919050565b5f6020820190508181035f8301526111d78161119e565b905091905056fea2646970667358221220c680c2b7a4dff550266ecfd58759b159654162b0b1929f690f142afd9464ff3664736f6c634300081a0033",
					"opcodes": "PUSH1 0x80 PUSH1 0x40 MSTORE CALLVALUE DUP1 ISZERO PUSH1 0xE JUMPI PUSH0 DUP1 REVERT JUMPDEST POP PUSH2 0x1214 DUP1 PUSH2 0x1C PUSH0 CODECOPY PUSH0 RETURN INVALID PUSH1 0x80 PUSH1 0x40 MSTORE CALLVALUE DUP1 ISZERO PUSH2 0xF JUMPI PUSH0 DUP1 REVERT JUMPDEST POP PUSH1 0x4 CALLDATASIZE LT PUSH2 0x9C JUMPI PUSH0 CALLDATALOAD PUSH1 0xE0 SHR DUP1 PUSH4 0xA62D747D GT PUSH2 0x64 JUMPI DUP1 PUSH4 0xA62D747D EQ PUSH2 0x154 JUMPI DUP1 PUSH4 0xAC5F9FD0 EQ PUSH2 0x184 JUMPI DUP1 PUSH4 0xB7DFCBEE EQ PUSH2 0x1A0 JUMPI DUP1 PUSH4 0xE627DCB6 EQ PUSH2 0x1BC JUMPI DUP1 PUSH4 0xF37488D9 EQ PUSH2 0x1EC JUMPI PUSH2 0x9C JUMP JUMPDEST DUP1 PUSH4 0x217FE6C6 EQ PUSH2 0xA0 JUMPI DUP1 PUSH4 0x25F2AC62 EQ PUSH2 0xD0 JUMPI DUP1 PUSH4 0x2808235F EQ PUSH2 0xEC JUMPI DUP1 PUSH4 0x74D1BD97 EQ PUSH2 0x108 JUMPI DUP1 PUSH4 0x7E023865 EQ PUSH2 0x124 JUMPI JUMPDEST PUSH0 DUP1 REVERT JUMPDEST PUSH2 0xBA PUSH1 0x4 DUP1 CALLDATASIZE SUB DUP2 ADD SWAP1 PUSH2 0xB5 SWAP2 SWAP1 PUSH2 0xB2C JUMP JUMPDEST PUSH2 0x21C JUMP JUMPDEST PUSH1 0x40 MLOAD PUSH2 0xC7 SWAP2 SWAP1 PUSH2 0xBA0 JUMP JUMPDEST PUSH1 0x40 MLOAD DUP1 SWAP2 SUB SWAP1 RETURN JUMPDEST PUSH2 0xEA PUSH1 0x4 DUP1 CALLDATASIZE SUB DUP2 ADD SWAP1 PUSH2 0xE5 SWAP2 SWAP1 PUSH2 0xB2C JUMP JUMPDEST PUSH2 0x2AF JUMP JUMPDEST STOP JUMPDEST PUSH2 0x106 PUSH1 0x4 DUP1 CALLDATASIZE SUB DUP2 ADD SWAP1 PUSH2 0x101 SWAP2 SWAP1 PUSH2 0xBB9 JUMP JUMPDEST PUSH2 0x3D7 JUMP JUMPDEST STOP JUMPDEST PUSH2 0x122 PUSH1 0x4 DUP1 CALLDATASIZE SUB DUP2 ADD SWAP1 PUSH2 0x11D SWAP2 SWAP1 PUSH2 0xB2C JUMP JUMPDEST PUSH2 0x465 JUMP JUMPDEST STOP JUMPDEST PUSH2 0x13E PUSH1 0x4 DUP1 CALLDATASIZE SUB DUP2 ADD SWAP1 PUSH2 0x139 SWAP2 SWAP1 PUSH2 0xC2F JUMP JUMPDEST PUSH2 0x58D JUMP JUMPDEST PUSH1 0x40 MLOAD PUSH2 0x14B SWAP2 SWAP1 PUSH2 0xCBA JUMP JUMPDEST PUSH1 0x40 MLOAD DUP1 SWAP2 SUB SWAP1 RETURN JUMPDEST PUSH2 0x16E PUSH1 0x4 DUP1 CALLDATASIZE SUB DUP2 ADD SWAP1 PUSH2 0x169 SWAP2 SWAP1 PUSH2 0xCDA JUMP JUMPDEST PUSH2 0x628 JUMP JUMPDEST PUSH1 0x40 MLOAD PUSH2 0x17B SWAP2 SWAP1 PUSH2 0xBA0 JUMP JUMPDEST PUSH1 0x40 MLOAD DUP1 SWAP2 SUB SWAP1 RETURN JUMPDEST PUSH2 0x19E PUSH1 0x4 DUP1 CALLDATASIZE SUB DUP2 ADD SWAP1 PUSH2 0x199 SWAP2 SWAP1 PUSH2 0xBB9 JUMP JUMPDEST PUSH2 0x73E JUMP JUMPDEST STOP JUMPDEST PUSH2 0x1BA PUSH1 0x4 DUP1 CALLDATASIZE SUB DUP2 ADD SWAP1 PUSH2 0x1B5 SWAP2 SWAP1 PUSH2 0xB2C JUMP JUMPDEST PUSH2 0x7CC JUMP JUMPDEST STOP JUMPDEST PUSH2 0x1D6 PUSH1 0x4 DUP1 CALLDATASIZE SUB DUP2 ADD SWAP1 PUSH2 0x1D1 SWAP2 SWAP1 PUSH2 0xC2F JUMP JUMPDEST PUSH2 0x868 JUMP JUMPDEST PUSH1 0x40 MLOAD PUSH2 0x1E3 SWAP2 SWAP1 PUSH2 0xCBA JUMP JUMPDEST PUSH1 0x40 MLOAD DUP1 SWAP2 SUB SWAP1 RETURN JUMPDEST PUSH2 0x206 PUSH1 0x4 DUP1 CALLDATASIZE SUB DUP2 ADD SWAP1 PUSH2 0x201 SWAP2 SWAP1 PUSH2 0xBB9 JUMP JUMPDEST PUSH2 0x935 JUMP JUMPDEST PUSH1 0x40 MLOAD PUSH2 0x213 SWAP2 SWAP1 PUSH2 0xBA0 JUMP JUMPDEST PUSH1 0x40 MLOAD DUP1 SWAP2 SUB SWAP1 RETURN JUMPDEST PUSH0 DUP2 PUSH1 0x40 MLOAD PUSH1 0x20 ADD PUSH2 0x22E SWAP2 SWAP1 PUSH2 0xD5B JUMP JUMPDEST PUSH1 0x40 MLOAD PUSH1 0x20 DUP2 DUP4 SUB SUB DUP2 MSTORE SWAP1 PUSH1 0x40 MSTORE DUP1 MLOAD SWAP1 PUSH1 0x20 ADD KECCAK256 PUSH0 DUP1 DUP6 PUSH20 0xFFFFFFFFFFFFFFFFFFFFFFFFFFFFFFFFFFFFFFFF AND PUSH20 0xFFFFFFFFFFFFFFFFFFFFFFFFFFFFFFFFFFFFFFFF AND DUP2 MSTORE PUSH1 0x20 ADD SWAP1 DUP2 MSTORE PUSH1 0x20 ADD PUSH0 KECCAK256 PUSH1 0x40 MLOAD PUSH1 0x20 ADD PUSH2 0x290 SWAP2 SWAP1 PUSH2 0xE60 JUMP JUMPDEST PUSH1 0x40 MLOAD PUSH1 0x20 DUP2 DUP4 SUB SUB DUP2 MSTORE SWAP1 PUSH1 0x40 MSTORE DUP1 MLOAD SWAP1 PUSH1 0x20 ADD KECCAK256 EQ SWAP1 POP SWAP3 SWAP2 POP POP JUMP JUMPDEST PUSH0 PUSH1 0x2 PUSH0 DUP5 PUSH20 0xFFFFFFFFFFFFFFFFFFFFFFFFFFFFFFFFFFFFFFFF AND PUSH20 0xFFFFFFFFFFFFFFFFFFFFFFFFFFFFFFFFFFFFFFFF AND DUP2 MSTORE PUSH1 0x20 ADD SWAP1 DUP2 MSTORE PUSH1 0x20 ADD PUSH0 KECCAK256 DUP1 SLOAD PUSH2 0x2F8 SWAP1 PUSH2 0xD9E JUMP JUMPDEST SWAP1 POP GT PUSH2 0x33A JUMPI PUSH1 0x40 MLOAD PUSH32 0x8C379A000000000000000000000000000000000000000000000000000000000 DUP2 MSTORE PUSH1 0x4 ADD PUSH2 0x331 SWAP1 PUSH2 0xEC0 JUMP JUMPDEST PUSH1 0x40 MLOAD DUP1 SWAP2 SUB SWAP1 REVERT JUMPDEST DUP1 PUSH1 0x2 PUSH0 DUP5 PUSH20 0xFFFFFFFFFFFFFFFFFFFFFFFFFFFFFFFFFFFFFFFF AND PUSH20 0xFFFFFFFFFFFFFFFFFFFFFFFFFFFFFFFFFFFFFFFF AND DUP2 MSTORE PUSH1 0x20 ADD SWAP1 DUP2 MSTORE PUSH1 0x20 ADD PUSH0 KECCAK256 SWAP1 DUP2 PUSH2 0x384 SWAP2 SWAP1 PUSH2 0x1072 JUMP JUMPDEST POP DUP2 PUSH20 0xFFFFFFFFFFFFFFFFFFFFFFFFFFFFFFFFFFFFFFFF AND PUSH32 0xA0016473004B22CAF3CBE32658844F4DFE20B54F72612D0EA625CC07CA3A192B DUP3 PUSH1 0x40 MLOAD PUSH2 0x3CB SWAP2 SWAP1 PUSH2 0xCBA JUMP JUMPDEST PUSH1 0x40 MLOAD DUP1 SWAP2 SUB SWAP1 LOG2 POP POP JUMP JUMPDEST PUSH1 0x1 DUP1 DUP4 PUSH1 0x40 MLOAD PUSH2 0x3E8 SWAP2 SWAP1 PUSH2 0xD5B JUMP JUMPDEST SWAP1 DUP2 MSTORE PUSH1 0x20 ADD PUSH1 0x40 MLOAD DUP1 SWAP2 SUB SWAP1 KECCAK256 DUP3 PUSH1 0x40 MLOAD PUSH2 0x404 SWAP2 SWAP1 PUSH2 0xD5B JUMP JUMPDEST SWAP1 DUP2 MSTORE PUSH1 0x20 ADD PUSH1 0x40 MLOAD DUP1 SWAP2 SUB SWAP1 KECCAK256 PUSH0 PUSH2 0x100 EXP DUP2 SLOAD DUP2 PUSH1 0xFF MUL NOT AND SWAP1 DUP4 ISZERO ISZERO MUL OR SWAP1 SSTORE POP PUSH32 0x995F2970A2EA0D66CC2150B5C93E3C413DF023B5B88534D66259C9C3C6DAC86A DUP3 DUP3 PUSH1 0x40 MLOAD PUSH2 0x459 SWAP3 SWAP2 SWAP1 PUSH2 0x1141 JUMP JUMPDEST PUSH1 0x40 MLOAD DUP1 SWAP2 SUB SWAP1 LOG1 POP POP JUMP JUMPDEST PUSH0 PUSH1 0x2 PUSH0 DUP5 PUSH20 0xFFFFFFFFFFFFFFFFFFFFFFFFFFFFFFFFFFFFFFFF AND PUSH20 0xFFFFFFFFFFFFFFFFFFFFFFFFFFFFFFFFFFFFFFFF AND DUP2 MSTORE PUSH1 0x20 ADD SWAP1 DUP2 MSTORE PUSH1 0x20 ADD PUSH0 KECCAK256 DUP1 SLOAD PUSH2 0x4AE SWAP1 PUSH2 0xD9E JUMP JUMPDEST SWAP1 POP EQ PUSH2 0x4F0 JUMPI PUSH1 0x40 MLOAD PUSH32 0x8C379A000000000000000000000000000000000000000000000000000000000 DUP2 MSTORE PUSH1 0x4 ADD PUSH2 0x4E7 SWAP1 PUSH2 0x11C0 JUMP JUMPDEST PUSH1 0x40 MLOAD DUP1 SWAP2 SUB SWAP1 REVERT JUMPDEST DUP1 PUSH1 0x2 PUSH0 DUP5 PUSH20 0xFFFFFFFFFFFFFFFFFFFFFFFFFFFFFFFFFFFFFFFF AND PUSH20 0xFFFFFFFFFFFFFFFFFFFFFFFFFFFFFFFFFFFFFFFF AND DUP2 MSTORE PUSH1 0x20 ADD SWAP1 DUP2 MSTORE PUSH1 0x20 ADD PUSH0 KECCAK256 SWAP1 DUP2 PUSH2 0x53A SWAP2 SWAP1 PUSH2 0x1072 JUMP JUMPDEST POP DUP2 PUSH20 0xFFFFFFFFFFFFFFFFFFFFFFFFFFFFFFFFFFFFFFFF AND PUSH32 0xBFAB59A7AF78DFC896C3096604749FCEE2DB2E850297DE42DE5E6369F54BD3FB DUP3 PUSH1 0x40 MLOAD PUSH2 0x581 SWAP2 SWAP1 PUSH2 0xCBA JUMP JUMPDEST PUSH1 0x40 MLOAD DUP1 SWAP2 SUB SWAP1 LOG2 POP POP JUMP JUMPDEST PUSH1 0x2 PUSH1 0x20 MSTORE DUP1 PUSH0 MSTORE PUSH1 0x40 PUSH0 KECCAK256 PUSH0 SWAP2 POP SWAP1 POP DUP1 SLOAD PUSH2 0x5A9 SWAP1 PUSH2 0xD9E JUMP JUMPDEST DUP1 PUSH1 0x1F ADD PUSH1 0x20 DUP1 SWAP2 DIV MUL PUSH1 0x20 ADD PUSH1 0x40 MLOAD SWAP1 DUP2 ADD PUSH1 0x40 MSTORE DUP1 SWAP3 SWAP2 SWAP1 DUP2 DUP2 MSTORE PUSH1 0x20 ADD DUP3 DUP1 SLOAD PUSH2 0x5D5 SWAP1 PUSH2 0xD9E JUMP JUMPDEST DUP1 ISZERO PUSH2 0x620 JUMPI DUP1 PUSH1 0x1F LT PUSH2 0x5F7 JUMPI PUSH2 0x100 DUP1 DUP4 SLOAD DIV MUL DUP4 MSTORE SWAP2 PUSH1 0x20 ADD SWAP2 PUSH2 0x620 JUMP JUMPDEST DUP3 ADD SWAP2 SWAP1 PUSH0 MSTORE PUSH1 0x20 PUSH0 KECCAK256 SWAP1 JUMPDEST DUP2 SLOAD DUP2 MSTORE SWAP1 PUSH1 0x1 ADD SWAP1 PUSH1 0x20 ADD DUP1 DUP4 GT PUSH2 0x603 JUMPI DUP3 SWAP1 SUB PUSH1 0x1F AND DUP3 ADD SWAP2 JUMPDEST POP POP POP POP POP DUP2 JUMP JUMPDEST PUSH0 DUP1 PUSH0 DUP1 CALLER PUSH20 0xFFFFFFFFFFFFFFFFFFFFFFFFFFFFFFFFFFFFFFFF AND PUSH20 0xFFFFFFFFFFFFFFFFFFFFFFFFFFFFFFFFFFFFFFFF AND DUP2 MSTORE PUSH1 0x20 ADD SWAP1 DUP2 MSTORE PUSH1 0x20 ADD PUSH0 KECCAK256 DUP1 SLOAD PUSH2 0x671 SWAP1 PUSH2 0xD9E JUMP JUMPDEST DUP1 PUSH1 0x1F ADD PUSH1 0x20 DUP1 SWAP2 DIV MUL PUSH1 0x20 ADD PUSH1 0x40 MLOAD SWAP1 DUP2 ADD PUSH1 0x40 MSTORE DUP1 SWAP3 SWAP2 SWAP1 DUP2 DUP2 MSTORE PUSH1 0x20 ADD DUP3 DUP1 SLOAD PUSH2 0x69D SWAP1 PUSH2 0xD9E JUMP JUMPDEST DUP1 ISZERO PUSH2 0x6E8 JUMPI DUP1 PUSH1 0x1F LT PUSH2 0x6BF JUMPI PUSH2 0x100 DUP1 DUP4 SLOAD DIV MUL DUP4 MSTORE SWAP2 PUSH1 0x20 ADD SWAP2 PUSH2 0x6E8 JUMP JUMPDEST DUP3 ADD SWAP2 SWAP1 PUSH0 MSTORE PUSH1 0x20 PUSH0 KECCAK256 SWAP1 JUMPDEST DUP2 SLOAD DUP2 MSTORE SWAP1 PUSH1 0x1 ADD SWAP1 PUSH1 0x20 ADD DUP1 DUP4 GT PUSH2 0x6CB JUMPI DUP3 SWAP1 SUB PUSH1 0x1F AND DUP3 ADD SWAP2 JUMPDEST POP POP POP POP POP SWAP1 POP PUSH1 0x1 DUP2 PUSH1 0x40 MLOAD PUSH2 0x6FF SWAP2 SWAP1 PUSH2 0xD5B JUMP JUMPDEST SWAP1 DUP2 MSTORE PUSH1 0x20 ADD PUSH1 0x40 MLOAD DUP1 SWAP2 SUB SWAP1 KECCAK256 DUP4 PUSH1 0x40 MLOAD PUSH2 0x71B SWAP2 SWAP1 PUSH2 0xD5B JUMP JUMPDEST SWAP1 DUP2 MSTORE PUSH1 0x20 ADD PUSH1 0x40 MLOAD DUP1 SWAP2 SUB SWAP1 KECCAK256 PUSH0 SWAP1 SLOAD SWAP1 PUSH2 0x100 EXP SWAP1 DIV PUSH1 0xFF AND SWAP2 POP POP SWAP2 SWAP1 POP JUMP JUMPDEST PUSH0 PUSH1 0x1 DUP4 PUSH1 0x40 MLOAD PUSH2 0x74F SWAP2 SWAP1 PUSH2 0xD5B JUMP JUMPDEST SWAP1 DUP2 MSTORE PUSH1 0x20 ADD PUSH1 0x40 MLOAD DUP1 SWAP2 SUB SWAP1 KECCAK256 DUP3 PUSH1 0x40 MLOAD PUSH2 0x76B SWAP2 SWAP1 PUSH2 0xD5B JUMP JUMPDEST SWAP1 DUP2 MSTORE PUSH1 0x20 ADD PUSH1 0x40 MLOAD DUP1 SWAP2 SUB SWAP1 KECCAK256 PUSH0 PUSH2 0x100 EXP DUP2 SLOAD DUP2 PUSH1 0xFF MUL NOT AND SWAP1 DUP4 ISZERO ISZERO MUL OR SWAP1 SSTORE POP PUSH32 0x213E0E506C4DC293F81607CD7C386E8054C30488DEC51469FF3FDDCC5F3AD70C DUP3 DUP3 PUSH1 0x40 MLOAD PUSH2 0x7C0 SWAP3 SWAP2 SWAP1 PUSH2 0x1141 JUMP JUMPDEST PUSH1 0x40 MLOAD DUP1 SWAP2 SUB SWAP1 LOG1 POP POP JUMP JUMPDEST DUP1 PUSH0 DUP1 DUP5 PUSH20 0xFFFFFFFFFFFFFFFFFFFFFFFFFFFFFFFFFFFFFFFF AND PUSH20 0xFFFFFFFFFFFFFFFFFFFFFFFFFFFFFFFFFFFFFFFF AND DUP2 MSTORE PUSH1 0x20 ADD SWAP1 DUP2 MSTORE PUSH1 0x20 ADD PUSH0 KECCAK256 SWAP1 DUP2 PUSH2 0x815 SWAP2 SWAP1 PUSH2 0x1072 JUMP JUMPDEST POP DUP2 PUSH20 0xFFFFFFFFFFFFFFFFFFFFFFFFFFFFFFFFFFFFFFFF AND PUSH32 0x3565795C2FB8842C21347D277937778BBCFE788B5B4F790FC5E408786CBE9C90 DUP3 PUSH1 0x40 MLOAD PUSH2 0x85C SWAP2 SWAP1 PUSH2 0xCBA JUMP JUMPDEST PUSH1 0x40 MLOAD DUP1 SWAP2 SUB SWAP1 LOG2 POP POP JUMP JUMPDEST PUSH1 0x60 PUSH1 0x2 PUSH0 DUP4 PUSH20 0xFFFFFFFFFFFFFFFFFFFFFFFFFFFFFFFFFFFFFFFF AND PUSH20 0xFFFFFFFFFFFFFFFFFFFFFFFFFFFFFFFFFFFFFFFF AND DUP2 MSTORE PUSH1 0x20 ADD SWAP1 DUP2 MSTORE PUSH1 0x20 ADD PUSH0 KECCAK256 DUP1 SLOAD PUSH2 0x8B2 SWAP1 PUSH2 0xD9E JUMP JUMPDEST DUP1 PUSH1 0x1F ADD PUSH1 0x20 DUP1 SWAP2 DIV MUL PUSH1 0x20 ADD PUSH1 0x40 MLOAD SWAP1 DUP2 ADD PUSH1 0x40 MSTORE DUP1 SWAP3 SWAP2 SWAP1 DUP2 DUP2 MSTORE PUSH1 0x20 ADD DUP3 DUP1 SLOAD PUSH2 0x8DE SWAP1 PUSH2 0xD9E JUMP JUMPDEST DUP1 ISZERO PUSH2 0x929 JUMPI DUP1 PUSH1 0x1F LT PUSH2 0x900 JUMPI PUSH2 0x100 DUP1 DUP4 SLOAD DIV MUL DUP4 MSTORE SWAP2 PUSH1 0x20 ADD SWAP2 PUSH2 0x929 JUMP JUMPDEST DUP3 ADD SWAP2 SWAP1 PUSH0 MSTORE PUSH1 0x20 PUSH0 KECCAK256 SWAP1 JUMPDEST DUP2 SLOAD DUP2 MSTORE SWAP1 PUSH1 0x1 ADD SWAP1 PUSH1 0x20 ADD DUP1 DUP4 GT PUSH2 0x90C JUMPI DUP3 SWAP1 SUB PUSH1 0x1F AND DUP3 ADD SWAP2 JUMPDEST POP POP POP POP POP SWAP1 POP SWAP2 SWAP1 POP JUMP JUMPDEST PUSH0 PUSH1 0x1 DUP4 PUSH1 0x40 MLOAD PUSH2 0x946 SWAP2 SWAP1 PUSH2 0xD5B JUMP JUMPDEST SWAP1 DUP2 MSTORE PUSH1 0x20 ADD PUSH1 0x40 MLOAD DUP1 SWAP2 SUB SWAP1 KECCAK256 DUP3 PUSH1 0x40 MLOAD PUSH2 0x962 SWAP2 SWAP1 PUSH2 0xD5B JUMP JUMPDEST SWAP1 DUP2 MSTORE PUSH1 0x20 ADD PUSH1 0x40 MLOAD DUP1 SWAP2 SUB SWAP1 KECCAK256 PUSH0 SWAP1 SLOAD SWAP1 PUSH2 0x100 EXP SWAP1 DIV PUSH1 0xFF AND SWAP1 POP SWAP3 SWAP2 POP POP JUMP JUMPDEST PUSH0 PUSH1 0x40 MLOAD SWAP1 POP SWAP1 JUMP JUMPDEST PUSH0 DUP1 REVERT JUMPDEST PUSH0 DUP1 REVERT JUMPDEST PUSH0 PUSH20 0xFFFFFFFFFFFFFFFFFFFFFFFFFFFFFFFFFFFFFFFF DUP3 AND SWAP1 POP SWAP2 SWAP1 POP JUMP JUMPDEST PUSH0 PUSH2 0x9BF DUP3 PUSH2 0x996 JUMP JUMPDEST SWAP1 POP SWAP2 SWAP1 POP JUMP JUMPDEST PUSH2 0x9CF DUP2 PUSH2 0x9B5 JUMP JUMPDEST DUP2 EQ PUSH2 0x9D9 JUMPI PUSH0 DUP1 REVERT JUMPDEST POP JUMP JUMPDEST PUSH0 DUP2 CALLDATALOAD SWAP1 POP PUSH2 0x9EA DUP2 PUSH2 0x9C6 JUMP JUMPDEST SWAP3 SWAP2 POP POP JUMP JUMPDEST PUSH0 DUP1 REVERT JUMPDEST PUSH0 DUP1 REVERT JUMPDEST PUSH0 PUSH1 0x1F NOT PUSH1 0x1F DUP4 ADD AND SWAP1 POP SWAP2 SWAP1 POP JUMP JUMPDEST PUSH32 0x4E487B7100000000000000000000000000000000000000000000000000000000 PUSH0 MSTORE PUSH1 0x41 PUSH1 0x4 MSTORE PUSH1 0x24 PUSH0 REVERT JUMPDEST PUSH2 0xA3E DUP3 PUSH2 0x9F8 JUMP JUMPDEST DUP2 ADD DUP2 DUP2 LT PUSH8 0xFFFFFFFFFFFFFFFF DUP3 GT OR ISZERO PUSH2 0xA5D JUMPI PUSH2 0xA5C PUSH2 0xA08 JUMP JUMPDEST JUMPDEST DUP1 PUSH1 0x40 MSTORE POP POP POP JUMP JUMPDEST PUSH0 PUSH2 0xA6F PUSH2 0x985 JUMP JUMPDEST SWAP1 POP PUSH2 0xA7B DUP3 DUP3 PUSH2 0xA35 JUMP JUMPDEST SWAP2 SWAP1 POP JUMP JUMPDEST PUSH0 PUSH8 0xFFFFFFFFFFFFFFFF DUP3 GT ISZERO PUSH2 0xA9A JUMPI PUSH2 0xA99 PUSH2 0xA08 JUMP JUMPDEST JUMPDEST PUSH2 0xAA3 DUP3 PUSH2 0x9F8 JUMP JUMPDEST SWAP1 POP PUSH1 0x20 DUP2 ADD SWAP1 POP SWAP2 SWAP1 POP JUMP JUMPDEST DUP3 DUP2 DUP4 CALLDATACOPY PUSH0 DUP4 DUP4 ADD MSTORE POP POP POP JUMP JUMPDEST PUSH0 PUSH2 0xAD0 PUSH2 0xACB DUP5 PUSH2 0xA80 JUMP JUMPDEST PUSH2 0xA66 JUMP JUMPDEST SWAP1 POP DUP3 DUP2 MSTORE PUSH1 0x20 DUP2 ADD DUP5 DUP5 DUP5 ADD GT ISZERO PUSH2 0xAEC JUMPI PUSH2 0xAEB PUSH2 0x9F4 JUMP JUMPDEST JUMPDEST PUSH2 0xAF7 DUP5 DUP3 DUP6 PUSH2 0xAB0 JUMP JUMPDEST POP SWAP4 SWAP3 POP POP POP JUMP JUMPDEST PUSH0 DUP3 PUSH1 0x1F DUP4 ADD SLT PUSH2 0xB13 JUMPI PUSH2 0xB12 PUSH2 0x9F0 JUMP JUMPDEST JUMPDEST DUP2 CALLDATALOAD PUSH2 0xB23 DUP5 DUP3 PUSH1 0x20 DUP7 ADD PUSH2 0xABE JUMP JUMPDEST SWAP2 POP POP SWAP3 SWAP2 POP POP JUMP JUMPDEST PUSH0 DUP1 PUSH1 0x40 DUP4 DUP6 SUB SLT ISZERO PUSH2 0xB42 JUMPI PUSH2 0xB41 PUSH2 0x98E JUMP JUMPDEST JUMPDEST PUSH0 PUSH2 0xB4F DUP6 DUP3 DUP7 ADD PUSH2 0x9DC JUMP JUMPDEST SWAP3 POP POP PUSH1 0x20 DUP4 ADD CALLDATALOAD PUSH8 0xFFFFFFFFFFFFFFFF DUP2 GT ISZERO PUSH2 0xB70 JUMPI PUSH2 0xB6F PUSH2 0x992 JUMP JUMPDEST JUMPDEST PUSH2 0xB7C DUP6 DUP3 DUP7 ADD PUSH2 0xAFF JUMP JUMPDEST SWAP2 POP POP SWAP3 POP SWAP3 SWAP1 POP JUMP JUMPDEST PUSH0 DUP2 ISZERO ISZERO SWAP1 POP SWAP2 SWAP1 POP JUMP JUMPDEST PUSH2 0xB9A DUP2 PUSH2 0xB86 JUMP JUMPDEST DUP3 MSTORE POP POP JUMP JUMPDEST PUSH0 PUSH1 0x20 DUP3 ADD SWAP1 POP PUSH2 0xBB3 PUSH0 DUP4 ADD DUP5 PUSH2 0xB91 JUMP JUMPDEST SWAP3 SWAP2 POP POP JUMP JUMPDEST PUSH0 DUP1 PUSH1 0x40 DUP4 DUP6 SUB SLT ISZERO PUSH2 0xBCF JUMPI PUSH2 0xBCE PUSH2 0x98E JUMP JUMPDEST JUMPDEST PUSH0 DUP4 ADD CALLDATALOAD PUSH8 0xFFFFFFFFFFFFFFFF DUP2 GT ISZERO PUSH2 0xBEC JUMPI PUSH2 0xBEB PUSH2 0x992 JUMP JUMPDEST JUMPDEST PUSH2 0xBF8 DUP6 DUP3 DUP7 ADD PUSH2 0xAFF JUMP JUMPDEST SWAP3 POP POP PUSH1 0x20 DUP4 ADD CALLDATALOAD PUSH8 0xFFFFFFFFFFFFFFFF DUP2 GT ISZERO PUSH2 0xC19 JUMPI PUSH2 0xC18 PUSH2 0x992 JUMP JUMPDEST JUMPDEST PUSH2 0xC25 DUP6 DUP3 DUP7 ADD PUSH2 0xAFF JUMP JUMPDEST SWAP2 POP POP SWAP3 POP SWAP3 SWAP1 POP JUMP JUMPDEST PUSH0 PUSH1 0x20 DUP3 DUP5 SUB SLT ISZERO PUSH2 0xC44 JUMPI PUSH2 0xC43 PUSH2 0x98E JUMP JUMPDEST JUMPDEST PUSH0 PUSH2 0xC51 DUP5 DUP3 DUP6 ADD PUSH2 0x9DC JUMP JUMPDEST SWAP2 POP POP SWAP3 SWAP2 POP POP JUMP JUMPDEST PUSH0 DUP2 MLOAD SWAP1 POP SWAP2 SWAP1 POP JUMP JUMPDEST PUSH0 DUP3 DUP3 MSTORE PUSH1 0x20 DUP3 ADD SWAP1 POP SWAP3 SWAP2 POP POP JUMP JUMPDEST DUP3 DUP2 DUP4 MCOPY PUSH0 DUP4 DUP4 ADD MSTORE POP POP POP JUMP JUMPDEST PUSH0 PUSH2 0xC8C DUP3 PUSH2 0xC5A JUMP JUMPDEST PUSH2 0xC96 DUP2 DUP6 PUSH2 0xC64 JUMP JUMPDEST SWAP4 POP PUSH2 0xCA6 DUP2 DUP6 PUSH1 0x20 DUP7 ADD PUSH2 0xC74 JUMP JUMPDEST PUSH2 0xCAF DUP2 PUSH2 0x9F8 JUMP JUMPDEST DUP5 ADD SWAP2 POP POP SWAP3 SWAP2 POP POP JUMP JUMPDEST PUSH0 PUSH1 0x20 DUP3 ADD SWAP1 POP DUP2 DUP2 SUB PUSH0 DUP4 ADD MSTORE PUSH2 0xCD2 DUP2 DUP5 PUSH2 0xC82 JUMP JUMPDEST SWAP1 POP SWAP3 SWAP2 POP POP JUMP JUMPDEST PUSH0 PUSH1 0x20 DUP3 DUP5 SUB SLT ISZERO PUSH2 0xCEF JUMPI PUSH2 0xCEE PUSH2 0x98E JUMP JUMPDEST JUMPDEST PUSH0 DUP3 ADD CALLDATALOAD PUSH8 0xFFFFFFFFFFFFFFFF DUP2 GT ISZERO PUSH2 0xD0C JUMPI PUSH2 0xD0B PUSH2 0x992 JUMP JUMPDEST JUMPDEST PUSH2 0xD18 DUP5 DUP3 DUP6 ADD PUSH2 0xAFF JUMP JUMPDEST SWAP2 POP POP SWAP3 SWAP2 POP POP JUMP JUMPDEST PUSH0 DUP2 SWAP1 POP SWAP3 SWAP2 POP POP JUMP JUMPDEST PUSH0 PUSH2 0xD35 DUP3 PUSH2 0xC5A JUMP JUMPDEST PUSH2 0xD3F DUP2 DUP6 PUSH2 0xD21 JUMP JUMPDEST SWAP4 POP PUSH2 0xD4F DUP2 DUP6 PUSH1 0x20 DUP7 ADD PUSH2 0xC74 JUMP JUMPDEST DUP1 DUP5 ADD SWAP2 POP POP SWAP3 SWAP2 POP POP JUMP JUMPDEST PUSH0 PUSH2 0xD66 DUP3 DUP5 PUSH2 0xD2B JUMP JUMPDEST SWAP2 POP DUP2 SWAP1 POP SWAP3 SWAP2 POP POP JUMP JUMPDEST PUSH32 0x4E487B7100000000000000000000000000000000000000000000000000000000 PUSH0 MSTORE PUSH1 0x22 PUSH1 0x4 MSTORE PUSH1 0x24 PUSH0 REVERT JUMPDEST PUSH0 PUSH1 0x2 DUP3 DIV SWAP1 POP PUSH1 0x1 DUP3 AND DUP1 PUSH2 0xDB5 JUMPI PUSH1 0x7F DUP3 AND SWAP2 POP JUMPDEST PUSH1 0x20 DUP3 LT DUP2 SUB PUSH2 0xDC8 JUMPI PUSH2 0xDC7 PUSH2 0xD71 JUMP JUMPDEST JUMPDEST POP SWAP2 SWAP1 POP JUMP JUMPDEST PUSH0 DUP2 SWAP1 POP DUP2 PUSH0 MSTORE PUSH1 0x20 PUSH0 KECCAK256 SWAP1 POP SWAP2 SWAP1 POP JUMP JUMPDEST PUSH0 DUP2 SLOAD PUSH2 0xDEC DUP2 PUSH2 0xD9E JUMP JUMPDEST PUSH2 0xDF6 DUP2 DUP7 PUSH2 0xD21 JUMP JUMPDEST SWAP5 POP PUSH1 0x1 DUP3 AND PUSH0 DUP2 EQ PUSH2 0xE10 JUMPI PUSH1 0x1 DUP2 EQ PUSH2 0xE25 JUMPI PUSH2 0xE57 JUMP JUMPDEST PUSH1 0xFF NOT DUP4 AND DUP7 MSTORE DUP2 ISZERO ISZERO DUP3 MUL DUP7 ADD SWAP4 POP PUSH2 0xE57 JUMP JUMPDEST PUSH2 0xE2E DUP6 PUSH2 0xDCE JUMP JUMPDEST PUSH0 JUMPDEST DUP4 DUP2 LT ISZERO PUSH2 0xE4F JUMPI DUP2 SLOAD DUP2 DUP10 ADD MSTORE PUSH1 0x1 DUP3 ADD SWAP2 POP PUSH1 0x20 DUP2 ADD SWAP1 POP PUSH2 0xE30 JUMP JUMPDEST DUP4 DUP9 ADD SWAP6 POP POP POP JUMPDEST POP POP POP SWAP3 SWAP2 POP POP JUMP JUMPDEST PUSH0 PUSH2 0xE6B DUP3 DUP5 PUSH2 0xDE0 JUMP JUMPDEST SWAP2 POP DUP2 SWAP1 POP SWAP3 SWAP2 POP POP JUMP JUMPDEST PUSH32 0x444944206E6F7420726567697374657265640000000000000000000000000000 PUSH0 DUP3 ADD MSTORE POP JUMP JUMPDEST PUSH0 PUSH2 0xEAA PUSH1 0x12 DUP4 PUSH2 0xC64 JUMP JUMPDEST SWAP2 POP PUSH2 0xEB5 DUP3 PUSH2 0xE76 JUMP JUMPDEST PUSH1 0x20 DUP3 ADD SWAP1 POP SWAP2 SWAP1 POP JUMP JUMPDEST PUSH0 PUSH1 0x20 DUP3 ADD SWAP1 POP DUP2 DUP2 SUB PUSH0 DUP4 ADD MSTORE PUSH2 0xED7 DUP2 PUSH2 0xE9E JUMP JUMPDEST SWAP1 POP SWAP2 SWAP1 POP JUMP JUMPDEST PUSH0 PUSH1 0x20 PUSH1 0x1F DUP4 ADD DIV SWAP1 POP SWAP2 SWAP1 POP JUMP JUMPDEST PUSH0 DUP3 DUP3 SHL SWAP1 POP SWAP3 SWAP2 POP POP JUMP JUMPDEST PUSH0 PUSH1 0x8 DUP4 MUL PUSH2 0xF28 PUSH32 0xFFFFFFFFFFFFFFFFFFFFFFFFFFFFFFFFFFFFFFFFFFFFFFFFFFFFFFFFFFFFFFFF DUP3 PUSH2 0xEED JUMP JUMPDEST PUSH2 0xF32 DUP7 DUP4 PUSH2 0xEED JUMP JUMPDEST SWAP6 POP DUP1 NOT DUP5 AND SWAP4 POP DUP1 DUP7 AND DUP5 OR SWAP3 POP POP POP SWAP4 SWAP3 POP POP POP JUMP JUMPDEST PUSH0 DUP2 SWAP1 POP SWAP2 SWAP1 POP JUMP JUMPDEST PUSH0 DUP2 SWAP1 POP SWAP2 SWAP1 POP JUMP JUMPDEST PUSH0 PUSH2 0xF76 PUSH2 0xF71 PUSH2 0xF6C DUP5 PUSH2 0xF4A JUMP JUMPDEST PUSH2 0xF53 JUMP JUMPDEST PUSH2 0xF4A JUMP JUMPDEST SWAP1 POP SWAP2 SWAP1 POP JUMP JUMPDEST PUSH0 DUP2 SWAP1 POP SWAP2 SWAP1 POP JUMP JUMPDEST PUSH2 0xF8F DUP4 PUSH2 0xF5C JUMP JUMPDEST PUSH2 0xFA3 PUSH2 0xF9B DUP3 PUSH2 0xF7D JUMP JUMPDEST DUP5 DUP5 SLOAD PUSH2 0xEF9 JUMP JUMPDEST DUP3 SSTORE POP POP POP POP JUMP JUMPDEST PUSH0 SWAP1 JUMP JUMPDEST PUSH2 0xFB7 PUSH2 0xFAB JUMP JUMPDEST PUSH2 0xFC2 DUP2 DUP5 DUP5 PUSH2 0xF86 JUMP JUMPDEST POP POP POP JUMP JUMPDEST JUMPDEST DUP2 DUP2 LT ISZERO PUSH2 0xFE5 JUMPI PUSH2 0xFDA PUSH0 DUP3 PUSH2 0xFAF JUMP JUMPDEST PUSH1 0x1 DUP2 ADD SWAP1 POP PUSH2 0xFC8 JUMP JUMPDEST POP POP JUMP JUMPDEST PUSH1 0x1F DUP3 GT ISZERO PUSH2 0x102A JUMPI PUSH2 0xFFB DUP2 PUSH2 0xDCE JUMP JUMPDEST PUSH2 0x1004 DUP5 PUSH2 0xEDE JUMP JUMPDEST DUP2 ADD PUSH1 0x20 DUP6 LT ISZERO PUSH2 0x1013 JUMPI DUP2 SWAP1 POP JUMPDEST PUSH2 0x1027 PUSH2 0x101F DUP6 PUSH2 0xEDE JUMP JUMPDEST DUP4 ADD DUP3 PUSH2 0xFC7 JUMP JUMPDEST POP POP JUMPDEST POP POP POP JUMP JUMPDEST PUSH0 DUP3 DUP3 SHR SWAP1 POP SWAP3 SWAP2 POP POP JUMP JUMPDEST PUSH0 PUSH2 0x104A PUSH0 NOT DUP5 PUSH1 0x8 MUL PUSH2 0x102F JUMP JUMPDEST NOT DUP1 DUP4 AND SWAP2 POP POP SWAP3 SWAP2 POP POP JUMP JUMPDEST PUSH0 PUSH2 0x1062 DUP4 DUP4 PUSH2 0x103B JUMP JUMPDEST SWAP2 POP DUP3 PUSH1 0x2 MUL DUP3 OR SWAP1 POP SWAP3 SWAP2 POP POP JUMP JUMPDEST PUSH2 0x107B DUP3 PUSH2 0xC5A JUMP JUMPDEST PUSH8 0xFFFFFFFFFFFFFFFF DUP2 GT ISZERO PUSH2 0x1094 JUMPI PUSH2 0x1093 PUSH2 0xA08 JUMP JUMPDEST JUMPDEST PUSH2 0x109E DUP3 SLOAD PUSH2 0xD9E JUMP JUMPDEST PUSH2 0x10A9 DUP3 DUP3 DUP6 PUSH2 0xFE9 JUMP JUMPDEST PUSH0 PUSH1 0x20 SWAP1 POP PUSH1 0x1F DUP4 GT PUSH1 0x1 DUP2 EQ PUSH2 0x10DA JUMPI PUSH0 DUP5 ISZERO PUSH2 0x10C8 JUMPI DUP3 DUP8 ADD MLOAD SWAP1 POP JUMPDEST PUSH2 0x10D2 DUP6 DUP3 PUSH2 0x1057 JUMP JUMPDEST DUP7 SSTORE POP PUSH2 0x1139 JUMP JUMPDEST PUSH1 0x1F NOT DUP5 AND PUSH2 0x10E8 DUP7 PUSH2 0xDCE JUMP JUMPDEST PUSH0 JUMPDEST DUP3 DUP2 LT ISZERO PUSH2 0x110F JUMPI DUP5 DUP10 ADD MLOAD DUP3 SSTORE PUSH1 0x1 DUP3 ADD SWAP2 POP PUSH1 0x20 DUP6 ADD SWAP5 POP PUSH1 0x20 DUP2 ADD SWAP1 POP PUSH2 0x10EA JUMP JUMPDEST DUP7 DUP4 LT ISZERO PUSH2 0x112C JUMPI DUP5 DUP10 ADD MLOAD PUSH2 0x1128 PUSH1 0x1F DUP10 AND DUP3 PUSH2 0x103B JUMP JUMPDEST DUP4 SSTORE POP JUMPDEST PUSH1 0x1 PUSH1 0x2 DUP9 MUL ADD DUP9 SSTORE POP POP POP JUMPDEST POP POP POP POP POP POP JUMP JUMPDEST PUSH0 PUSH1 0x40 DUP3 ADD SWAP1 POP DUP2 DUP2 SUB PUSH0 DUP4 ADD MSTORE PUSH2 0x1159 DUP2 DUP6 PUSH2 0xC82 JUMP JUMPDEST SWAP1 POP DUP2 DUP2 SUB PUSH1 0x20 DUP4 ADD MSTORE PUSH2 0x116D DUP2 DUP5 PUSH2 0xC82 JUMP JUMPDEST SWAP1 POP SWAP4 SWAP3 POP POP POP JUMP JUMPDEST PUSH32 0x44494420616C7265616479207265676973746572656400000000000000000000 PUSH0 DUP3 ADD MSTORE POP JUMP JUMPDEST PUSH0 PUSH2 0x11AA PUSH1 0x16 DUP4 PUSH2 0xC64 JUMP JUMPDEST SWAP2 POP PUSH2 0x11B5 DUP3 PUSH2 0x1176 JUMP JUMPDEST PUSH1 0x20 DUP3 ADD SWAP1 POP SWAP2 SWAP1 POP JUMP JUMPDEST PUSH0 PUSH1 0x20 DUP3 ADD SWAP1 POP DUP2 DUP2 SUB PUSH0 DUP4 ADD MSTORE PUSH2 0x11D7 DUP2 PUSH2 0x119E JUMP JUMPDEST SWAP1 POP SWAP2 SWAP1 POP JUMP INVALID LOG2 PUSH5 0x6970667358 0x22 SLT KECCAK256 0xC6 DUP1 0xC2 0xB7 LOG4 0xDF CREATE2 POP 0x26 PUSH15 0xCFD58759B159654162B0B1929F690F EQ 0x2A REVERT SWAP5 PUSH5 0xFF3664736F PUSH13 0x634300081A0033000000000000 "
				},
				"gasEstimates": {
					"creation": {
						"codeDepositCost": "925600",
						"executionCost": "960",
						"totalCost": "926560"
					},
					"external": {
						"assignRole(address,string)": "infinite",
						"grantPermission(string,string)": "infinite",
						"hasPermission(string,string)": "infinite",
						"hasPermissionForCaller(string)": "infinite",
						"hasRole(address,string)": "infinite",
						"registerDID(address,string)": "infinite",
						"resolveDID(address)": "infinite",
						"revokePermission(string,string)": "infinite",
						"updateDID(address,string)": "infinite",
						"userDIDs(address)": "infinite"
					}
				},
				"methodIdentifiers": {
					"assignRole(address,string)": "b7dfcbee",
					"grantPermission(string,string)": "2808235f",
					"hasPermission(string,string)": "f37488d9",
					"hasPermissionForCaller(string)": "a62d747d",
					"hasRole(address,string)": "217fe6c6",
					"registerDID(address,string)": "74d1bd97",
					"resolveDID(address)": "e627dcb6",
					"revokePermission(string,string)": "ac5f9fd0",
					"updateDID(address,string)": "25f2ac62",
					"userDIDs(address)": "7e023865"
				}
			},
			"storageLayout": {
				"storage": [
					{
						"astId": 104,
						"contract": "SimpleRBAC.sol:SimpleRBAC",
						"label": "roles",
						"offset": 0,
						"slot": "0",
						"type": "t_mapping(t_address,t_string_storage)"
					},
					{
						"astId": 110,
						"contract": "SimpleRBAC.sol:SimpleRBAC",
						"label": "rolePermissions",
						"offset": 0,
						"slot": "1",
						"type": "t_mapping(t_string_memory_ptr,t_mapping(t_string_memory_ptr,t_bool))"
					},
					{
						"astId": 114,
						"contract": "SimpleRBAC.sol:SimpleRBAC",
						"label": "userDIDs",
						"offset": 0,
						"slot": "2",
						"type": "t_mapping(t_address,t_string_storage)"
					}
				],
				"types": {
					"t_address": {
						"encoding": "inplace",
						"label": "address",
						"numberOfBytes": "20"
					},
					"t_bool": {
						"encoding": "inplace",
						"label": "bool",
						"numberOfBytes": "1"
					},
					"t_mapping(t_address,t_string_storage)": {
						"encoding": "mapping",
						"key": "t_address",
						"label": "mapping(address => string)",
						"numberOfBytes": "32",
						"value": "t_string_storage"
					},
					"t_mapping(t_string_memory_ptr,t_bool)": {
						"encoding": "mapping",
						"key": "t_string_memory_ptr",
						"label": "mapping(string => bool)",
						"numberOfBytes": "32",
						"value": "t_bool"
					},
					"t_mapping(t_string_memory_ptr,t_mapping(t_string_memory_ptr,t_bool))": {
						"encoding": "mapping",
						"key": "t_string_memory_ptr",
						"label": "mapping(string => mapping(string => bool))",
						"numberOfBytes": "32",
						"value": "t_mapping(t_string_memory_ptr,t_bool)"
					},
					"t_string_memory_ptr": {
						"encoding": "bytes",
						"label": "string",
						"numberOfBytes": "32"
					},
					"t_string_storage": {
						"encoding": "bytes",
						"label": "string",
						"numberOfBytes": "32"
					}
				}
			},
			"userdoc": {
				"kind": "user",
				"methods": {},
				"version": 1
			}
		}
	}
}