{
	"data": {
		"bytecode": {
			"linkReferences": {},
			"object": "6080604052348015600e575f80fd5b506103ec8061001c5f395ff3fe608060405234801561000f575f80fd5b5060043610610029575f3560e01c8063de729e031461002d575b5f80fd5b6100476004803603810190610042919061025f565b610049565b005b8273ffffffffffffffffffffffffffffffffffffffff168473ffffffffffffffffffffffffffffffffffffffff167f3a661c55f53e3feb055071905097e45c5a35d8b7d82add98388e1e4a8de23f2a8484426040516100aa93929190610373565b60405180910390a350505050565b5f604051905090565b5f80fd5b5f80fd5b5f73ffffffffffffffffffffffffffffffffffffffff82169050919050565b5f6100f2826100c9565b9050919050565b610102816100e8565b811461010c575f80fd5b50565b5f8135905061011d816100f9565b92915050565b5f80fd5b5f80fd5b5f601f19601f8301169050919050565b7f4e487b71000000000000000000000000000000000000000000000000000000005f52604160045260245ffd5b6101718261012b565b810181811067ffffffffffffffff821117156101905761018f61013b565b5b80604052505050565b5f6101a26100b8565b90506101ae8282610168565b919050565b5f67ffffffffffffffff8211156101cd576101cc61013b565b5b6101d68261012b565b9050602081019050919050565b828183375f83830152505050565b5f6102036101fe846101b3565b610199565b90508281526020810184848401111561021f5761021e610127565b5b61022a8482856101e3565b509392505050565b5f82601f83011261024657610245610123565b5b81356102568482602086016101f1565b91505092915050565b5f805f8060808587031215610277576102766100c1565b5b5f6102848782880161010f565b94505060206102958782880161010f565b935050604085013567ffffffffffffffff8111156102b6576102b56100c5565b5b6102c287828801610232565b925050606085013567ffffffffffffffff8111156102e3576102e26100c5565b5b6102ef87828801610232565b91505092959194509250565b5f81519050919050565b5f82825260208201905092915050565b8281835e5f83830152505050565b5f61032d826102fb565b6103378185610305565b9350610347818560208601610315565b6103508161012b565b840191505092915050565b5f819050919050565b61036d8161035b565b82525050565b5f6060820190508181035f83015261038b8186610323565b9050818103602083015261039f8185610323565b90506103ae6040830184610364565b94935050505056fea26469706673582212205df4c9e45630d8089db7abb9c93f47cba0cf7828ef4cebb95e49679bdfe5661264736f6c634300081a0033",
			"opcodes": "PUSH1 0x80 PUSH1 0x40 MSTORE CALLVALUE DUP1 ISZERO PUSH1 0xE JUMPI PUSH0 DUP1 REVERT JUMPDEST POP PUSH2 0x3EC DUP1 PUSH2 0x1C PUSH0 CODECOPY PUSH0 RETURN INVALID PUSH1 0x80 PUSH1 0x40 MSTORE CALLVALUE DUP1 ISZERO PUSH2 0xF JUMPI PUSH0 DUP1 REVERT JUMPDEST POP PUSH1 0x4 CALLDATASIZE LT PUSH2 0x29 JUMPI PUSH0 CALLDATALOAD PUSH1 0xE0 SHR DUP1 PUSH4 0xDE729E03 EQ PUSH2 0x2D JUMPI JUMPDEST PUSH0 DUP1 REVERT JUMPDEST PUSH2 0x47 PUSH1 0x4 DUP1 CALLDATASIZE SUB DUP2 ADD SWAP1 PUSH2 0x42 SWAP2 SWAP1 PUSH2 0x25F JUMP JUMPDEST PUSH2 0x49 JUMP JUMPDEST STOP JUMPDEST DUP3 PUSH20 0xFFFFFFFFFFFFFFFFFFFFFFFFFFFFFFFFFFFFFFFF AND DUP5 PUSH20 0xFFFFFFFFFFFFFFFFFFFFFFFFFFFFFFFFFFFFFFFF AND PUSH32 0x3A661C55F53E3FEB055071905097E45C5A35D8B7D82ADD98388E1E4A8DE23F2A DUP5 DUP5 TIMESTAMP PUSH1 0x40 MLOAD PUSH2 0xAA SWAP4 SWAP3 SWAP2 SWAP1 PUSH2 0x373 JUMP JUMPDEST PUSH1 0x40 MLOAD DUP1 SWAP2 SUB SWAP1 LOG3 POP POP POP POP JUMP JUMPDEST PUSH0 PUSH1 0x40 MLOAD SWAP1 POP SWAP1 JUMP JUMPDEST PUSH0 DUP1 REVERT JUMPDEST PUSH0 DUP1 REVERT JUMPDEST PUSH0 PUSH20 0xFFFFFFFFFFFFFFFFFFFFFFFFFFFFFFFFFFFFFFFF DUP3 AND SWAP1 POP SWAP2 SWAP1 POP JUMP JUMPDEST PUSH0 PUSH2 0xF2 DUP3 PUSH2 0xC9 JUMP JUMPDEST SWAP1 POP SWAP2 SWAP1 POP JUMP JUMPDEST PUSH2 0x102 DUP2 PUSH2 0xE8 JUMP JUMPDEST DUP2 EQ PUSH2 0x10C JUMPI PUSH0 DUP1 REVERT JUMPDEST POP JUMP JUMPDEST PUSH0 DUP2 CALLDATALOAD SWAP1 POP PUSH2 0x11D DUP2 PUSH2 0xF9 JUMP JUMPDEST SWAP3 SWAP2 POP POP JUMP JUMPDEST PUSH0 DUP1 REVERT JUMPDEST PUSH0 DUP1 REVERT JUMPDEST PUSH0 PUSH1 0x1F NOT PUSH1 0x1F DUP4 ADD AND SWAP1 POP SWAP2 SWAP1 POP JUMP JUMPDEST PUSH32 0x4E487B7100000000000000000000000000000000000000000000000000000000 PUSH0 MSTORE PUSH1 0x41 PUSH1 0x4 MSTORE PUSH1 0x24 PUSH0 REVERT JUMPDEST PUSH2 0x171 DUP3 PUSH2 0x12B JUMP JUMPDEST DUP2 ADD DUP2 DUP2 LT PUSH8 0xFFFFFFFFFFFFFFFF DUP3 GT OR ISZERO PUSH2 0x190 JUMPI PUSH2 0x18F PUSH2 0x13B JUMP JUMPDEST JUMPDEST DUP1 PUSH1 0x40 MSTORE POP POP POP JUMP JUMPDEST PUSH0 PUSH2 0x1A2 PUSH2 0xB8 JUMP JUMPDEST SWAP1 POP PUSH2 0x1AE DUP3 DUP3 PUSH2 0x168 JUMP JUMPDEST SWAP2 SWAP1 POP JUMP JUMPDEST PUSH0 PUSH8 0xFFFFFFFFFFFFFFFF DUP3 GT ISZERO PUSH2 0x1CD JUMPI PUSH2 0x1CC PUSH2 0x13B JUMP JUMPDEST JUMPDEST PUSH2 0x1D6 DUP3 PUSH2 0x12B JUMP JUMPDEST SWAP1 POP PUSH1 0x20 DUP2 ADD SWAP1 POP SWAP2 SWAP1 POP JUMP JUMPDEST DUP3 DUP2 DUP4 CALLDATACOPY PUSH0 DUP4 DUP4 ADD MSTORE POP POP POP JUMP JUMPDEST PUSH0 PUSH2 0x203 PUSH2 0x1FE DUP5 PUSH2 0x1B3 JUMP JUMPDEST PUSH2 0x199 JUMP JUMPDEST SWAP1 POP DUP3 DUP2 MSTORE PUSH1 0x20 DUP2 ADD DUP5 DUP5 DUP5 ADD GT ISZERO PUSH2 0x21F JUMPI PUSH2 0x21E PUSH2 0x127 JUMP JUMPDEST JUMPDEST PUSH2 0x22A DUP5 DUP3 DUP6 PUSH2 0x1E3 JUMP JUMPDEST POP SWAP4 SWAP3 POP POP POP JUMP JUMPDEST PUSH0 DUP3 PUSH1 0x1F DUP4 ADD SLT PUSH2 0x246 JUMPI PUSH2 0x245 PUSH2 0x123 JUMP JUMPDEST JUMPDEST DUP2 CALLDATALOAD PUSH2 0x256 DUP5 DUP3 PUSH1 0x20 DUP7 ADD PUSH2 0x1F1 JUMP JUMPDEST SWAP2 POP POP SWAP3 SWAP2 POP POP JUMP JUMPDEST PUSH0 DUP1 PUSH0 DUP1 PUSH1 0x80 DUP6 DUP8 SUB SLT ISZERO PUSH2 0x277 JUMPI PUSH2 0x276 PUSH2 0xC1 JUMP JUMPDEST JUMPDEST PUSH0 PUSH2 0x284 DUP8 DUP3 DUP9 ADD PUSH2 0x10F JUMP JUMPDEST SWAP5 POP POP PUSH1 0x20 PUSH2 0x295 DUP8 DUP3 DUP9 ADD PUSH2 0x10F JUMP JUMPDEST SWAP4 POP POP PUSH1 0x40 DUP6 ADD CALLDATALOAD PUSH8 0xFFFFFFFFFFFFFFFF DUP2 GT ISZERO PUSH2 0x2B6 JUMPI PUSH2 0x2B5 PUSH2 0xC5 JUMP JUMPDEST JUMPDEST PUSH2 0x2C2 DUP8 DUP3 DUP9 ADD PUSH2 0x232 JUMP JUMPDEST SWAP3 POP POP PUSH1 0x60 DUP6 ADD CALLDATALOAD PUSH8 0xFFFFFFFFFFFFFFFF DUP2 GT ISZERO PUSH2 0x2E3 JUMPI PUSH2 0x2E2 PUSH2 0xC5 JUMP JUMPDEST JUMPDEST PUSH2 0x2EF DUP8 DUP3 DUP9 ADD PUSH2 0x232 JUMP JUMPDEST SWAP2 POP POP SWAP3 SWAP6 SWAP2 SWAP5 POP SWAP3 POP JUMP JUMPDEST PUSH0 DUP2 MLOAD SWAP1 POP SWAP2 SWAP1 POP JUMP JUMPDEST PUSH0 DUP3 DUP3 MSTORE PUSH1 0x20 DUP3 ADD SWAP1 POP SWAP3 SWAP2 POP POP JUMP JUMPDEST DUP3 DUP2 DUP4 MCOPY PUSH0 DUP4 DUP4 ADD MSTORE POP POP POP JUMP JUMPDEST PUSH0 PUSH2 0x32D DUP3 PUSH2 0x2FB JUMP JUMPDEST PUSH2 0x337 DUP2 DUP6 PUSH2 0x305 JUMP JUMPDEST SWAP4 POP PUSH2 0x347 DUP2 DUP6 PUSH1 0x20 DUP7 ADD PUSH2 0x315 JUMP JUMPDEST PUSH2 0x350 DUP2 PUSH2 0x12B JUMP JUMPDEST DUP5 ADD SWAP2 POP POP SWAP3 SWAP2 POP POP JUMP JUMPDEST PUSH0 DUP2 SWAP1 POP SWAP2 SWAP1 POP JUMP JUMPDEST PUSH2 0x36D DUP2 PUSH2 0x35B JUMP JUMPDEST DUP3 MSTORE POP POP JUMP JUMPDEST PUSH0 PUSH1 0x60 DUP3 ADD SWAP1 POP DUP2 DUP2 SUB PUSH0 DUP4 ADD MSTORE PUSH2 0x38B DUP2 DUP7 PUSH2 0x323 JUMP JUMPDEST SWAP1 POP DUP2 DUP2 SUB PUSH1 0x20 DUP4 ADD MSTORE PUSH2 0x39F DUP2 DUP6 PUSH2 0x323 JUMP JUMPDEST SWAP1 POP PUSH2 0x3AE PUSH1 0x40 DUP4 ADD DUP5 PUSH2 0x364 JUMP JUMPDEST SWAP5 SWAP4 POP POP POP POP JUMP INVALID LOG2 PUSH5 0x6970667358 0x22 SLT KECCAK256 TSTORE DELEGATECALL 0xC9 0xE4 JUMP ADDRESS 0xD8 ADDMOD SWAP14 0xB7 0xAB 0xB9 0xC9 EXTCODEHASH SELFBALANCE 0xCB LOG0 0xCF PUSH25 0x28EF4CEBB95E49679BDFE5661264736F6C634300081A003300 "
		},
		"gasEstimates": {
			"creation": {
				"codeDepositCost": "200800",
				"executionCost": "243",
				"totalCost": "201043"
			},
			"external": {
				"logAccess(address,address,string,string)": "infinite"
			}
		},
		"methodIdentifiers": {
			"logAccess(address,address,string,string)": "de729e03"
		}
	},
	"abi": [
		{
			"anonymous": false,
			"inputs": [
				{
					"indexed": true,
					"internalType": "address",
					"name": "user",
					"type": "address"
				},
				{
					"indexed": true,
					"internalType": "address",
					"name": "patient",
					"type": "address"
				},
				{
					"indexed": false,
					"internalType": "string",
					"name": "accessType",
					"type": "string"
				},
				{
					"indexed": false,
					"internalType": "string",
					"name": "justification",
					"type": "string"
				},
				{
					"indexed": false,
					"internalType": "uint256",
					"name": "timestamp",
					"type": "uint256"
				}
			],
			"name": "AccessLogged",
			"type": "event"
		},
		{
			"inputs": [
				{
					"internalType": "address",
					"name": "user",
					"type": "address"
				},
				{
					"internalType": "address",
					"name": "patient",
					"type": "address"
				},
				{
					"internalType": "string",
					"name": "accessType",
					"type": "string"
				},
				{
					"internalType": "string",
					"name": "justification",
					"type": "string"
				}
			],
			"name": "logAccess",
			"outputs": [],
			"stateMutability": "nonpayable",
			"type": "function"
		}
	]
}