{
	"data": {
		"bytecode": {
			"linkReferences": {},
			"object": "608060405234801561000f575f80fd5b50604051610711380380610711833981810160405281019061003191906100d4565b805f806101000a81548173ffffffffffffffffffffffffffffffffffffffff021916908373ffffffffffffffffffffffffffffffffffffffff160217905550506100ff565b5f80fd5b5f73ffffffffffffffffffffffffffffffffffffffff82169050919050565b5f6100a38261007a565b9050919050565b6100b381610099565b81146100bd575f80fd5b50565b5f815190506100ce816100aa565b92915050565b5f602082840312156100e9576100e8610076565b5b5f6100f6848285016100c0565b91505092915050565b6106058061010c5f395ff3fe608060405234801561000f575f80fd5b5060043610610029575f3560e01c8063c32e370e1461002d575b5f80fd5b61004760048036038101906100429190610258565b61005d565b60405161005491906102f8565b60405180910390f35b5f600183839050146100a4576040517f08c379a000000000000000000000000000000000000000000000000000000000815260040161009b9061036b565b60405180910390fd5b6100ac61018b565b83835f8181106100bf576100be610389565b5b90506020020135815f600181106100d9576100d8610389565b5b6020020181815250505f8054906101000a900473ffffffffffffffffffffffffffffffffffffffff1673ffffffffffffffffffffffffffffffffffffffff166343753b4d888888856040518563ffffffff1660e01b81526004016101409493929190610535565b602060405180830381865afa15801561015b573d5f803e3d5ffd5b505050506040513d601f19601f8201168201806040525081019061017f91906105a4565b91505095945050505050565b6040518060200160405280600190602082028036833780820191505090505090565b5f80fd5b5f80fd5b5f80fd5b5f819050826020600202820111156101d4576101d36101b5565b5b92915050565b5f819050826040600202820111156101f5576101f46101b5565b5b92915050565b5f80fd5b5f80fd5b5f8083601f840112610218576102176101fb565b5b8235905067ffffffffffffffff811115610235576102346101ff565b5b602083019150836020820283011115610251576102506101b5565b5b9250929050565b5f805f805f6101208688031215610272576102716101ad565b5b5f61027f888289016101b9565b9550506040610290888289016101da565b94505060c06102a1888289016101b9565b93505061010086013567ffffffffffffffff8111156102c3576102c26101b1565b5b6102cf88828901610203565b92509250509295509295909350565b5f8115159050919050565b6102f2816102de565b82525050565b5f60208201905061030b5f8301846102e9565b92915050565b5f82825260208201905092915050565b7f496e76616c6964207075626c6963496e70757473206c656e67746800000000005f82015250565b5f610355601b83610311565b915061036082610321565b602082019050919050565b5f6020820190508181035f83015261038281610349565b9050919050565b7f4e487b71000000000000000000000000000000000000000000000000000000005f52603260045260245ffd5b82818337505050565b6103cb604083836103b6565b5050565b5f60029050919050565b5f81905092915050565b5f819050919050565b6103f8604083836103b6565b5050565b5f61040783836103ec565b60408301905092915050565b5f82905092915050565b5f604082019050919050565b610432816103cf565b61043c81846103d9565b9250610447826103e3565b805f5b8381101561047f5761045c8284610413565b61046687826103fc565b96506104718361041d565b92505060018101905061044a565b505050505050565b5f60019050919050565b5f81905092915050565b5f819050919050565b5f819050919050565b6104b6816104a4565b82525050565b5f6104c783836104ad565b60208301905092915050565b5f602082019050919050565b6104e881610487565b6104f28184610491565b92506104fd8261049b565b805f5b8381101561052d57815161051487826104bc565b965061051f836104d3565b925050600181019050610500565b505050505050565b5f610120820190506105495f8301876103bf565b6105566040830186610429565b61056360c08301856103bf565b6105716101008301846104df565b95945050505050565b610583816102de565b811461058d575f80fd5b50565b5f8151905061059e8161057a565b92915050565b5f602082840312156105b9576105b86101ad565b5b5f6105c684828501610590565b9150509291505056fea26469706673582212209e41b5fa9f8cdf4e87b72a895e49b3cc0784fd3317a627cc0c1cabb9872cf91864736f6c634300081a0033",
			"opcodes": "PUSH1 0x80 PUSH1 0x40 MSTORE CALLVALUE DUP1 ISZERO PUSH2 0xF JUMPI PUSH0 DUP1 REVERT JUMPDEST POP PUSH1 0x40 MLOAD PUSH2 0x711 CODESIZE SUB DUP1 PUSH2 0x711 DUP4 CODECOPY DUP2 DUP2 ADD PUSH1 0x40 MSTORE DUP2 ADD SWAP1 PUSH2 0x31 SWAP2 SWAP1 PUSH2 0xD4 JUMP JUMPDEST DUP1 PUSH0 DUP1 PUSH2 0x100 EXP DUP2 SLOAD DUP2 PUSH20 0xFFFFFFFFFFFFFFFFFFFFFFFFFFFFFFFFFFFFFFFF MUL NOT AND SWAP1 DUP4 PUSH20 0xFFFFFFFFFFFFFFFFFFFFFFFFFFFFFFFFFFFFFFFF AND MUL OR SWAP1 SSTORE POP POP PUSH2 0xFF JUMP JUMPDEST PUSH0 DUP1 REVERT JUMPDEST PUSH0 PUSH20 0xFFFFFFFFFFFFFFFFFFFFFFFFFFFFFFFFFFFFFFFF DUP3 AND SWAP1 POP SWAP2 SWAP1 POP JUMP JUMPDEST PUSH0 PUSH2 0xA3 DUP3 PUSH2 0x7A JUMP JUMPDEST SWAP1 POP SWAP2 SWAP1 POP JUMP JUMPDEST PUSH2 0xB3 DUP2 PUSH2 0x99 JUMP JUMPDEST DUP2 EQ PUSH2 0xBD JUMPI PUSH0 DUP1 REVERT JUMPDEST POP JUMP JUMPDEST PUSH0 DUP2 MLOAD SWAP1 POP PUSH2 0xCE DUP2 PUSH2 0xAA JUMP JUMPDEST SWAP3 SWAP2 POP POP JUMP JUMPDEST PUSH0 PUSH1 0x20 DUP3 DUP5 SUB SLT ISZERO PUSH2 0xE9 JUMPI PUSH2 0xE8 PUSH2 0x76 JUMP JUMPDEST JUMPDEST PUSH0 PUSH2 0xF6 DUP5 DUP3 DUP6 ADD PUSH2 0xC0 JUMP JUMPDEST SWAP2 POP POP SWAP3 SWAP2 POP POP JUMP JUMPDEST PUSH2 0x605 DUP1 PUSH2 0x10C PUSH0 CODECOPY PUSH0 RETURN INVALID PUSH1 0x80 PUSH1 0x40 MSTORE CALLVALUE DUP1 ISZERO PUSH2 0xF JUMPI PUSH0 DUP1 REVERT JUMPDEST POP PUSH1 0x4 CALLDATASIZE LT PUSH2 0x29 JUMPI PUSH0 CALLDATALOAD PUSH1 0xE0 SHR DUP1 PUSH4 0xC32E370E EQ PUSH2 0x2D JUMPI JUMPDEST PUSH0 DUP1 REVERT JUMPDEST PUSH2 0x47 PUSH1 0x4 DUP1 CALLDATASIZE SUB DUP2 ADD SWAP1 PUSH2 0x42 SWAP2 SWAP1 PUSH2 0x258 JUMP JUMPDEST PUSH2 0x5D JUMP JUMPDEST PUSH1 0x40 MLOAD PUSH2 0x54 SWAP2 SWAP1 PUSH2 0x2F8 JUMP JUMPDEST PUSH1 0x40 MLOAD DUP1 SWAP2 SUB SWAP1 RETURN JUMPDEST PUSH0 PUSH1 0x1 DUP4 DUP4 SWAP1 POP EQ PUSH2 0xA4 JUMPI PUSH1 0x40 MLOAD PUSH32 0x8C379A000000000000000000000000000000000000000000000000000000000 DUP2 MSTORE PUSH1 0x4 ADD PUSH2 0x9B SWAP1 PUSH2 0x36B JUMP JUMPDEST PUSH1 0x40 MLOAD DUP1 SWAP2 SUB SWAP1 REVERT JUMPDEST PUSH2 0xAC PUSH2 0x18B JUMP JUMPDEST DUP4 DUP4 PUSH0 DUP2 DUP2 LT PUSH2 0xBF JUMPI PUSH2 0xBE PUSH2 0x389 JUMP JUMPDEST JUMPDEST SWAP1 POP PUSH1 0x20 MUL ADD CALLDATALOAD DUP2 PUSH0 PUSH1 0x1 DUP2 LT PUSH2 0xD9 JUMPI PUSH2 0xD8 PUSH2 0x389 JUMP JUMPDEST JUMPDEST PUSH1 0x20 MUL ADD DUP2 DUP2 MSTORE POP POP PUSH0 DUP1 SLOAD SWAP1 PUSH2 0x100 EXP SWAP1 DIV PUSH20 0xFFFFFFFFFFFFFFFFFFFFFFFFFFFFFFFFFFFFFFFF AND PUSH20 0xFFFFFFFFFFFFFFFFFFFFFFFFFFFFFFFFFFFFFFFF AND PUSH4 0x43753B4D DUP9 DUP9 DUP9 DUP6 PUSH1 0x40 MLOAD DUP6 PUSH4 0xFFFFFFFF AND PUSH1 0xE0 SHL DUP2 MSTORE PUSH1 0x4 ADD PUSH2 0x140 SWAP5 SWAP4 SWAP3 SWAP2 SWAP1 PUSH2 0x535 JUMP JUMPDEST PUSH1 0x20 PUSH1 0x40 MLOAD DUP1 DUP4 SUB DUP2 DUP7 GAS STATICCALL ISZERO DUP1 ISZERO PUSH2 0x15B JUMPI RETURNDATASIZE PUSH0 DUP1 RETURNDATACOPY RETURNDATASIZE PUSH0 REVERT JUMPDEST POP POP POP POP PUSH1 0x40 MLOAD RETURNDATASIZE PUSH1 0x1F NOT PUSH1 0x1F DUP3 ADD AND DUP3 ADD DUP1 PUSH1 0x40 MSTORE POP DUP2 ADD SWAP1 PUSH2 0x17F SWAP2 SWAP1 PUSH2 0x5A4 JUMP JUMPDEST SWAP2 POP POP SWAP6 SWAP5 POP POP POP POP POP JUMP JUMPDEST PUSH1 0x40 MLOAD DUP1 PUSH1 0x20 ADD PUSH1 0x40 MSTORE DUP1 PUSH1 0x1 SWAP1 PUSH1 0x20 DUP3 MUL DUP1 CALLDATASIZE DUP4 CALLDATACOPY DUP1 DUP3 ADD SWAP2 POP POP SWAP1 POP POP SWAP1 JUMP JUMPDEST PUSH0 DUP1 REVERT JUMPDEST PUSH0 DUP1 REVERT JUMPDEST PUSH0 DUP1 REVERT JUMPDEST PUSH0 DUP2 SWAP1 POP DUP3 PUSH1 0x20 PUSH1 0x2 MUL DUP3 ADD GT ISZERO PUSH2 0x1D4 JUMPI PUSH2 0x1D3 PUSH2 0x1B5 JUMP JUMPDEST JUMPDEST SWAP3 SWAP2 POP POP JUMP JUMPDEST PUSH0 DUP2 SWAP1 POP DUP3 PUSH1 0x40 PUSH1 0x2 MUL DUP3 ADD GT ISZERO PUSH2 0x1F5 JUMPI PUSH2 0x1F4 PUSH2 0x1B5 JUMP JUMPDEST JUMPDEST SWAP3 SWAP2 POP POP JUMP JUMPDEST PUSH0 DUP1 REVERT JUMPDEST PUSH0 DUP1 REVERT JUMPDEST PUSH0 DUP1 DUP4 PUSH1 0x1F DUP5 ADD SLT PUSH2 0x218 JUMPI PUSH2 0x217 PUSH2 0x1FB JUMP JUMPDEST JUMPDEST DUP3 CALLDATALOAD SWAP1 POP PUSH8 0xFFFFFFFFFFFFFFFF DUP2 GT ISZERO PUSH2 0x235 JUMPI PUSH2 0x234 PUSH2 0x1FF JUMP JUMPDEST JUMPDEST PUSH1 0x20 DUP4 ADD SWAP2 POP DUP4 PUSH1 0x20 DUP3 MUL DUP4 ADD GT ISZERO PUSH2 0x251 JUMPI PUSH2 0x250 PUSH2 0x1B5 JUMP JUMPDEST JUMPDEST SWAP3 POP SWAP3 SWAP1 POP JUMP JUMPDEST PUSH0 DUP1 PUSH0 DUP1 PUSH0 PUSH2 0x120 DUP7 DUP9 SUB SLT ISZERO PUSH2 0x272 JUMPI PUSH2 0x271 PUSH2 0x1AD JUMP JUMPDEST JUMPDEST PUSH0 PUSH2 0x27F DUP9 DUP3 DUP10 ADD PUSH2 0x1B9 JUMP JUMPDEST SWAP6 POP POP PUSH1 0x40 PUSH2 0x290 DUP9 DUP3 DUP10 ADD PUSH2 0x1DA JUMP JUMPDEST SWAP5 POP POP PUSH1 0xC0 PUSH2 0x2A1 DUP9 DUP3 DUP10 ADD PUSH2 0x1B9 JUMP JUMPDEST SWAP4 POP POP PUSH2 0x100 DUP7 ADD CALLDATALOAD PUSH8 0xFFFFFFFFFFFFFFFF DUP2 GT ISZERO PUSH2 0x2C3 JUMPI PUSH2 0x2C2 PUSH2 0x1B1 JUMP JUMPDEST JUMPDEST PUSH2 0x2CF DUP9 DUP3 DUP10 ADD PUSH2 0x203 JUMP JUMPDEST SWAP3 POP SWAP3 POP POP SWAP3 SWAP6 POP SWAP3 SWAP6 SWAP1 SWAP4 POP JUMP JUMPDEST PUSH0 DUP2 ISZERO ISZERO SWAP1 POP SWAP2 SWAP1 POP JUMP JUMPDEST PUSH2 0x2F2 DUP2 PUSH2 0x2DE JUMP JUMPDEST DUP3 MSTORE POP POP JUMP JUMPDEST PUSH0 PUSH1 0x20 DUP3 ADD SWAP1 POP PUSH2 0x30B PUSH0 DUP4 ADD DUP5 PUSH2 0x2E9 JUMP JUMPDEST SWAP3 SWAP2 POP POP JUMP JUMPDEST PUSH0 DUP3 DUP3 MSTORE PUSH1 0x20 DUP3 ADD SWAP1 POP SWAP3 SWAP2 POP POP JUMP JUMPDEST PUSH32 0x496E76616C6964207075626C6963496E70757473206C656E6774680000000000 PUSH0 DUP3 ADD MSTORE POP JUMP JUMPDEST PUSH0 PUSH2 0x355 PUSH1 0x1B DUP4 PUSH2 0x311 JUMP JUMPDEST SWAP2 POP PUSH2 0x360 DUP3 PUSH2 0x321 JUMP JUMPDEST PUSH1 0x20 DUP3 ADD SWAP1 POP SWAP2 SWAP1 POP JUMP JUMPDEST PUSH0 PUSH1 0x20 DUP3 ADD SWAP1 POP DUP2 DUP2 SUB PUSH0 DUP4 ADD MSTORE PUSH2 0x382 DUP2 PUSH2 0x349 JUMP JUMPDEST SWAP1 POP SWAP2 SWAP1 POP JUMP JUMPDEST PUSH32 0x4E487B7100000000000000000000000000000000000000000000000000000000 PUSH0 MSTORE PUSH1 0x32 PUSH1 0x4 MSTORE PUSH1 0x24 PUSH0 REVERT JUMPDEST DUP3 DUP2 DUP4 CALLDATACOPY POP POP POP JUMP JUMPDEST PUSH2 0x3CB PUSH1 0x40 DUP4 DUP4 PUSH2 0x3B6 JUMP JUMPDEST POP POP JUMP JUMPDEST PUSH0 PUSH1 0x2 SWAP1 POP SWAP2 SWAP1 POP JUMP JUMPDEST PUSH0 DUP2 SWAP1 POP SWAP3 SWAP2 POP POP JUMP JUMPDEST PUSH0 DUP2 SWAP1 POP SWAP2 SWAP1 POP JUMP JUMPDEST PUSH2 0x3F8 PUSH1 0x40 DUP4 DUP4 PUSH2 0x3B6 JUMP JUMPDEST POP POP JUMP JUMPDEST PUSH0 PUSH2 0x407 DUP4 DUP4 PUSH2 0x3EC JUMP JUMPDEST PUSH1 0x40 DUP4 ADD SWAP1 POP SWAP3 SWAP2 POP POP JUMP JUMPDEST PUSH0 DUP3 SWAP1 POP SWAP3 SWAP2 POP POP JUMP JUMPDEST PUSH0 PUSH1 0x40 DUP3 ADD SWAP1 POP SWAP2 SWAP1 POP JUMP JUMPDEST PUSH2 0x432 DUP2 PUSH2 0x3CF JUMP JUMPDEST PUSH2 0x43C DUP2 DUP5 PUSH2 0x3D9 JUMP JUMPDEST SWAP3 POP PUSH2 0x447 DUP3 PUSH2 0x3E3 JUMP JUMPDEST DUP1 PUSH0 JUMPDEST DUP4 DUP2 LT ISZERO PUSH2 0x47F JUMPI PUSH2 0x45C DUP3 DUP5 PUSH2 0x413 JUMP JUMPDEST PUSH2 0x466 DUP8 DUP3 PUSH2 0x3FC JUMP JUMPDEST SWAP7 POP PUSH2 0x471 DUP4 PUSH2 0x41D JUMP JUMPDEST SWAP3 POP POP PUSH1 0x1 DUP2 ADD SWAP1 POP PUSH2 0x44A JUMP JUMPDEST POP POP POP POP POP POP JUMP JUMPDEST PUSH0 PUSH1 0x1 SWAP1 POP SWAP2 SWAP1 POP JUMP JUMPDEST PUSH0 DUP2 SWAP1 POP SWAP3 SWAP2 POP POP JUMP JUMPDEST PUSH0 DUP2 SWAP1 POP SWAP2 SWAP1 POP JUMP JUMPDEST PUSH0 DUP2 SWAP1 POP SWAP2 SWAP1 POP JUMP JUMPDEST PUSH2 0x4B6 DUP2 PUSH2 0x4A4 JUMP JUMPDEST DUP3 MSTORE POP POP JUMP JUMPDEST PUSH0 PUSH2 0x4C7 DUP4 DUP4 PUSH2 0x4AD JUMP JUMPDEST PUSH1 0x20 DUP4 ADD SWAP1 POP SWAP3 SWAP2 POP POP JUMP JUMPDEST PUSH0 PUSH1 0x20 DUP3 ADD SWAP1 POP SWAP2 SWAP1 POP JUMP JUMPDEST PUSH2 0x4E8 DUP2 PUSH2 0x487 JUMP JUMPDEST PUSH2 0x4F2 DUP2 DUP5 PUSH2 0x491 JUMP JUMPDEST SWAP3 POP PUSH2 0x4FD DUP3 PUSH2 0x49B JUMP JUMPDEST DUP1 PUSH0 JUMPDEST DUP4 DUP2 LT ISZERO PUSH2 0x52D JUMPI DUP2 MLOAD PUSH2 0x514 DUP8 DUP3 PUSH2 0x4BC JUMP JUMPDEST SWAP7 POP PUSH2 0x51F DUP4 PUSH2 0x4D3 JUMP JUMPDEST SWAP3 POP POP PUSH1 0x1 DUP2 ADD SWAP1 POP PUSH2 0x500 JUMP JUMPDEST POP POP POP POP POP POP JUMP JUMPDEST PUSH0 PUSH2 0x120 DUP3 ADD SWAP1 POP PUSH2 0x549 PUSH0 DUP4 ADD DUP8 PUSH2 0x3BF JUMP JUMPDEST PUSH2 0x556 PUSH1 0x40 DUP4 ADD DUP7 PUSH2 0x429 JUMP JUMPDEST PUSH2 0x563 PUSH1 0xC0 DUP4 ADD DUP6 PUSH2 0x3BF JUMP JUMPDEST PUSH2 0x571 PUSH2 0x100 DUP4 ADD DUP5 PUSH2 0x4DF JUMP JUMPDEST SWAP6 SWAP5 POP POP POP POP POP JUMP JUMPDEST PUSH2 0x583 DUP2 PUSH2 0x2DE JUMP JUMPDEST DUP2 EQ PUSH2 0x58D JUMPI PUSH0 DUP1 REVERT JUMPDEST POP JUMP JUMPDEST PUSH0 DUP2 MLOAD SWAP1 POP PUSH2 0x59E DUP2 PUSH2 0x57A JUMP JUMPDEST SWAP3 SWAP2 POP POP JUMP JUMPDEST PUSH0 PUSH1 0x20 DUP3 DUP5 SUB SLT ISZERO PUSH2 0x5B9 JUMPI PUSH2 0x5B8 PUSH2 0x1AD JUMP JUMPDEST JUMPDEST PUSH0 PUSH2 0x5C6 DUP5 DUP3 DUP6 ADD PUSH2 0x590 JUMP JUMPDEST SWAP2 POP POP SWAP3 SWAP2 POP POP JUMP INVALID LOG2 PUSH5 0x6970667358 0x22 SLT KECCAK256 SWAP15 COINBASE 0xB5 STATICCALL SWAP16 DUP13 0xDF 0x4E DUP8 0xB7 0x2A DUP10 MCOPY BLOBHASH 0xB3 0xCC SMOD DUP5 REVERT CALLER OR 0xA6 0x27 0xCC 0xC SHR 0xAB 0xB9 DUP8 0x2C 0xF9 XOR PUSH5 0x736F6C6343 STOP ADDMOD BYTE STOP CALLER "
		},
		"gasEstimates": {
			"creation": {
				"codeDepositCost": "308200",
				"executionCost": "infinite",
				"totalCost": "infinite"
			},
			"external": {
				"verifyProof(uint256[2],uint256[2][2],uint256[2],uint256[])": "infinite"
			}
		},
		"methodIdentifiers": {
			"verifyProof(uint256[2],uint256[2][2],uint256[2],uint256[])": "c32e370e"
		}
	},
	"abi": [
		{
			"inputs": [
				{
					"internalType": "address",
					"name": "verifierAddress",
					"type": "address"
				}
			],
			"stateMutability": "nonpayable",
			"type": "constructor"
		},
		{
			"inputs": [
				{
					"internalType": "uint256[2]",
					"name": "proofA",
					"type": "uint256[2]"
				},
				{
					"internalType": "uint256[2][2]",
					"name": "proofB",
					"type": "uint256[2][2]"
				},
				{
					"internalType": "uint256[2]",
					"name": "proofC",
					"type": "uint256[2]"
				},
				{
					"internalType": "uint256[]",
					"name": "publicInputs",
					"type": "uint256[]"
				}
			],
			"name": "verifyProof",
			"outputs": [
				{
					"internalType": "bool",
					"name": "",
					"type": "bool"
				}
			],
			"stateMutability": "view",
			"type": "function"
		}
	]
}